:100000000C9446000C9465000C9465000C946500FB
:100010000C9465000C9465000C9465000C946500CC
:100020000C9465000C9465000C9465000C946500BC
:100030000C9465000C9465000C9465000C946500AC
:100040000C9465000C9465000C9467000C9465009A
:100050000C9465000C9465000C9465000C9465008C
:100060000C9465000C9465000C9465000C9465007C
:100070000C9465000C9465000C9465000C9465006C
:100080000C9465000C9465000C94650011241FBE4F
:10009000CFEFD0E1DEBFCDBF11E0A0E0B1E0EEE6F2
:1000A000F6E000E00BBF02C007900D92A237B10747
:1000B000D9F722E0A2E7B1E001C01D92A430B20757
:1000C000E1F70E94CC010C9435030C9400001F92C0
:1000D0000F920FB60F9211240BB60F922F938F939E
:1000E0009F93AF93BF93EF93FF938CB18093730172
:1000F0008091740190917501A0917601B091770182
:10010000BA2FA92F982F8827809374019093750197
:10011000A0937601B093770180917401909175015D
:10012000A0917601B0917701882780937401909314
:100130007501A0937601B0937701209173018091AE
:10014000740190917501A0917601B0917701822B95
:100150008093740190937501A0937601B093770119
:10016000809106018C30A0F4E0910601809173012A
:10017000F0E0E858FE4F8083809106018F5F809306
:100180000601809106018C3019F48FEF80930601EF
:10019000809105018C30A0F4E091050180917301FC
:1001A000F0E0EC57FE4F8083809105018F5F8093D4
:1001B0000501809105018C3019F48FEF80930501C2
:1001C000809104018430C0F480910401823040F0B9
:1001D000E091040180917301F0E0E250FF4F8083D1
:1001E000809104018F5F8093040180910401843029
:1001F00019F48FEF80930401809103018031C0F4E2
:1002000080910301843040F0E091030180917301FB
:10021000F0E0E457FE4F8083809103018F5F80936D
:10022000030180910301803119F48FEF8093030162
:10023000809102018730B8F4E0910201809173014E
:10024000F0E0E456FE4F8083809102018F5F80933F
:10025000020180910201873031F48FEF8093020117
:1002600081E0809372018091740190917501A09159
:100270007601B09177018C3A9440AF43BF4329F4A3
:1002800010927201109206013FC08091740190910A
:100290007501A0917601B09177018C3A9540AF43FA
:1002A000BF4319F4109205012FC080917401909101
:1002B0007501A0917601B09177018C3A9B40AF43D4
:1002C000BF4319F4109204011FC0809174019091F2
:1002D0007501A0917601B09177018C3A9E40AF43B1
:1002E000BF4319F4109203010FC0809174019091E3
:1002F0007501A0917601B09177018C3A9F40AF4390
:10030000BF4311F41092020180910001909101010C
:10031000843F9140F0F48091000190910101892B7C
:10032000C1F0809172018823A1F081E08093FA01ED
:1003300057988FEF9FEF90930101809300011092E7
:100340007201109274011092750110927601109250
:100350007701FF91EF91BF91AF919F918F912F9175
:100360000F900BBE0F900FBE0F901F9018950F931C
:100370001F93CF93DF93CAEED1E000EF11E0BE01EF
:1003800082E20E94A8022196C017D107C1F7DF912F
:10039000CF911F910F910895CF93DF93CDB7DEB723
:1003A000C857D1090FB6F894DEBF0FBECDBF80EF9E
:1003B0008ABB8BBB2FEF39E698E12150304090404B
:1003C000E1F700C000001BBA2FEF39E698E1215099
:1003D00030409040E1F700C000008BBB2FEF39E6C2
:1003E00088E1215030408040E1F700C000001BBA96
:1003F0009FEF29E638E1915020403040E1F700C0FE
:1004000000000E9410038DE00E9421038DE00E94F5
:10041000210388E40E94210385E60E9421038CE6E3
:100420000E9421038CE60E9421038FE60E94210393
:1004300088E2EAE4F1E0DE01119601900D928A95DE
:10044000E1F7CE0101960E94290386E2E7E0F1E0A0
:10045000DE01999601900D928A95E1F78DE1EDE22A
:10046000F1E0DE01AF5ABF4F01900D928A95E1F79E
:100470000E949F02789400EA10E50BBB8FEF94E393
:100480002CE0815090402040E1F700C000001BBBF1
:100490003FEF84E39CE0315080409040E1F700C0A2
:1004A00000008DE00E9421038DE00E94210388E47A
:1004B0000E94210389E60E942103CE0189960E94B1
:1004C0002903CE018F5A9F4F0E9429030BBB2FEFA8
:1004D00034E38CE0215030408040E1F700C0000060
:1004E0001BBB9FEF24E33CE0915020403040E1F7FC
:1004F00000C00000CE0189960E9429030E942503B6
:100500000E94B701CE0189960E94290387E090E0FE
:100510000E94250367E070E08AEE91E00E9491025C
:10052000ACCF6115710551F0FC01680F791F5D9B1F
:10053000FECF91919CB9E617F707C9F7089581E0BE
:10054000809371001092740082E680937000089589
:10055000E4E7F0E024EAA1E7B0E02083908199236A
:10056000ECF79C91987F9833C1F390917100987F3C
:10057000903131F090917100987F983009F04AC025
:10058000880F8F5F8093730084E880937400E4E7A2
:10059000F0E080818823ECF780917100887F8834B7
:1005A00031F484E98093740081E090E008958091B3
:1005B0007100887F883389F180917100887F803451
:1005C00031F084E9809374008FEF9FEF089585E800
:1005D0008A95F1F7000084E880937400E4E7F0E086
:1005E00080818823ECF780917100887F803511F03D
:1005F000883551F480917300FB01808384E98093F6
:10060000740081E090E0089584E9809374008FEF96
:100610009FEF08958FEF9FEF08958EEF9FEF08955E
:100620001BB81AB8E5E9F0E01082599A8AB18861DE
:100630008AB980818E60808387E689B910929000A4
:1006400008955D9BFECF8CB908955D9BFECF8CB95C
:100650000895FC019081992339F031965D9BFECF7E
:0E0660009CB991919111FACF0895F894FFCFB3
:10066E00FFFFFFFFFFFFFF095468697320697320C6
:10067E004855535341494E2773204F42432D4D61E8
:10068E007374657220636F64652E2E2E000D4461A7
:10069E0074612072656365697665642066726F6D3C
:1006AE0020506F776572203A0900092E2E54686922
:1006BE00732069732049495442277320537475641B
:1006CE00656E7420536174656C6C6974652E2E2E84
:0206DE000D000D
:00000001FF
