:100000000C9446000C945D000C945D000C945D0013
:100010000C945D000C945D000C945D000C945D00EC
:100020000C945D000C945D000C945D000C945D00DC
:100030000C945D000C945D000C945D000C945D00CC
:100040000C945D000C945D000C945D000C945D00BC
:100050000C945D000C945D000C945D000C945D00AC
:100060000C945D000C945D000C945D000C945D009C
:100070000C945D000C945D000C945D000C945D008C
:100080000C945D000C945D000C945D0011241FBE67
:10009000CFEFD0E1DEBFCDBF11E0A0E0B1E0EAE7F5
:1000A000F3E000E00BBF02C007900D92A037B1074C
:1000B000D9F70E945F000C94BB010C940000CF9311
:1000C000DF93CDB7DEB7C857D1090FB6F894DEBFBE
:1000D0000FBECDBF80EF8ABB8BBB2FEF89E698E1C7
:1000E000215080409040E1F700C000001BBA2FEF84
:1000F00089E698E1215080409040E1F700C000007F
:1001000080EF8BBB2FEF89E698E121508040904033
:10011000E1F700C000001BBA2FEF89E698E12150FB
:1001200080409040E1F700C000000E9454010E940E
:1001300065018DE00E9489018DE00E94890188E4BB
:100140000E94890185E60E9489018CE60E9489014E
:100150008CE60E9489018FE60E9489018DE00E9451
:1001600081018DE00E94810188E40E94810185E681
:100170000E9481018CE60E9481018CE60E9481012F
:100180008FE60E94810188E2E7E4F1E0DE0111964A
:1001900001900D928A95E1F7CE0101960E94AF0180
:1001A000CE0101960E94990186E2E0E0F1E0DE01D5
:1001B000999601900D928A95E1F781E2E6E2F1E0ED
:1001C000DE01AF5ABF4F01900D928A95E1F700EA28
:1001D00010E50BBB2FEF84E39CE021508040904062
:1001E000E1F700C000001BBB2FEF84E39CE021502F
:1001F00080409040E1F700C000008DE00E94810146
:100200008DE00E94810188E40E94810189E60E94BC
:100210008101CE0189960E949901CE018F5A9F4F8C
:100220000E94990181E30E9481010E948D01F82EB4
:1002300089E00E9481018F2D0E9481010BBB2FEF6D
:1002400084E39CE0215080409040E1F700C0000032
:100250001BBB2FEF84E39CE0215080409040E1F7EE
:1002600000C000008DE00E9489018DE00E9489019C
:1002700088E40E94890189E60E948901CE0189965D
:100280000E94AF01CE018F5A9F4F0E94AF0180E3C1
:100290000E9489010E949501F82E89E00E9489013F
:1002A0008F2D0E94890195CF1BB81AB8E5E9F0E0BF
:1002B0001082599A8AB188618AB980818E60808360
:1002C00087E689B9109290000895CF93DF93CBE928
:1002D000D0E01882AAE9B0E01C92EDE9F0E01082CB
:1002E0008881826088838C9188618C9380818E6004
:1002F000808387E68093990010929800DF91CF91D8
:100300000895EBE9F0E0908195FFFDCF80939C008C
:1003100008955D9BFECF8CB90895EBE9F0E08081F4
:100320008823ECF780919C0008955F9BFECF8CB1F1
:100330000895CF93DF93FC012081222369F0DC0133
:100340001196EBE9F0E0CCE9D0E0808185FFFDCFAC
:1003500028832D912111F9CFDF91CF910895FC01D0
:100360002081222339F031965D9BFECF2CB921915B
:0A0370002111FACF0895F894FFCF91
:10037A000954686973206973204855535341494E9B
:10038A002773204F42432D4D617374657220636F4A
:10039A0064652E2E2E000D55207220636F6D6D75CB
:1003AA006E69636174696E67207468726F756768D5
:1003BA0020554152545F00092E2E546869732069F2
:1003CA0073204949544227732053747564656E74C7
:1003DA0020536174656C6C6974652E2E2E0D0000B5
:00000001FF
