:100000000C9473000C9458020C9490000C94900083
:100010000C9490000C9490000C9490000C94900020
:100020000C9490000C9490000C9490000C94900010
:100030000C9490000C947C020C9490000C94900012
:100040000C9490000C9490000C9490000C94E80197
:100050000C94900009024402440244024402440207
:10006000440244020902440244024402440244029B
:10007000440244020902440244024402440244028B
:10008000440244020902440244024402440244027B
:100090004402440233024402440244024402440241
:1000A0004402440244024402440244024402440220
:1000B0004402440233024402440244024402440221
:1000C0004402440244024402440244024402440200
:1000D00044024402410244024402440244024402F3
:1000E000440244020D0211241FBECFE5D8E0DEBF5A
:1000F000CDBF10E0A0E6B0E0EEEFF7E002C0059063
:100100000D92A637B107D9F720E0A6E7B0E001C00D
:100110001D92A339B207E1F70E94A2020C94FD03DD
:100120000C9400001BB81AB810BC599A549A80B5A8
:10013000866080BD87E689B910BC08955F9BFECFBD
:100140008CB108951F93CF93DF93CDB7DEB764973B
:100150000FB6F894DEBF0FBECDBF8CB18B3609F55C
:1001600009C0E1E0F0E0EC0FFD1FE10FF11D80831D
:100170001F5F01C010E00E949E008D3691F7E1E004
:10018000F0E0EC0FFD1FE10FF11D108260E670E062
:10019000CE0101960E94E30321E0892B31F520E096
:1001A00024C0823759F020E020C0E1E0F0E0EC0FFD
:1001B000FD1FE10FF11D80831F5F01C010E00E9451
:1001C0009E008D3691F7E1E0F0E0EC0FFD1FE10FAE
:1001D000F11D10826BE670E0CE0101960E94E303F0
:1001E000892B11F420E001C022E0822F64960FB623
:1001F000F894DEBF0FBECDBFDF91CF911F91089560
:1002000080EC8BBB18BA15BA82BB10928A00089595
:100210008091790090917A00019751F480EC8BBB2A
:1002200081E088BB15BA80E882BB80938A0008957C
:100230000E94000110928A0008958091910090918F
:10024000920087FF09C0C09A969881E090E0909351
:100250007A008093790006C0C098969A10927A002E
:1002600010927900809191009091920086FF03C0D6
:10027000949A979802C09498979A8091910090913F
:10028000920085FF03C0AF9ADE9802C0AF98DE9A55
:10029000809191009091920083FF03C0AA9ADF9809
:1002A00002C0AA98DF9A809191009091920082FFFB
:1002B00002C0C39A01C0C39880918A0084FF14C011
:1002C000809191009091920084FF03C0C29A969809
:1002D00001C0C298809191009091920081FF02C06C
:1002E000AE9A15C0AE9813C0809191009091920083
:1002F00081FF02C0AE9A01C0AE98809191009091AA
:10030000920084FF03C0C29A969801C0C29880915F
:1003100091009091920080938A0008958330910516
:1003200049F134F48130910549F00297A9F04CC0AD
:100330008430910569F10597C9F146C081E687B916
:1003400085EC86B98FE19EE40197F1F700C00000CB
:100350003699FECF85B1089583E687B985EC86B9D5
:100360008FE19EE40197F1F700C000003699FECFBF
:1003700085B1089584E687B985EC86B98FE19EE45E
:100380000197F1F700C000003699FECF85B10895BE
:1003900080E687B985EC86B98FE19EE40197F1F795
:1003A00000C000003699FECF85B1089582E687B976
:1003B00085EC86B98FE19EE40197F1F700C000005B
:1003C0003699FECF85B108950895AA9ADF980895C9
:1003D0001F920F920FB60F9211242F933F934F93BA
:1003E0005F936F937F938F939F93AF93BF93EF939D
:1003F000FF9381B1E82FE87F8E2F90E0FC01E0565B
:10040000F109E934F10508F03FC0E65DFF4F0C94B7
:10041000DD0386B7806C86BF37C0E0917600F0E0E0
:10042000E657FF4F808183B986B7846C86BF809181
:1004300076008F5F8093760080917600873021F57B
:100440001092760080917F00909180001816190616
:10045000DCF480917F009091800001969093800061
:1004600080937F0011C083B190E0909392008093BD
:1004700091000E941D011092760086B7806C86BFA5
:1004800003C086B7856C86BF86B7856C86BFFF9133
:10049000EF91BF91AF919F918F917F916F915F91FC
:1004A0004F913F912F910F900FBE0F901F90189575
:1004B0001F920F920FB60F9211242F933F934F93D9
:1004C0008F939F938BB78F7B8BBF88EB9BE02FEF36
:1004D00039E648E1215030404040E1F700C00000DB
:1004E0000197A9F79F918F914F913F912F910F9075
:1004F0000FBE0F901F9018951F920F920FB60F927C
:1005000011242F933F934F935F936F937F938F9318
:100510009F93AF93BF93EF93FF930E94A2008093AA
:100520008100FF91EF91BF91AF919F918F917F914A
:100530006F915F914F913F912F910F900FBE0F9050
:100540001F90189580EC8ABB87B38D6087BB84B3FE
:10055000846C84BB81B3806D81BB0E94920087E66E
:1005600089B9579A80E282B986B7856C86BF0E94A6
:10057000000180E48BBF85B78F78806285BF80EAF9
:1005800085BF789485B7806885BF85B7806885BF4B
:10059000889585B78F7785BF85B78F7785BF2FEF14
:1005A00080E792E0215080409040E1F700C00000D9
:1005B0008BB78F7B8BBF0E94E5012FEF89E698E117
:1005C000215080409040E1F700C00000CAE8D0E030
:1005D00001E010E080918100813091F480917700FA
:1005E000909178000196909378008093770003971C
:1005F00021F4F8940E940001FFCF10928100D3C033
:1006000080918100823009F0CEC0188219821A824E
:100610001B821C821D821093800000937F008091BA
:100620007F00909180000797D1F72FEF89E698E13E
:10063000215080409040E1F700C00000F8940E94F3
:1006400000011092800010927F002FEF81E19AE765
:10065000215080409040E1F700C000000E94E50179
:100660002FEF81E19AE7215080409040E1F700C0F0
:10067000000010928100789496C0C7010E948E01FC
:10068000F701E657FF4F80832FEFE21AF20A86E068
:10069000E816F10491F720B328702093840096B3F4
:1006A00092709093870040B340724093820083B36E
:1006B00088708093890033B33071309388009295AD
:1006C000990F990F907C440F942B892B330F832B18
:1006D000220F822B8E838E8183FD03C0AA98DF9A1E
:1006E00002C0AA9ADF98C8010E948E0180938500FB
:1006F000898389818981823AC8F489818439B0F0FB
:1007000080917D0090917E00892B81F480917B0007
:1007100090917C00892B51F410937E0000937D0012
:1007200010927C0010927B000E94080199819339FD
:1007300050F410937E0000937D0010937C00009392
:100740007B000E94000120917B0030917C002130D1
:10075000310549F489818D3A40F110927C00109264
:100760007B000E94080120917D0030917E002130A5
:10077000310589F48981873C08F4B5CF10927E0059
:1007800010927D000E94E50180917D0090917E0095
:10079000019709F4A8CF80917B0090917C0001978C
:1007A00009F4A1CF17CF780168CF80917D00909197
:1007B0007E00019709F097CFDDCFEE0FFF1F059068
:1007C000F491E02D0994FB0151915523A9F0BF014B
:1007D000DC014D9145174111E1F759F4CD0101902C
:1007E000002049F04D9140154111C9F3FB01411121
:0E07F000EFCF81E090E001970895F894FFCFDD
:1007FE006C6C697572617074616800657365747094
:06080E00726174686100D4
:00000001FF
