S015000068536C6176655F4343746573742E7372656307
S11300000C9446000C9465000C9465000C946500F7
S11300100C9465000C9465000C9465000C946500C8
S11300200C9465000C9465000C9465000C946500B8
S11300300C9465000C9465000C9465000C946500A8
S11300400C9465000C9465000C9465000C94650098
S11300500C9465000C9465000C9465000C94650088
S11300600C9465000C9465000C9465000C94650078
S11300700C9465000C9465000C9465000C94650068
S11300800C9465000C9465000C94650011241FBE4B
S1130090CFEFD0E1DEBFCDBF12E0A0E0B1E0ECE1F4
S11300A0FFE000E00BBF02C007900D92A23BB10736
S11300B0D9F723E0A2EBB2E001C01D92AA39B2073E
S11300C0E1F70E9426030C948C070C94000098E03E
S11300D0262F217076956795382F3170321721F0CD
S11300E028E0622724E872278695915089F7CB018E
S11300F008950F931F93CF93DF93182F062FEC01CE
S11301008FEF9FEF04C0BC0189910E9467002C2FE0
S1130110211B2017C0F39C0120953095C901DF9164
S1130120CF911F910F910895FF920F931F93CF9337
S1130130DF93CDB7DEB72A970FB6F894DEBF0FBEB4
S1130140CDBF8C012EE7DC012D93CD0126E0E0E04C
S1130150F1E0DE01119601900D922A95E1F7AE01CE
S11301604F5F5F4FFC019E01295F3F4FDA01FD9015
S1130170FF0CF192A217B307D1F7E0E6D801179666
S1130180EC93F6E0FF2EE7E0F1E0DE01119601903A
S11301900D92FA94E1F7F8013896DE011196FD907C
S11301A0FF0CF192A217B307D1F7E8E6D8011E9627
S11301B0EC93E6E0FE2EEEE0F1E0DE011196019014
S11301C00D92FA94E1F7D8011F96FA01F190AF016C
S11301D0FF0CFD92E217F307C1F721E6D80155960B
S11301E02C93559723E056962C93569720EF5796C9
S11301F02C935797589627E0FB0101900D922A956E
S1130200E1F76EE10E947900F80190A3878F8EE7F1
S113021081A32A960FB6F894DEBF0FBECDBFDF913F
S1130220CF911F910F91FF900895A698A79AAF9A26
S113023008951F93CF93DF931F92CDB7DEB7182F86
S113024080E069830E941204812F880F81600E94DC
S11302501F046981862F0E941F040F90DF91CF91A4
S11302601F910C9424041F93CF93DF931F92CDB757
S1130270DEB7182F80E00E941204812F880F0E949D
S11302801F048FEF0E941F0489830E942404898124
S11302900F90DF91CF911F910895CF93DF936FE17A
S11302A080E00E94190180E00E9433018093990349
S11302B01F928F9385E191E09F938F93C5E3D3E0E1
S11302C0DF93CF930E94B804FE0101900020E9F768
S11302D0BF01615071096C1B7D0BCE010E94850426
S11302E00F900F900F900F900F900F9060E08CE1A3
S11302F0DF91CF910C9419016EE080E00E94190106
S11303006FE180E00C9419011F93CF93DF93C7E84A
S1130310D1E011E06991812F0E9419011F5F113210
S1130320C9F7DF91CF911F910895CF93C82F6BE147
S113033080E00E9419016C2F87E10E9419018FE669
S113034097E10197F1F700C0000069E180E00E94A5
S113035019018BE291E00197F1F700C0000061E11F
S113036080E0CF910C941901CF93DF93C82F6BEDEC
S113037080E00E9419016C2F87E10E9419018FE629
S113038097E10197F1F700C0000069ED80E00E9459
S11303901901EBE2F1E03197F1F700C0000061EDE3
S11303A080E00E94190180E00E9433018093990348
S11303B01F928F9385E191E09F938F93C5E3D3E0E0
S11303C0DF93CF930E94B804FE0101900020E9F767
S11303D0BF01615071096C1B7D0B0F900F900F9042
S11303E00F900F900F90CE01DF91CF910C94850464
S11303F0FF920F931F93CF93DF93F82E60E08CE16D
S11304000E94190104E010E064EB8BE10E941901E1
S113041087EC90E00197F1F700C00000CFE1D0E055
S113042006C08FEC97E00197F1F700C0000080E46C
S11304300E94330187FD0AC0219799F707C08FEC0A
S113044097E00197F1F700C0000002C0CFE1D0E0CF
S113045080E40E94330184FD02C0219781F780E487
S11304600E94330184FD03C00150110969F66F2D08
S11304708CE10E94190180E40E943301829581700D
S113048090E0DF91CF911F910F91FF9008950F930A
S11304901F93CF93DF93CDB7DEB76E970FB6F89463
S11304A0DEBF0FBECDBF80E00E9412042FEF84E3B5
S11304B09CE0215080409040E1F700C000000E9481
S11304C04D010E947C010E9484012FEF84E39CE093
S11304D0215080409040E1F700C0000087E40E9472
S11304E0950180EF0E94F801892B19F080E291E0D8
S11304F002C084E391E00E9491042FEF84E39CE026
S1130500215080409040E1F700C0000087E40E9441
S1130510B40180EF0E94F801892B19F08BE491E07B
S113052002C081E691E00E94910480E40E943301BC
S11305301F928F9388E791E09F938F938E010F5FB3
S11305401F4F1F930F930E94B804C8010E94910487
S11305500F900F900F900F900F900F906E960FB614
S1130560F894DEBF0FBECDBFDF91CF911F910F91E5
S113057008951F93CF93DF93C82F162F60E08CE16B
S11305800E9419016C2F87E10E94190161EC80E03F
S11305900E941901CFE1D0E006C08FEC97E00197EB
S11305A0F1F700C0000080E40E94330184FD02C022
S11305B0219799F780E40E94330184FD0AC0812FBA
S11305C00E94F801C1E0D0E0892B29F4C0E0D0E01A
S11305D002C0C1E0D0E0612F8CE10E94190181E0EA
S11305E00E943301682F6F7E81E00E94190160E24E
S11305F085E10E9419018C2FDF91CF911F910895FD
S1130600A79AAF9A87E40E94B40160EF87E40E943E
S1130610B90290E00895CF9387EA91E00E94910493
S1130620C0E08AEB91E00E9491048C2F0E949A040E
S113063082EC91E00E9491048C2F0E9433010E946D
S11306409A04CF5FC13269F7CF9108956F927F9278
S11306508F929F92AF92BF92CF92DF92EF92FF92CE
S11306600F931F93CF93DF93CDB7DEB7C054D14020
S11306700FB6F894DEBF0FBECDBF2FEF89E698E129
S1130680215080409040E1F700C000000E947004B7
S11306908DE00E9481048DE00E94810488E40E9420
S11306A0810485E60E9481048CE60E9481048CE624
S11306B00E9481048FE60E9481048E01075E1E4F12
S11306C066EC71E0C8010E94B104C8010E94910463
S11306D06EEE71E0C8010E94B1045E0129ECA20E25
S11306E0B11C63E172E0C5010E94B1040E940A04D6
S11306F08FEF99E628E1815090402040E1F700C057
S113070000000E9415010E9447020E940B036E0123
S113071085E6C80ED11C69E372E0C6010E94B104EB
S113072065E472E0EE24E394F12CEC0EFD1EC701A7
S11307300E94B1046CE472E089E193E00E94B10488
S1130740902E812E7A2C6B2C91E6A92E92E0B92E54
S11307508E010F501F4F9FEF29E688E191502040F2
S11307608040E1F700C000008DE00E9481048DE02C
S11307700E94810488E40E94810489E60E94810425
S1130780892D982D0E949104872D962D0E94910405
S11307900E940003882311F19C0133273F932F9378
S11307A0BF92AF921F930F930E94B804C8010E9496
S11307B09104B701C6010E94940089E193E00E946C
S11307C03F0486E892E00E9491040E944D010F903C
S11307D00F900F900F900F900F90BDCF8EE992E085
S11307E00E94910480E090E0C05CDE4F0FB6F89464
S11307F0DEBF0FBECDBFDF91CF911F910F91FF9050
S1130800EF90DF90CF90BF90AF909F908F907F90AC
S11308106F900895BB9886E087BBB89AC09A83E529
S11308208DB90895C09A98B321E030E0082E01C034
S1130830220F0A94EAF72095292328BB08958FB93B
S1130840779BFECF8FB10895C09A08951F93CF93DD
S1130850DF93182FC8E0D0E09E9BFECF9E99FECF79
S113086017FD02C0AF9801C0AF9A110F812F0E94EB
S11308709A04219789F7DF91CF911F910895EF9200
S1130880FF920F931F93CF93DF931F92CDB7DEB7E1
S1130890182F8FEF99830E9426048FEF0E9426045D
S11308A08EEF0E94260487E70E94260488E70E94B0
S11308B02604E12E9981F92E00E010E0F7018191E0
S11308C07F010E9426040F5F1F4F04311105B1F709
S11308D00F90DF91CF911F910F91FF90EF900895AA
S11308E01BB81AB8E5E9F0E01082599A8AB1886118
S11308F08AB980818E60808387E689B910929000DE
S113090008955D9BFECF8CB90895FC01680F791F93
S113091004C05D9BFECF81918CB9E617F707C9F738
S11309200895FC0103C05D9BFECF8CB981918111B8
S1130930FACF0895CF93C82F982F92959F70892F3F
S11309409A3010F4805D01C0895A0E9481048C2F72
S11309508F708A3010F4805D01C0895ACF910C9455
S11309608104FB01DC0101900D920020E1F7089560
S11309700F931F93CF93DF93CDB7DEB72E970FB6A8
S1130980F894DEBF0FBECDBF0D891E8986E08C832F
S11309901A8309838FEF9FE79E838D83CE01499647
S11309A0AC016F89788DCE0101960E94E704EF8136
S11309B0F885E00FF11F10822E960FB6F894DEBF73
S11309C00FBECDBFDF91CF911F910F9108952F924C
S11309D03F924F925F926F927F928F929F92AF92CB
S11309E0BF92CF92DF92EF92FF920F931F93CF9318
S11309F0DF93CDB7DEB72C970FB6F894DEBF0FBEEA
S1130A00CDBF7C016B018A01FC01178216828381B0
S1130A1081FFC6C188248394912C8C0E9D1EF701FE
S1130A209381F60193FD859193FF81916F01882352
S1130A3009F4B2C1853239F493FD859193FF819114
S1130A406F01853229F4B70190E00E940207E7CFD5
S1130A50512C312C20E02032A8F48B3261F028F4A0
S1130A60803251F0833271F40BC08D3239F080330F
S1130A7049F4216028C02260246025C0286023C076
S1130A80206121C027FD27C0382F30533A3078F435
S1130A9026FF06C0FAE05F9E300D1124532E13C0CA
S1130AA08AE0389E300D1124332E20620CC08E3221
S1130AB021F426FD71C1206406C08C3611F420682F
S1130AC002C0883641F4F60193FD859193FF81912C
S1130AD06F018111C0CF982F9554933018F0905224
S1130AE0933028F40C5F1F4FFFE3F9830DC0833666
S1130AF031F0833771F0833509F05EC023C0F8010B
S1130B00808189830E5F1F4F44244394512C5401E8
S1130B1015C03801F2E06F0E711CF801A080B1809D
S1130B2026FF03C0652D70E002C06FEF7FEFC501A3
S1130B302C870E94F7062C0183012C856FE7262E53
S1130B40222218C03801F2E06F0E711CF801A08057
S1130B50B18026FF03C0652D70E002C06FEF7FEF08
S1130B60C5012C870E94EC062C012C8550E8252E0B
S1130B70222A830123FC1CC006C0B70180E290E056
S1130B800E9402073A94832D90E048165906A8F370
S1130B900FC0F50127FC859127FE81915F01B70104
S1130BA090E00E94020731103A94F1E04F1A510884
S1130BB04114510471F7EDC0843611F0893641F5C2
S1130BC0F80127FF07C060817181828193810C5FE6
S1130BD01F4F08C060817181882777FD8095982F09
S1130BE00E5F1F4F4FE6B42EB22297FF09C09095B7
S1130BF08095709561957F4F8F4F9F4FF0E8BF2A86
S1130C002AE030E0A4010E942E07A82EA81843C0B1
S1130C10853731F43FEEB32EB2222AE030E024C00F
S1130C2099EFB92EB2228F36B9F020F4883509F045
S1130C30B3C00DC0803721F0883709F0ADC002C0C1
S1130C4020E1B22AB4FE0BC084E0B82A08C024FF15
S1130C5009C0E6E0BE2A06C028E030E005C020E175
S1130C6030E002C020E132E0F801B7FE07C0608145
S1130C707181828193810C5F1F4F06C060817181F5
S1130C8080E090E00E5F1F4FA4010E942E07A82E63
S1130C90A818FFE7BF22B6FE0BC02B2D2E7FA5148C
S1130CA050F4B4FE0AC0B2FC08C02B2D2E7E05C041
S1130CB07A2C2B2D03C07A2C01C0752C24FF0DC077
S1130CC0FE01EA0DF11D8081803311F4297E09C0F3
S1130CD022FF06C07394739404C0822F867809F0AF
S1130CE0739423FD14C020FF0FC05A2C731460F4B6
S1130CF0530C5718732C08C0B70180E290E02C877E
S1130D000E94020773942C857314B0F304C0731407
S1130D1010F4371801C0312C24FF12C0B70180E34E
S1130D2090E02C870E9402072C8522FF1EC021FF21
S1130D3003C088E590E002C088E790E0B7010CC0EA
S1130D40822F867891F021FD02C080E201C08BE2FF
S1130D5027FD8DE2B70190E00E94020706C0B701AB
S1130D6080E390E00E9402075A94A514C0F3AA9469
S1130D70F401EA0DF11DB701808190E00E940207A1
S1130D80A110F5CF06C0B70180E290E00E940207EF
S1130D903A943110F8CF43CEF7012681378102C04F
S1130DA02FEF3FEFC9012C960FB6F894DEBF0FBEAC
S1130DB0CDBFDF91CF911F910F91FF90EF90DF9006
S1130DC0CF90BF90AF909F908F907F906F905F90E7
S1130DD04F903F902F900895FC0105906150704012
S1130DE00110D8F7809590958E0F9F1F0895FC01F0
S1130DF06150704001900110D8F7809590958E0F46
S1130E009F1F08950F931F93CF93DF938C01EB01E2
S1130E108B8181FD03C00FEF1FEF1AC082FF0DC04D
S1130E202E813F818C819D812817390764F4E881E4
S1130E30F9810193F983E88306C0E885F985802F59
S1130E400995892B41F78E819F8101969F838E831B
S1130E50C801DF91CF911F910F910895FA01AA273C
S1130E60283051F1203181F1E8946F936E7F6E5FE9
S1130E707F4F8F4F9F4FAF4FB1E03ED0B4E03CD097
S1130E80670F781F891F9A1FA11D680F791F8A1F7A
S1130E90911DA11D6A0F711D811D911DA11D20D0E1
S1130EA009F468943F912AE0269F11243019305D9B
S1130EB03193DEF6CF010895462F4770405D41938C
S1130EC0B3E00FD0C9F7F6CF462F4F70405D4A33D9
S1130ED018F0495D31FD4052419302D0A9F7EACFA1
S1130EE0B4E0A6959795879577956795BA95C9F7D0
S1130EF000976105710508959B01AC010A2E0694C3
S1130F005795479537952795BA95C9F7620F731F7B
S10F0F10841F951FA01D0895F894FFCFC6
S1130F1C43512020202000565532444D5100524557
S1130F2C4C41592000526561643A2025780D0A0021
S1130F3C0D527820636F6E66696720646F6E652E40
S1130F4C2E2E2E000D527820636F6E666967206515
S1130F5C72726F722E2E2E2E0A0D000D5478206391
S1130F6C6F6E66696720646F6E652E2E2E2E0A0DC9
S1130F7C000D547820636F6E666967206572726F1A
S1130F8C722E2E2E2E0A0D000A0D20535441545548
S1130F9C53203D202578000FFF8F3A95693A3A95F6
S1130FAC693A44500BCC2F61552F2D1078471422DD
S1130FBCAE34F000000000526567697374657220EA
S1130FCC64756D703A0A0D0A0D000D416464722E3D
S1130FDC2000203A2000092E2E546869732069736E
S1130FEC204949544227732053747564656E7420E8
S1130FFC536174656C6C6974652E2E2E0D00095446
S113100C686973206973204855535341494E2773BB
S113101C204F42432D536C61766520636F64652EBB
S113102C2E2E000D576972656C65737320436F6DBA
S113103C6D756E69636174696F6E205573696E6743
S113104C204343313032300D0048656C6C6F2057AF
S113105C6F726C64004E756D6265720048656C6CE1
S113106C6F576F726C6420496D5052415448414D16
S113107C00256420446F6E653A09504C4C204C6F2B
S113108C636B6564095472616E736D697474696E13
S113109C672E2E0D0A000D5472616E736D69737395
S11310AC696F6E20636F6D706C6574650D0009500B
S11310BC4C4C204C6F636B204661696C65640D0A63
S10510CC00001E
S9030000FC
