:100000000C9446000C945D000C945D000C945D0013
:100010000C945D000C945D000C945D000C945D00EC
:100020000C945D000C945D000C945D000C945D00DC
:100030000C945D000C945D000C945D000C945D00CC
:100040000C945D000C945D000C945D000C945D00BC
:100050000C945D000C945D000C945D000C945D00AC
:100060000C945D000C945D000C945D000C945D009C
:100070000C945D000C945D000C945D000C945D008C
:100080000C945D000C945D000C945D0011241FBE67
:10009000CFEFD0E1DEBFCDBF11E0A0E0B1E0E4E9F9
:1000A000F2E000E00BBF02C007900D92A037B1074D
:1000B000D9F70E945F000C9448010C940000CF9384
:1000C000DF93CDB7DEB7C857D1090FB6F894DEBFBE
:1000D0000FBECDBF80EF8ABB8BBB2FEF39E698E117
:1000E000215030409040E1F700C000001BBA2FEFD4
:1000F00039E698E1215030409040E1F700C000001F
:100100008BBB2FEF39E688E1215030408040E1F78A
:1001100000C000001BBA9FEF29E638E19150204053
:100120003040E1F700C000000E9406018DE00E940F
:1001300022018DE00E94220188E40E94220185E6CE
:100140000E9422018CE60E9422018CE60E9422017C
:100150008FE60E94220188E2E7E4F1E0DE011196D9
:1001600001900D928A95E1F7CE0101960E9432012D
:1001700086E2E0E0F1E0DE01999601900D928A9529
:10018000E1F781E2E6E2F1E0DE01AF5ABF4F019014
:100190000D928A95E1F70F2EF0EAFF2EF02D00E583
:1001A000FBBA8FEF94E32CE0815090402040E1F7C0
:1001B00000C000000BBB3FEF84E39CE03150804067
:1001C0009040E1F700C000008DE00E9422018DE028
:1001D0000E94220188E40E94220189E60E942201F5
:1001E000CE0189960E943201CE018F5A9F4F0E9404
:1001F000320181E30E9422010E942A01182F89E026
:100200000E942201812F0E942201CACFCF93DF9347
:10021000CBE9D0E01882AAE9B0E01C92EDE9F0E069
:1002200010828881826088838C9188618C93808120
:100230008E60808387E68093990010929800DF910A
:10024000CF910895EBE9F0E0908195FFFDCF809389
:100250009C000895EBE9F0E080818823ECF7809121
:100260009C000895CF93DF93FC012081222369F045
:10027000DC011196EBE9F0E0CCE9D0E0908195FF4C
:10028000FDCF28832D912111F9CFDF91CF910895D2
:04029000F894FFCF10
:100294000954686973206973204855535341494E82
:1002A4002773204F42432D4D617374657220636F31
:1002B40064652E2E2E000D55207220636F6D6D75B2
:1002C4006E69636174696E67207468726F756768BC
:1002D40020554152545F00092E2E546869732069D9
:1002E40073204949544227732053747564656E74AE
:1002F40020536174656C6C6974652E2E2E0D00009C
:00000001FF
