:100000000C9446000C9465000C9465000C946500FB
:100010000C9465000C9465000C9465000C946500CC
:100020000C9465000C9465000C9465000C946500BC
:100030000C9465000C9465000C9465000C946500AC
:100040000C9465000C9465000C9478000C94650089
:100050000C9465000C9465000C9465000C9465008C
:100060000C9465000C9465000C9465000C9465007C
:100070000C9465000C9465000C9465000C9465006C
:100080000C9465000C9465000C94650011241FBE4F
:10009000CFEFD0E1DEBFCDBF11E0A0E0B1E0E2E8FC
:1000A000FBE000E00BBF02C007900D92AE36B10737
:1000B000D9F721E0AEE6B1E001C01D92AF3FB20733
:1000C000E1F70E942D020C94BF050C9400001BB8B0
:1000D0001AB8E5E9F0E01082599A8AB188698AB9BC
:1000E00080818E60808387E689B9109290000895A0
:1000F0001F920F920FB60F9211240BB60F92AF9270
:10010000BF92CF92DF92EF92FF920F931F932F93A4
:100110003F934F935F936F937F938F939F93AF938F
:10012000BF93EF93FF93CF93DF93CDB7DEB7C05A62
:10013000D109DEBFCDBF8CB180936F01809170017A
:1001400090917101A0917201B0917301BA2FA92F02
:10015000982F88278093700190937101A09372016A
:10016000B09373018091700190917101A09172011F
:10017000B091730188278093700190937101A093CF
:100180007201B093730120916F0180917001909181
:100190007101A0917201B0917301822B8093700163
:1001A00090937101A0937201B0937301809100014B
:1001B0008C3008F075C080910001843018F5E1EAB8
:1001C000F1E080819181A281B381BA2FA92F982F6C
:1001D000882780839183A283B38380819181A281C8
:1001E000B381882780839183A283B38380819181A7
:1001F000A281B38120916F01822B80839183A2839E
:10020000B38349C080910001883018F5E5EAF1E038
:1002100080819181A281B381BA2FA92F982F88273D
:1002200080839183A283B38380819181A281B381F2
:10023000882780839183A283B38380819181A28167
:10024000B38120916F01822B80839183A283B3833A
:1002500022C0E9EAF1E080819181A281B381BA2FC5
:10026000A92F982F882780839183A283B3838081CD
:100270009181A281B381882780839183A283B383F4
:1002800080819181A281B38120916F01822B808333
:100290009183A283B383809100018F5F80930001DB
:1002A000809100018C3009F080C08FEF80930001B5
:1002B0000F2EF1EAAF2EF1E0BF2EF02DF501808177
:1002C0009181A281B381BF93AF939F938F9301E0FC
:1002D00011E01F930F937E01F1E5EF0EF11CFF92E9
:1002E000EF920E94EF02C7010E94E3028DE090E0CE
:1002F0000E94DF020F2EF5EACF2EF1E0DF2EF02D67
:10030000F60180819181A281B381BF93AF939F93C6
:100310008F931F930F937E01F9E2EF0EF11CFF9272
:10032000EF920E94EF02C7010E94E3028DE090E08D
:100330000E94DF020F2EF9EAEF2EF1E0FF2EF02DE2
:10034000F70180819181A281B381BF93AF939F9385
:100350008F931F930F938E0107581F4F1F930F9377
:100360000E94EF02C8010E94E3028DE090E00E942B
:10037000DF02F5011082118212821382F6011082CF
:10038000118212821382F70110821182128213826B
:10039000109270011092710110927201109273010B
:1003A0000FB6F894DEBF0FBECDBF80917001909163
:1003B0007101A0917201B09173018C3A9440AF43E6
:1003C000BF4339F58091700190917101A091720144
:1003D000B0917301BF93AF939F938F9381E091E0AE
:1003E0009F938F938E010F5F1F4F1F930F930E9458
:1003F000EF02C8010E94E3028DE090E00E94DF025C
:1004000010926E01109200010FB6F894DEBF0FBE7D
:10041000CDBFC056DF4F0FB6F894DEBF0FBECDBFC5
:10042000DF91CF91FF91EF91BF91AF919F918F910C
:100430007F916F915F914F913F912F911F910F91FC
:10044000FF90EF90DF90CF90BF90AF900F900BBEDA
:100450000F900FBE0F901F901895CF93DF93CDB7DD
:10046000DEB7C857D1090FB6F894DEBF0FBECDBFB7
:1004700080EF8ABB8BBB2FEF89E698E1215080404B
:100480009040E1F700C000001BBA2FEF89E698E129
:10049000215080409040E1F700C0000080EF8BBB0E
:1004A0002FEF89E698E1215080409040E1F700C0AD
:1004B00000001BBA2FEF89E698E121508040904060
:1004C000E1F700C000000E94CE028DE00E94DF0232
:1004D0008DE00E94DF0288E40E94DF0285E60E9430
:1004E000DF028CE60E94DF028CE60E94DF028FE6CC
:1004F0000E94DF0288E2E6E4F1E0DE01119601905D
:100500000D928A95E1F7CE0101960E94E30286E200
:10051000E7E0F1E0DE01999601900D928A95E1F70E
:1005200089E1EDE2F1E0DE01AF5ABF4F01900D929B
:100530008A95E1F70E946700789400EA10E50BBB0A
:100540002FEF84E39CE0215080409040E1F700C011
:1005500000001BBB2FEF84E39CE0215080409040C3
:10056000E1F700C000000BBB2FEF84E39CE02150BB
:1005700080409040E1F700C000001BBB2FEF84E3F8
:100580009CE0215080409040E1F700C000000E94B4
:10059000CC025799FECFD3CF579A08951BB81AB8FB
:1005A000E5E9F0E01082599A8AB188618AB98081C0
:1005B0008E60808387E689B91092900008955D9BD4
:1005C000FECF8CB90895FC012081222339F03196A9
:1005D0005D9BFECF2CB921912111FACF08950F9385
:1005E0001F93CF93DF93CDB7DEB72E970FB6F89456
:1005F000DEBF0FBECDBF0D891E8986E08C831A83B6
:1006000009838FEF9FE79E838D83AE01475E5F4F27
:100610006F89788DCE0101960E941E03EF81F885C7
:10062000E00FF11F10822E960FB6F894DEBF0FBEBA
:10063000CDBFDF91CF911F910F9108952F923F92DF
:100640004F925F926F927F928F929F92AF92BF92E2
:10065000CF92DF92EF92FF920F931F93CF93DF938E
:10066000CDB7DEB72C970FB6F894DEBF0FBECDBF67
:100670007C016B018A01FC0117821682838181FF54
:10068000BDC1CE0101964C01F7019381F60193FDA6
:10069000859193FF81916F01882309F4ABC1853265
:1006A00039F493FD859193FF81916F01853229F48F
:1006B000B70190E00E942F05E7CF512C312C20E0AC
:1006C0002032A0F48B3269F030F4803259F083325A
:1006D00069F420612CC08D3239F0803339F4216007
:1006E00026C02260246023C0286021C027FD27C0C7
:1006F00030ED380F3A3078F426FF06C0FAE05F9EFE
:10070000300D1124532E13C08AE0389E300D112471
:10071000332E20620CC08E3221F426FD6BC1206482
:1007200006C08C3611F4206802C0883641F4F60108
:1007300093FD859193FF81916F018111C1CF982F16
:100740009F7D9554933028F40C5F1F4FFFE3F9838E
:100750000DC0833631F0833771F0833509F05BC00B
:1007600022C0F801808189830E5F1F4F4424439487
:10077000512C540115C03801F2E06F0E711CF801C4
:10078000A080B18026FF03C0652D70E002C06FEF2E
:100790007FEFC5012C870E9424052C0183012C8545
:1007A0002F77222E17C03801F2E06F0E711CF8016E
:1007B000A080B18026FF03C0652D70E002C06FEFFE
:1007C0007FEFC5012C870E9419052C012C8520681C
:1007D000222E830123FC1BC0832D90E0481659066E
:1007E000B0F4B70180E290E00E942F053A94F4CF74
:1007F000F50127FC859127FE81915F01B70190E00B
:100800000E942F0531103A94F1E04F1A510841141B
:10081000510471F7E5C0843611F0893639F5F801D5
:1008200027FF07C060817181828193810C5F1F4F18
:1008300008C060817181882777FD8095982F0E5FB1
:100840001F4F2F76B22E97FF09C090958095709517
:1008500061957F4F8F4F9F4F2068B22E2AE030E086
:10086000A4010E946105A82EA81844C0853729F468
:100870002F7EB22E2AE030E025C0F22FF97FBF2E66
:100880008F36C1F018F4883579F0B4C0803719F08C
:10089000883721F0AFC02F2F2061B22EB4FE0DC0DB
:1008A0008B2D8460B82E09C024FF0AC09F2F96604C
:1008B000B92E06C028E030E005C020E130E002C0DB
:1008C00020E132E0F801B7FE07C0608171818281CA
:1008D00093810C5F1F4F06C06081718180E090E0C2
:1008E0000E5F1F4FA4010E946105A82EA818FB2DC2
:1008F000FF77BF2EB6FE0BC02B2D2E7FA51450F414
:10090000B4FE0AC0B2FC08C02B2D2E7E05C07A2C86
:100910002B2D03C07A2C01C0752C24FF0DC0FE01C5
:10092000EA0DF11D8081803311F4297E09C022FF78
:1009300006C07394739404C0822F867809F0739470
:1009400023FD13C020FF06C05A2C731418F4530C57
:100950005718732C731468F4B70180E290E02C8769
:100960000E942F0573942C85F5CF731410F437185B
:1009700001C0312C24FF12C0B70180E390E02C8726
:100980000E942F052C8522FF17C021FF03C088E598
:1009900090E002C088E790E0B7010CC0822F867813
:1009A00059F021FD02C080E201C08BE227FD8DE2FB
:1009B000B70190E00E942F05A51438F4B70180E339
:1009C00090E00E942F055A94F7CFAA94F401EA0D03
:1009D000F11D8081B70190E00E942F05A110F5CF95
:1009E000332009F451CEB70180E290E00E942F0538
:1009F0003A94F6CFF7018681978102C08FEF9FEF7F
:100A00002C960FB6F894DEBF0FBECDBFDF91CF910D
:100A10001F910F91FF90EF90DF90CF90BF90AF901C
:100A20009F908F907F906F905F904F903F902F900E
:100A30000895FC010590615070400110D8F7809531
:100A400090958E0F9F1F0895FC016150704001909A
:100A50000110D8F7809590958E0F9F1F08950F93E2
:100A60001F93CF93DF93182F092FEB018B8181FD0B
:100A700003C08FEF9FEF20C082FF10C04E815F81C7
:100A80002C813D81421753077CF4E881F9819F0155
:100A90002F5F3F4F39832883108306C0E885F9858F
:100AA000812F0995892B29F72E813F812F5F3F4F99
:100AB0003F832E83812F902FDF91CF911F910F9134
:100AC0000895FA01AA27283051F1203181F1E894E4
:100AD0006F936E7F6E5F7F4F8F4F9F4FAF4FB1E031
:100AE0003ED0B4E03CD0670F781F891F9A1FA11D2C
:100AF000680F791F8A1F911DA11D6A0F711D811D2D
:100B0000911DA11D20D009F468943F912AE0269FF1
:100B100011243019305D3193DEF6CF010895462F50
:100B20004770405D4193B3E00FD0C9F7F6CF462F31
:100B30004F70405D4A3318F0495D31FD405241939A
:100B400002D0A9F7EACFB4E0A69597958795779557
:100B50006795BA95C9F700976105710508959B01DE
:100B6000AC010A2E06945795479537952795BA9567
:100B7000C9F7620F731F841F951FA01D0895F89475
:020B8000FFCFA5
:100B8200FF2578202578000954686973206973204D
:100B92004855535341494E2773204F42432D4D61CF
:100BA2007374657220636F64652E2E2E000D43757B
:100BB2007272656E7420475053207374617465209D
:100BC2006973203D0900092E2E54686973206973E8
:100BD200204949544227732053747564656E74200A
:0E0BE200536174656C6C6974652E2E2E0D00C7
:00000001FF
