S019000068536C6176655F656570726F6D746573742E7372656301
S11300000C9446000C9465000C9465000C946500F7
S11300100C9465000C9465000C9465000C946500C8
S11300200C9465000C9465000C9465000C946500B8
S11300300C9465000C9465000C9465000C946500A8
S11300400C9465000C9465000C9465000C94650098
S11300500C9465000C9465000C9465000C94650088
S11300600C9465000C9465000C9465000C94650078
S11300700C9465000C9465000C9465000C94650068
S11300800C9465000C9465000C94650011241FBE4B
S1130090CFEFD0E1DEBFCDBF11E0A0E0B1E0E8EFEB
S11300A0FEE000E00BBF02C007900D92AE37B1072F
S11300B0D9F722E0AEE7B1E001C01D92A331B20747
S11300C0E1F70E947F030C947A070C9400001092CD
S11300D0710080E2809370000895AF92BF92CF9236
S11300E0DF92EF92FF920F931F93CF93DF936115EB
S11300F0710511E08107910538F00197E091000145
S1130100E860E093000105C0E0910001E77FE0931F
S11301100001F0900001B72E0F2EF8ECCF2EF02D39
S1130120E4E7F0E00F2EF4EADF2EF02DA1E7B0E0D3
S11301300D2DC3E7D0E01F2D1160A12E03C0CA947A
S113014009F4BAC00F2EF4E8EF2EF02D00831081CD
S11301501123ECF71C91187F10939001103129F0B2
S11301601833A1F3183009F0AAC0F882E082108194
S11301701123ECF71C91187F109390011032F9F2BF
S1130180183321F3183109F07DC0B882E082108160
S11301901123ECF71C91187F109390011033B1F2E6
S11301A01833A1F2183209F070C06883E08210811C
S11301B01123ECF71C91187F10939001103331F048
S11301C0183321F2183209F063C003C020E030E094
S11301D06DC0D08210811123ECF71C91187F10930D
S11301E09001103131F0183309F4B0CF183009F010
S11301F052C0A882E08210811123ECF71C91187F71
S113020010939001103449F0183421F0183309F098
S113021045C09CCF20E030E049C0141615060CF010
S113022040C0822F932F20E030E004EC0F2EF4E83E
S1130230FF2EF02DA4E7B0E061E770E00F2EF3E7A6
S1130240CF2ED12CF02DFC014130510509F40F2D96
S11302500C931C911123ECF7EB011881187F109378
S11302609001103519F0183569F11EC0E6011881A6
S1130270108301962F5F3F4F41505109411551059D
S113028011F714C02FEF3FEF11C02FEF3FEF0EC057
S11302902FEF3FEF0BC02FEF3FEF08C02FEF3FEFE3
S11302A005C020E030E002C02FEF3FEF84E98093E7
S11302B07400822F932F0CC08FEF9FEF09C08FEF34
S11302C09FEF06C08091730080832F5F3F4FEECF76
S11302D0DF91CF911F910F91FF90EF90DF90CF901E
S11302E0BF90AF900895CF92DF92EF92FF920F9359
S11302F01F93CF93DF93EA0189016115710521E012
S11303008207910520F56A01EE24D7FCE094FE2CC7
S1130310C60ED71EE81EF91E21E0C216D104E2065D
S1130320F104A8F0EE24FF24E61AF70A9801A701C5
S11303300E946D0098012E0D3F1DAE014E195F09FC
S113034060E070E081E090E00E946D0004C09801DC
S1130350AE010E946D00DF91CF911F910F91FF902C
S1130360EF90DF90CF900895AF92BF92CF92DF923B
S1130370EF92FF920F931F93CF93DF93B22EA32E8E
S11303806115710521E08207910538F001972091EC
S1130390000128602093000105C020910001277FFF
S11303A0209300016A01EE24D7FCE094FE2CC60ED3
S11303B0D71EE81EF91E8B019C010F67C016D106DB
S11303C0E206F30618F4460F571F04C0AB014F674B
S11303D04F5F5F4F00910001E72E0F2EF8ECFF2EC8
S11303E0F02DE4E7F0E0A1E7B0E034EAC3E7D0E0C1
S11303F014E803C0FA9409F47DC0308320812223D9
S1130400ECF72C91287F20939001203129F0283398
S1130410A1F3283009F071C00883108320812223BE
S1130420ECF72C91287F20939001203219F3283384
S113043021F3283109F04AC0E88210832081222365
S1130440ECF72C91287F20939001203329F0283356
S1130450A1F22832F1F503C020E030E045C0688302
S1130460108320812223ECF72C91287F2093900184
S1130470203329F0283309F2283271F503C020E033
S113048030E032C0461B570B1416150644F5AB2D4D
S1130490BA2D20E030E083E790E0E4E7F0E074E890
S11304A001E710E06D91EC0168837083608166233D
S11304B0ECF7E8016881687F60939001683291F4F9
S11304C02F5F3F4F4217530769F70EC02FEF3FEFDF
S11304D00BC02FEF3FEF08C02FEF3FEF05C020E028
S11304E030E002C02FEF3FEF84E980937400822F45
S11304F0932F05C08FEF9FEF02C08FEF9FEFDF9127
S1130500CF911F910F91FF90EF90DF90CF90BF900C
S1130510AF900895AF92BF92CF92DF92EF92FF9285
S11305200F931F93CF93DF936B017C01EA01890141
S1130530A12CB12C9801AE01C701B6010E94B401EF
S11305408F3F2FEF920799F0AC01662757FD609516
S1130550762FC40ED51EE61EF71EC81BD90B080F36
S1130560191FA80EB91E1C161D0624F303C08FEF15
S11305709FEF02C08A2D9B2DDF91CF911F910F9188
S1130580FF90EF90DF90CF90BF90AF900895CF92FF
S1130590DF92EF92FF92C0907F01D0908001E090B3
S11305A08101F09082014091830150918401609116
S11305B0850170918601C416D506E606F70691F406
S11305C020917E01222371F0B701A6014A5E5F4F9C
S11305D06F4F7F4F40938301509384016093850153
S11305E0709386019C0146E150E0C701B6010E9468
S11305F08A02D701C6014696A11DB11D80937F01D1
S113060090938001A0938101B09382018C3E9F4F0F
S1130610A105B10569F480E090E0A1E0B0E0809329
S11306207F0190938001A0938101B093820114C053
S11306308CE2C80ED11CE11CF11C21E0C216D104CD
S113064022E0E206F10440F010927F011092800152
S1130650109281011092820181E080937E01FF90CB
S1130660EF90DF90CF900895CF92DF92EF92FF92B8
S1130670C0908301D0908401E0908501F0908601C0
S11306809C0146E150E0C701B6010E947301D70105
S1130690C6014696A11DB11D8093830190938401E8
S11306A0A0938501B09386018C3E9F4FA105B105AF
S11306B069F480E090E0A1E0B0E08093830190933E
S11306C08401A0938501B093860114C08CE2C80E06
S11306D0D11CE11CF11C21E0C216D10422E0E20687
S11306E0F10440F01092830110928401109285016C
S11306F010928601FF90EF90DF90CF900895CF93F2
S1130700DF93CDB7DEB7CC5DD1400FB6F894DEBF32
S11307100FBECDBF8FE08ABB8BBB2FEF89E698E17C
S1130720215080409040E1F700C000001BBA2FEF39
S113073089E698E1215080409040E1F700C0000034
S11307408FE08BBB2FEF89E698E1215080409040E9
S1130750E1F700C000001BBA2FEF89E698E12150B1
S113076080409040E1F700C000000E947B048DE0CF
S11307700E948C048DE00E948C0488E40E948C0406
S113078085E60E948C048CE60E948C048CE60E9410
S11307908C048FE60E948C0488E2E6E5F1E0DE0139
S11307A0119601900D928A95E1F7CE0101960E946F
S11307B09E0485E2E1E0F1E0DE01999601900D925C
S11307C08A95E1F78AE1E6E2F1E0DE01AF5ABF4F34
S11307D001900D928A95E1F70E946700912C0F2EEB
S11307E0FAE03F2EF02D0F2EF5E08F2EF02D0F2E78
S11307F0F6ED4F2E55245A94612C712CF02D0F2EAA
S1130800F0E4AF2EF1E0BF2EF02D8E0107581F4FFC
S1130810C12CD12C7601E3943BBA2FEF84E39CE006
S1130820215080409040E1F700C000008BBA2FEFC8
S113083084E39CE0215080409040E1F700C0000038
S11308408DE00E948C048DE00E948C0488E40E9458
S11308508C0489E60E948C04CE0189960E949E0431
S1130860CE018F5A9F4F0E949E043BBA2FEF84E320
S11308709CE0215080409040E1F700C000008BBA1A
S11308802FEF84E39CE0215080409040E1F700C0CA
S11308900000409287015092880160928901709211
S11308A08A011F929F92BF92AF921F930F930E944F
S11308B0AA049394C8010E94C702C8010E94C702F7
S11308C0C0928B01D0928C01E0928D01F0928E0146
S11308D0CE0183529F4F0E94340366E170E0CE0143
S11308E083529F4F0E9490040F900F900F900F908F
S11308F00F900F9091CF1BB81AB8E5E9F0E0108281
S1130900599A8AB188618AB980818E60808387E62A
S113091089B91092900008955D9BFECF8CB908951B
S11309206115710551F0FC01860F971F5D9BFECF89
S113093021912CB9E817F907C9F70895FC01208122
S1130940222339F031965D9BFECF2CB921912111E0
S1130950FACF08950F931F93CF93DF93CDB7DEB7EC
S11309602E970FB6F894DEBF0FBECDBF0D891E893A
S113097086E08C831A8309838FEF9FE79E838D83A0
S1130980AE01475E5F4F6F89788DCE0101960E945C
S1130990D904EF81F885E00FF11F10822E960FB66F
S11309A0F894DEBF0FBECDBFDF91CF911F910F91A1
S11309B008952F923F924F925F926F927F928F92FF
S11309C09F92AF92BF92CF92DF92EF92FF920F93DA
S11309D01F93CF93DF93CDB7DEB72C970FB6F89460
S11309E0DEBF0FBECDBF7C016B018A01FC01178203
S11309F01682838181FFBDC1CE0101964C01F701AE
S1130A009381F60193FD859193FF81916F01882372
S1130A1009F4ABC1853239F493FD859193FF81913B
S1130A206F01853229F4B70190E00E94EA06E7CF0E
S1130A30512C312C20E02032A0F48B3269F030F4B8
S1130A40803259F0833269F420612CC08D3239F040
S1130A50803339F4216026C02260246023C02860DA
S1130A6021C027FD27C030ED380F3A3078F426FF37
S1130A7006C0FAE05F9E300D1124532E13C08AE0A5
S1130A80389E300D1124332E20620CC08E3221F496
S1130A9026FD6BC1206406C08C3611F4206802C0A8
S1130AA0883641F4F60193FD859193FF81916F019E
S1130AB08111C1CF982F9F7D9554933028F40C5FFA
S1130AC01F4FFFE3F9830DC0833631F0833771F094
S1130AD0833509F05BC022C0F801808189830E5FF1
S1130AE01F4F44244394512C540115C03801F2E0A3
S1130AF06F0E711CF801A080B18026FF03C0652D24
S1130B0070E002C06FEF7FEFC5012C870E94DF0603
S1130B102C0183012C852F77222E17C03801F2E097
S1130B206F0E711CF801A080B18026FF03C0652DF3
S1130B3070E002C06FEF7FEFC5012C870E94D406DE
S1130B402C012C852068222E830123FC1BC0832DBD
S1130B5090E048165906B0F4B70180E290E00E9494
S1130B60EA063A94F4CFF50127FC859127FE81919A
S1130B705F01B70190E00E94EA0631103A94F1E077
S1130B804F1A51084114510471F7E5C0843611F02D
S1130B90893639F5F80127FF07C0608171818281A8
S1130BA093810C5F1F4F08C060817181882777FD96
S1130BB08095982F0E5F1F4F2F76B22E97FF09C096
S1130BC090958095709561957F4F8F4F9F4F2068CA
S1130BD0B22E2AE030E0A4010E941C07A82EA81817
S1130BE044C0853729F42F7EB22E2AE030E025C098
S1130BF0F22FF97FBF2E8F36C1F018F4883579F0C3
S1130C00B4C0803719F0883721F0AFC02F2F20618E
S1130C10B22EB4FE0DC08B2D8460B82E09C024FF03
S1130C200AC09F2F9660B92E06C028E030E005C0A8
S1130C3020E130E002C020E132E0F801B7FE07C055
S1130C4060817181828193810C5F1F4F06C0608136
S1130C50718180E090E00E5F1F4FA4010E941C0789
S1130C60A82EA818FB2DFF77BF2EB6FE0BC02B2D88
S1130C702E7FA51450F4B4FE0AC0B2FC08C02B2D7C
S1130C802E7E05C07A2C2B2D03C07A2C01C0752C26
S1130C9024FF0DC0FE01EA0DF11D8081803311F4A3
S1130CA0297E09C022FF06C07394739404C0822F66
S1130CB0867809F0739423FD13C020FF06C05A2CD4
S1130CC0731418F4530C5718732C731468F4B70185
S1130CD080E290E02C870E94EA0673942C85F5CF7D
S1130CE0731410F4371801C0312C24FF12C0B7015B
S1130CF080E390E02C870E94EA062C8522FF17C02F
S1130D0021FF03C088E590E002C088E790E0B701C6
S1130D100CC0822F867859F021FD02C080E201C008
S1130D208BE227FD8DE2B70190E00E94EA06A5144C
S1130D3038F4B70180E390E00E94EA065A94F7CFB2
S1130D40AA94F401EA0DF11D8081B70190E00E949C
S1130D50EA06A110F5CF332009F451CEB70180E2A1
S1130D6090E00E94EA063A94F6CFF70186819781D3
S1130D7002C08FEF9FEF2C960FB6F894DEBF0FBE24
S1130D80CDBFDF91CF911F910F91FF90EF90DF9036
S1130D90CF90BF90AF909F908F907F906F905F9017
S1130DA04F903F902F900895FC0105906150704042
S1130DB00110D8F7809590958E0F9F1F0895FC0120
S1130DC06150704001900110D8F7809590958E0F76
S1130DD09F1F08950F931F93CF93DF93182F092F0D
S1130DE0EB018B8181FD03C08FEF9FEF20C082FF59
S1130DF010C04E815F812C813D81421753077CF4E2
S1130E00E881F9819F012F5F3F4F39832883108345
S1130E1006C0E885F985812F0995892B29F72E814C
S1130E203F812F5F3F4F3F832E83812F902FDF9190
S1130E30CF911F910F910895FA01AA27283051F1FB
S1130E40203181F1E8946F936E7F6E5F7F4F8F4FF7
S1130E509F4FAF4FB1E03ED0B4E03CD0670F781F56
S1130E60891F9A1FA11D680F791F8A1F911DA11D3B
S1130E706A0F711D811D911DA11D20D009F4689474
S1130E803F912AE0269F11243019305D3193DEF61C
S1130E90CF010895462F4770405D4193B3E00FD0D2
S1130EA0C9F7F6CF462F4F70405D4A3318F0495DBD
S1130EB031FD4052419302D0A9F7EACFB4E0A695A0
S1130EC09795879577956795BA95C9F700976105C2
S1130ED0710508959B01AC010A2E06945795479518
S1130EE037952795BA95C9F7620F731F841F951F0D
S10B0EF0A01D0895F894FFCF42
S1130EF8A6095468697320697320485553534149B6
S1130F084E2773204F42432D536C61766520636FDF
S1130F1864652E2E2E000D4461746120726561642F
S1130F282066726F6D20454550524F4D203A090096
S1130F3844617461207772697474656E2025642035
S1130F4874696D657300092E2E546869732069737A
S1130F58204949544227732053747564656E74207C
S1110F68536174656C6C6974652E2E2E0D0039
S9030000FC
