S01C000068536C6176655F4D6173746572535049746573742E737265632E
S11300000C9446000C9465000C9465000C946500F7
S11300100C9465000C9465000C9465000C946500C8
S11300200C9465000C9465000C9465000C946500B8
S11300300C9465000C9465000C9465000C946500A8
S11300400C9465000C9487010C9465000C94650075
S11300500C9465000C9465000C9465000C94650088
S11300600C9465000C9465000C9465000C94650078
S11300700C9465000C9465000C9465000C94650068
S11300800C9465000C9465000C94650011241FBE4B
S1130090CFEFD0E1DEBFCDBF11E0A0E0B1E0E6E3F9
S11300A0F4E000E00BBF02C007900D92AC36B1073C
S11300B0D9F722E0ACE6B1E001C01D92A137B20746
S11300C0E1F70E9496000C9419020C94000098E049
S11300D0262F217076956795382F3170321721F0CD
S11300E028E0622724E872278695915089F7CB018E
S11300F008950F931F93CF93DF93062F662369F020
S1130100C82FD92F10E08FEF9FEFBC0189910E9477
S113011067001F5F1013F9CF02C08FEF9FEF809528
S11301209095DF91CF911F910F910895CF93DF9315
S1130130CDB7DEB7C857D1090FB6F894DEBF0FBEEE
S1130140CDBF8FE08ABB8BBB2FEF89E698E12150AE
S113015080409040E1F700C000001BBAEFEFF9E6E1
S113016028E1E150F0402040E1F700C000008FE0BA
S11301708BBB8FEF99E6E8E181509040E040E1F7D6
S113018000C000001BBAFFEF29E688E1F1502040CF
S11301908040E1F700C000000E94EA018DE00E9467
S11301A0FB018DE00E94FB0188E40E94FB0185E6CF
S11301B00E94FB018CE60E94FB018CE60E94FB017D
S11301C08FE60E94FB0188E2E3E4F1E0DE01119690
S11301D001900D928A95E1F7CE0101960E940D02DD
S11301E085E2E0E0F1E0DE01999601900D928A95B6
S11301F0E1F78EE1E5E2F1E0DE01AF5ABF4F019095
S11302000D928A95E1F70E94DD0178940F2EFAE0B1
S1130210EF2EF02D0F2EF5E0FF2EF02DCE2CDF2C3F
S113022001E711E0CBBA9FEFE4E3FCE09150E0403A
S1130230F040E1F700C00000DBBA2FEF84E39CE05C
S1130240215080409040E1F700C000008DE00E9402
S1130250FB018DE00E94FB0188E40E94FB0189E61A
S11302600E94FB01CE0189960E940D02CE018F5A95
S11302709F4F0E940D02EBBAEFEFF4E32CE0E15044
S1130280F0402040E1F700C00000FBBA8FEF94E398
S1130290ECE081509040E040E1F700C00000809124
S11302A06C01882309F4BECF60916D0180916F01C8
S11302B06250681B80E791E00E947900E0916D0133
S11302C020916F01F0E03297E21BF109E059FE4FF3
S11302D0208131818217930789F4809170018A35D6
S11302E041F4F801608170E082E791E00E94FF012F
S11302F005C0833319F482E90E94E50110926F016D
S113030010926E0110926D0110926C018BCF1F92AE
S11303100F920FB60F9211240BB60F928F93EF9397
S1130320FF938FB18093700280916C0181112BC077
S113033080916E01823038F1E0916D01F0E080919E
S11303407002E059FE4F8083E0916D01F0E0E059C6
S1130350FE4F80818A3A31F480916F018F5F8093E0
S11303606F0105C080916F01811110926F0180911E
S11303706F01823019F481E080936C0180916D01EA
S11303808F5F80936D0180917002873E31F480917C
S11303906E018F5F80936E0106C080916E01823082
S11303A010F410926E01FF91EF918F910F900BBE9C
S11303B00F900FBE0F901F90189587B3807F87BB57
S11303C088E087BB80EC8DB908958FB9779BFECF09
S11303D08FB108951BB81AB8E5E9F0E01082599A74
S11303E08AB188618AB980818E60808387E689B901
S11303F01092900008955D9BFECF8CB9089561150D
S1130400710551F0FC01860F971F5D9BFECF219172
S11304102CB9E817F907C9F70895FC0120812223B4
S113042039F031965D9BFECF2CB921912111FACF81
S10904300895F894FFCFCB
S11304360954686973206973204855535341494EDA
S11304462773204F42432D536C61766520636F6496
S1130456652E2E2E000D44617461207265636569F4
S11304667665642066726F6D204D617374657220C3
S11304763A0900092E2E5468697320697320494984
S1130486544227732053747564656E7420536174E3
S10F0496656C6C6974652E2E2E0D000040
S9030000FC
