S019000068536C6176655F656570726F6D746573742E7372656301
S11300000C9446000C9465000C9465000C946500F7
S11300100C9465000C9465000C9465000C946500C8
S11300200C9465000C9465000C9465000C946500B8
S11300300C9465000C9465000C9465000C946500A8
S11300400C9465000C9465000C9465000C94650098
S11300500C9465000C9465000C9465000C94650088
S11300600C9465000C9465000C9465000C94650078
S11300700C9465000C9465000C9465000C94650068
S11300800C9465000C9465000C94650011241FBE4B
S1130090CFEFD0E1DEBFCDBF11E0A0E0B1E0E4E7F7
S11300A0FEE000E00BBF02C007900D92AE37B1072F
S11300B0D9F722E0AEE7B1E001C01D92A331B20747
S11300C0E1F70E9429030C9438070C940000109265
S11300D0710080E28093700008951F93CF93DF93A3
S11300E0E091000161157105F1E08F07910518F0A9
S11300F00197E86001C0E77FE0930001B09100013F
S1130100D72FA9ECC4EAF4E81B2F1160A15009F41D
S1130110A2C0C0937400E0917400E7FFFCCFE091AB
S11301207100E87FE0939001E03129F0E83389F32E
S1130130E83009F090C0B0937300F0937400E0913C
S11301407400E7FFFCCFE0917100E87FE093900139
S1130150E032E1F2E833E9F2E83109F076C0D09315
S11301607300F0937400E0917400E7FFFCCFE0911A
S11301707100E87FE0939001E03359F2E83349F2EB
S1130180E83209F062C060937300F0937400E09168
S11301907400E7FFFCCFE0917100E87FE0939001E9
S11301A0E03361F1E83309F4B4CFE83209F04DC02B
S11301B0C0937400E0917400E7FFFCCFE0917100FC
S11301C0E87FE0939001E03129F0E83309F4A1CF0E
S11301D0E830D9F510937300F0937400E091740043
S11301E0E7FFFCCFE0917100E87FE0939001E034F9
S11301F019F1E83419F0E83341F58BCF60E070E091
S113020026C04130510509F494E89093740080911C
S1130210740087FFFCCF80917100887F80939001E8
S1130220803521F0883589F440E050E080917300F6
S113023081934150510902C0F90194ECBF01621B42
S1130240730B14161506ECF202C06FEF7FEF84E90E
S11302508093740002C06FEF7FEFCB01DF91CF91E9
S11302601F910895CF92DF92EF92FF920F931F9305
S1130270CF93DF93EA0189016115710521E08207BB
S1130280910510F56A01EE24D7FCE094FE2CC60E0D
S1130290D71EE81EF91E21E0C216D104E206F104BD
S11302A098F0EE24FF24E61AF70A9801A7010E94A9
S11302B06D0098012E0D3F1DAE014E195F0960E0DF
S11302C070E081E090E002C09801AE01DF91CF912F
S11302D01F910F91FF90EF90DF90CF900C946D00E1
S11302E0CF92DF92EF92FF920F931F93F901209127
S11302F000016115710531E08307910518F001973C
S1130300286001C0277F209300012FE7C22ED12C43
S1130310E12CF12CC62AD72AE82AF92A8A012227B5
S113032017FD2095322F060F171F281F391F0C1594
S11303301D052E053F0520F46A01C60ED71E03C015
S11303402FEFC21AD20A50910001A72F39ECB4EA58
S113035044E8315009F476C0B093740020917400DD
S113036027FFFCCF20917100287F2093900120313A
S113037029F0283389F3283009F064C050937300BE
S1130380409374002091740027FFFCCF20917100EA
S1130390287F209390012032E1F22833E9F22831BA
S11303A009F04AC0A0937300409374002091740034
S11303B027FFFCCF20917100287F209390012033E8
S11303C0C9F0283349F22832B9F560937300409399
S11303D074002091740027FFFCCF20917100287FC6
S11303E020939001203331F0283309F4B5CF28321B
S11303F019F503C020E030E021C0C61AD70A20E076
S113040030E044E812C081918093730040937400FB
S11304108091740087FFFCCF80917100887F809366
S11304209001883249F42F5F3F4FC601821B930B22
S11304301816190644F302C02FEF3FEF84E98093A6
S1130440740002C02FEF3FEFC9011F910F91FF907D
S1130450EF90DF90CF900895AF92BF92CF92DF924A
S1130460EF92FF920F931F93CF93DF936B017C0165
S11304708A015901C0E0D0E09501A801C701B60185
S11304800E9470018F3F2FEF920799F0AC0166270D
S113049057FD6095762FC40ED51EE61EF71E081B69
S11304A0190BA80EB91EC80FD91F1016110624F374
S11304B002C0CFEFDFEFCE01DF91CF911F910F91FB
S11304C0FF90EF90DF90CF90BF90AF900895CF92C0
S11304D0DF92EF92FF92C0907E01D0907F01E09076
S11304E08001F090810140918201509183016091DB
S11304F0840170918501C416D506E606F70691F4C9
S113050020918601222371F0B701A6014A5E5F4F54
S11305106F4F7F4F40938201509383016093840116
S1130520709385019C0146E150E0C701B6010E9429
S11305302C0226E1C20ED11CE11CF11C8CEEC81663
S11305408FEFD806E104F10449F0C0927E01D09205
S11305507F01E0928001F09281010CC080E090E084
S1130560A1E0B0E080937E0190937F01A09380018D
S1130570B093810180917E0190917F01A0918001CF
S1130580B09181014696A11DB11D0197A240B1050C
S113059040F010927E0110927F011092800110921F
S11305A0810181E080938601FF90EF90DF90CF90EE
S11305B00895CF92DF92EF92FF92C0908201D09083
S11305C08301E0908401F09085019C0146E150E0B4
S11305D0C701B6010E94320126E1C20ED11CE11C02
S11305E0F11C8CEEC8168FEFD806E104F10449F033
S11305F0C0928201D0928301E0928401F09285013D
S11306000CC080E090E0A1E0B0E080938201909380
S11306108301A0938401B09385018091820190911C
S11306208301A0918401B09185014696A11DB11D5D
S11306300197A240B10540F010928201109283010B
S11306401092840110928501FF90EF90DF90CF907B
S11306500895CF93DF93CDB7DEB7CF5DD1400FB60A
S1130660F894DEBF0FBECDBF8FE08ABB8BBB2FEFEC
S113067039E698E1215030409040E1F700C0000095
S11306801BBA2FEF39E698E1215030409040E1F752
S113069000C000008BBB2FEF39E688E121503040C9
S11306A08040E1F700C000001BBA9FEF29E638E163
S11306B0915020403040E1F700C000000E94330414
S11306C08DE00E9444048DE00E94440488E40E946A
S11306D0440485E60E9444048CE60E9444048CE6AB
S11306E00E9444048FE60E94440461E071E0CE015C
S11306F08B549E4F0E945D04CE018B549E4F0E94EA
S113070054047E0183E7E81A8EEFF80A69E271E087
S1130710C7010E945D048E010B591E4F6EE471E007
S1130720C8010E945D040E946700912C8AE0382E63
S113073095E0892E2E2CC352DE4FF882CD5DD14038
S1130740C252DE4F0883CE5DD140C152DE4F1883C2
S1130750CF5DD14026ED422E55245A94612C712C44
S113076038E6A32E31E0B32E8E010F5F1E4FC12C4D
S1130770D12C7601E3943BBA9FEF24E33CE0915003
S113078020403040E1F700C000008BBA8FEF94E3C3
S11307902CE0815090402040E1F700C000008DE043
S11307A00E9444048DE00E94440488E40E944404AE
S11307B089E60E944404822DC352DE4F9881CD5DA8
S11307C0D1400E945404C252DE4F8881CE5DD14094
S11307D0C152DE4F9881CF5DD1400E9454043BBA90
S11307E03FEF84E39CE0315080409040E1F700C04B
S11307F000008BBA2FEF34E38CE02150304080406E
S1130800E1F700C000004092870150928801609295
S1130810890170928A011F929F92BF92AF921F9397
S11308200F930E9464049394C8010E946702C80154
S11308300E946702C0928B01D0928C01E0928D01DC
S1130840F0928E01CE0101960E94D90266E170E019
S1130850CE0101960E9448040F900F900F900F90C4
S11308600F900F9088CF1BB81AB8E5E9F0E010821A
S1130870599A8AB188618AB980818E60808387E6BB
S113088089B91092900008955D9BFECF8CB90895AC
S1130890FC01680F791F04C05D9BFECF81918CB968
S11308A0E617F707C9F70895FC0103C05D9BFECF67
S11308B08CB981918111FACF0895FB01DC0101907B
S11308C00D920020E1F708950F931F93CF93DF93C8
S11308D0CDB7DEB72E970FB6F894DEBF0FBECDBFEF
S11308E00D891E8986E08C831A8309838FEF9FE725
S11308F09E838D83CE014996AC016F89788DCE019C
S113090001960E949304EF81F885E00FF11F108295
S11309102E960FB6F894DEBF0FBECDBFDF91CF91F8
S11309201F910F9108952F923F924F925F926F9271
S11309307F928F929F92AF92BF92CF92DF92EF926B
S1130940FF920F931F93CF93DF93CDB7DEB72C970E
S11309500FB6F894DEBF0FBECDBF7C016B018A01D8
S1130960FC0117821682838181FFC6C18824839487
S1130970912C8C0E9D1EF7019381F60193FD8591B8
S113098093FF81916F01882309F4B2C1853239F450
S113099093FD859193FF81916F01853229F4B7010D
S11309A090E00E94AE06E7CF512C312C20E020329B
S11309B0A8F48B3261F028F4803251F0833271F460
S11309C00BC08D3239F0803349F4216028C0226095
S11309D0246025C0286023C0206121C027FD27C0D2
S11309E0382F30533A3078F426FF06C0FAE05F9E81
S11309F0300D1124532E13C08AE0389E300D11247B
S1130A00332E20620CC08E3221F426FD71C1206485
S1130A1006C08C3611F4206802C0883641F4F60111
S1130A2093FD859193FF81916F018111C0CF982F20
S1130A309554933018F09052933028F40C5F1F4F64
S1130A40FFE3F9830DC0833631F0833771F08335CA
S1130A5009F05EC023C0F801808189830E5F1F4FB7
S1130A6044244394512C540115C03801F2E06F0E14
S1130A70711CF801A080B18026FF03C0652D70E0D1
S1130A8002C06FEF7FEFC5012C870E94A3062C01E3
S1130A9083012C856FE7262E222218C03801F2E04C
S1130AA06F0E711CF801A080B18026FF03C0652D74
S1130AB070E002C06FEF7FEFC5012C870E9498069B
S1130AC02C012C8550E8252E222A830123FC1CC0EE
S1130AD006C0B70180E290E00E94AE063A94832DEE
S1130AE090E048165906A8F30FC0F50127FC85913C
S1130AF027FE81915F01B70190E00E94AE0631109C
S1130B003A94F1E04F1A51084114510471F7EDC0C1
S1130B10843611F0893641F5F80127FF07C060815A
S1130B207181828193810C5F1F4F08C06081718144
S1130B30882777FD8095982F0E5F1F4F4FE6B42EC0
S1130B40B22297FF09C090958095709561957F4F6B
S1130B508F4F9F4FF0E8BF2A2AE030E0A4010E94A3
S1130B60DA06A82EA81843C0853731F43FEEB32E19
S1130B70B2222AE030E024C099EFB92EB2228F3697
S1130B80B9F020F4883509F0B3C00DC0803721F0E6
S1130B90883709F0ADC002C020E1B22AB4FE0BC010
S1130BA084E0B82A08C024FF09C0E6E0BE2A06C0D3
S1130BB028E030E005C020E130E002C020E132E06E
S1130BC0F801B7FE07C060817181828193810C5F57
S1130BD01F4F06C06081718180E090E00E5F1F4F5F
S1130BE0A4010E94DA06A82EA818FFE7BF22B6FEC9
S1130BF00BC02B2D2E7FA51450F4B4FE0AC0B2FCFA
S1130C0008C02B2D2E7E05C07A2C2B2D03C07A2CE8
S1130C1001C0752C24FF0DC0FE01EA0DF11D808179
S1130C20803311F4297E09C022FF06C073947394A3
S1130C3004C0822F867809F0739423FD14C020FF2A
S1130C400FC05A2C731460F4530C5718732C08C03B
S1130C50B70180E290E02C870E94AE0673942C8545
S1130C607314B0F304C0731410F4371801C0312C9A
S1130C7024FF12C0B70180E390E02C870E94AE06E7
S1130C802C8522FF1EC021FF03C088E590E002C02E
S1130C9088E790E0B7010CC0822F867891F021FD9F
S1130CA002C080E201C08BE227FD8DE2B70190E033
S1130CB00E94AE0606C0B70180E390E00E94AE0633
S1130CC05A94A514C0F3AA94F401EA0DF11DB701D6
S1130CD0808190E00E94AE06A110F5CF06C0B70156
S1130CE080E290E00E94AE063A943110F8CF43CEF1
S1130CF0F7012681378102C02FEF3FEFC9012C96FF
S1130D000FB6F894DEBF0FBECDBFDF91CF911F9118
S1130D100F91FF90EF90DF90CF90BF90AF909F9096
S1130D208F907F906F905F904F903F902F90089599
S1130D30FC010590615070400110D8F780959095A2
S1130D408E0F9F1F0895FC016150704001900110A7
S1130D50D8F7809590958E0F9F1F08950F931F933A
S1130D60CF93DF938C01EB018B8181FD03C00FEFE7
S1130D701FEF1AC082FF0DC02E813F818C819D819F
S1130D802817390764F4E881F9810193F983E8832A
S1130D9006C0E885F985802F0995892B41F78E8156
S1130DA09F8101969F838E83C801DF91CF911F910C
S1130DB00F910895FA01AA27283051F1203181F1C9
S1130DC0E8946F936E7F6E5F7F4F8F4F9F4FAF4F4F
S1130DD0B1E03ED0B4E03CD0670F781F891F9A1F62
S1130DE0A11D680F791F8A1F911DA11D6A0F711D16
S1130DF0811D911DA11D20D009F468943F912AE022
S1130E00269F11243019305D3193DEF6CF01089509
S1130E10462F4770405D4193B3E00FD0C9F7F6CF3A
S1130E20462F4F70405D4A3318F0495D31FD405202
S1130E30419302D0A9F7EACFB4E0A6959795879598
S1130E4077956795BA95C9F7009761057105089577
S1130E509B01AC010A2E0694579547953795279523
S1130E60BA95C9F7620F731F841F951FA01D0895BB
S1070E70F894FFCF20
S1130E74A6092E2E54686973206973204949544283
S1130E8427732053747564656E7420536174656CA0
S1130E946C6974652E2E2E0D0009546869732069DB
S1130EA473204855535341494E2773204F42432DD1
S1130EB4536C61766520636F64652E2E2E000D4499
S1130EC461746120726561642066726F6D204545AA
S1130ED450524F4D203A090044617461207772697D
S1110EE47474656E2025642074696D65730056
S9030000FC
