:10000000E5C3000002C4000000C40000FEC30000FD
:10001000FCC30000FAC30000F8C30000F6C30000F0
:10002000F4C30000F2C30000F0C30000EEC3000000
:10003000ECC30000EAC30000E8C30000E6C3000010
:10004000E4C30000E2C300000C943D12DEC30000D4
:10005000DCC30000DAC30000D8C30000D6C3000030
:10006000D4C30000D2C30000D0C30000CEC3000040
:10007000CCC30000CAC300000C946A1CC6C30000B5
:10008000C4C30000C2C30000C0C30000E10BEA0B00
:10009000F30BFC0B050C0E0C170C200C290C320C6E
:1000A0003B0C036EDB363D9A9999993DABAAAA2A7F
:1000B0003E000000803F084AD73B3BCE016E84BC27
:1000C000BFFDC12F3D6C74319ABD56833DDA3D00B2
:1000D000C77F11BED9E4BB4C3E916BAAAABE0000FB
:1000E00000803F072C7AA5BA6CC590DA3B9365FC7B
:1000F0008BBC53F810FD3C5692834DBD879D3AB69C
:100100003DCBC9BF5BBE73DA0FC93F05A84CCDB26A
:10011000D44EB93836A9020C50B9918688083CA64D
:10012000AAAA2ABE000000803F07634236B79BD8C8
:10013000A71A39685618AEBAAB558C1D3CB7CC57C8
:1001400063BD6DEDFD753EF6177231BF0000008096
:100150003F08000000BE922449123EABAAAA2ABE64
:10016000CDCCCC4C3E00000080BEABAAAAAA3E007B
:10017000000000BF000000803F00000000000841B8
:1001800078D3BB4387D1133D190E3CC3BD4282AD2A
:100190002B3E68EC8276BED98FE1A93E4C80EFFF02
:1001A000BE01C4FF7F3F000000000000000000000F
:1001B000CDCC2441CDCC9041CDCCD4C133330BC177
:1001C000333353C03333DBC1666606409A9961C14D
:1001D0009A9959400000B0C033330341333333BFE1
:1001E000CDCCCCBE9A9921C16666E63F333333BF8E
:1001F000CDCC4C3E6666A6BF9A9911C19A99A9408A
:10020000333383409A9939409A9989C06666A6C06B
:10021000CDCC4CBE0000003F9A99193F6666A6BF40
:100220009A99D93FCDCCCCBD9A9999BF3333B33F7E
:100230009A9959409A997940000000009A9999BE7C
:10024000CDCCCCBD00000000333333BF666606C0A2
:1002500066660640333333BF9A9999BFCDCC4C3E86
:100260009A99993E6666663FCDCCCC3F0000803FB0
:100270009A99993ECDCC4CBECDCC4C3F000000BFEE
:10028000CDCCCC3E6666A63FCDCC4CBECDCCCC3DD5
:100290009A9999BE9A9919BF9A9919BFCDCC4CBF1A
:1002A000CDCCCC3DCDCC4C3ECDCC4CBECDCC4C3EC3
:1002B000000000009A9999BE9A9919BF9A99993E9F
:1002C0000000003FCDCCCC3DCDCC4CBE0000003F6B
:1002D000CDCCCC3ECDCC4CBECDCCCC3D9A9999BEAC
:1002E000CDCCCCBE9A99993E9A99993E00000000D7
:1002F00000000000000000000000000000000000FE
:1003000000000000000000000000000000000000ED
:1003100000000000000000000000000000000000DD
:1003200000000000000000000000000000000000CD
:1003300000000000000000000000000000000000BD
:1003400000000000000000000000000000000000AD
:10035000000000000000000000000000000000009D
:10036000000000000000000000000000000000008D
:10037000000000000000000000000000000000007D
:10038000000000000000000000000000000000006D
:10039000000000000000000000000000000000005D
:1003A000000000000000000000000000000000004D
:1003B000000000000000000000000000000000003D
:1003C000000000000000000000000000000000002D
:1003D000000000000000000000000000000000001D
:1003E000000000000000000000000000000000000D
:1003F00000000000000000000000000000000000FD
:1004000000000000000000000000000000000000EC
:1004100000000000000000000000000000000000DC
:1004200000000000000000000000000000000000CC
:1004300000000000000000000000000000000000BC
:1004400000000000000000000000000000000000AC
:10045000000000000000000000000000000000009C
:10046000000000000000000000000000000000008C
:10047000000000000000000000000000000000007C
:10048000000000000000000000000000000000006C
:10049000000000000000000000000000000000005C
:1004A000000000000000000000000000000000004C
:1004B000000000000000000000000000000000003C
:1004C0000004E6C600A0BBC4CDE895459AD118C586
:1004D000664E3C459AD931C56696D1449A7920C476
:1004E00066D6A844CD0413C59A99E6C2333399441D
:1004F00066E67443008011449A9906C466E6624435
:10050000CD6C4B4466A68D43CDCCF04233B33CC397
:100510003373A7C366E63443CDCC8C4200C0A4C37A
:100520009A9968C3CD0CB44333333D426666404369
:100530000000454366E60CC39A99EEC200801DC3D5
:1005400000008041333383406666C84200008C421D
:10055000666687426666A6C166669142CDCC044255
:1005600066E601C39A996B423333E7C1666685C27A
:10057000333353419A99E940CDCC8DC266667A42B5
:100580003333A342333398C2666658C29A99D9C0AE
:1005900000009CC133334F426666B6400000704194
:1005A0003333C341666616419A995940333333C099
:1005B0003333DBC19A99D940CDCC0CC09A99C14153
:1005C000CDCC0C419A992141333387C1666692C1E3
:1005D000CDCC4CC0CDCC5441CDCCA4C19A9969C1ED
:1005E000666656419A99814133333B416666B6400F
:1005F00066667EC19A9911C1000000C06666064019
:10060000CDCCAC40CDCC0C41CDCCACC16666464027
:10061000CDCC2C41333353C0CDCC3C413333333F6D
:100620009A99D9C0CDCC54C1CDCCDCC0CDCCCCBDF9
:100630009A99F94033330B410000803F9A9911C1D8
:10064000000080C0000028C1666606413333F3BF56
:100650009A99C9C0CDCC4C40CDCCCC3DCDCCCCBEF4
:100660000000003F33339340000000BFCDCC8C40EE
:100670006666E63FCDCCFCC0333333BF9A9919BFD1
:1006800066660640666686C09A991940333333C061
:100690006666E6BF9A9999BF666666C033330BC13A
:1006A000666646400000C0BFCDCCCCBD333313C01E
:1006B0000000004000000040333333BFCDCC4CBFBE
:1006C000CDCC8CBF9A99193FCDCC4C3F333333BF3F
:1006D000CDCC4CBECDCC4C3ECDCC0CC09A99D93FA4
:1006E0003333B3BFCDCC4CBE000020C0CDCCCC3E0C
:1006F000000000C0000060409A9919C03333F3BF76
:10070000CDCC4CBECDCC8CBFCDCCCC3ECDCCCC3E1C
:100710009A99993F3333F33FCDCC4CBFCDCC0CC02D
:100720006666663F9A99993ECDCCCC3D3333333FD4
:100730000000003FCDCCCCBD9A9999BE9A99993EC4
:10074000CDCCCCBECDCC4C3ECDCC4C3E666666BF4F
:10075000666666BFCDCCCCBD000000003333333FAE
:1007600000000000666666BF666666BFCDCCCC3E04
:10077000CDCCCC3E0000003FCDCCCC3F000000BF34
:10078000000000BF0000803F9A9999BFCDCC4CBEBD
:10079000CDCCCCBDCDCC4C3FCDCCCC3ECDCCCCBD4E
:1007A000CDCCCCBD9A99993ECDCCCC3ECDCCCC3DD8
:1007B0000000003F0000003F9A9999BECDCCCCBE0E
:1007C000CDCCCCBE9A9999BECDCC4CBF11241FBEC6
:1007D000CFEFD0E1DEBFCDBF11E0A0E0B1E0E6EAAF
:1007E000FDE600E00BBF02C007900D92A439B107EF
:1007F000D9F725E0A4E9B1E001C01D92AE32B207FD
:10080000E1F70E94B62C0C94D136FACB2F923F928E
:100810004F925F926F927F928F929F92AF92BF9210
:10082000CF92DF92EF92FF920F931F93CF93DF93BC
:10083000CDB7DEB76A970FB6F894DEBF0FBECDBF57
:100840009A8F898F8091020590910305A0910405EC
:10085000B0910505EDEEF1E080879187A287B3871F
:100860008091060590910705A0910805B0910905B2
:10087000B05884839583A683B78380910A059091AD
:100880000B05A0910C05B0910D0580839183A28387
:10089000B38380910C01882341F064E971E0CF01BA
:1008A0000E943C1D10920C0181C00DEE11E00F2E34
:1008B000F4E98F2EF1E09F2EF02D5E018DE0A80E61
:1008C000B11CFE0131961F01F801C190D190E19059
:1008D000F1908F01F40141905190619071904F011E
:1008E000A3019201C701B6010E94613120E030E00E
:1008F00040E05FE30E946434F5016193719381935A
:1009000091935F01A3019201C701B6010E94623178
:1009100020E030E040E05FE30E946434F101619345
:100920007193819391931F01F1E0093F1F0761F6D5
:10093000CE0101960E946C1D9B01AC0160E070E04D
:1009400080E89FEB0E9446326B017C019B01AC0169
:100950006D857E858F8598890E946434E98DFA8D36
:100960006083718382839383A701960169897A8961
:100970008B899C890E946434E98DFA8D6483758328
:1009800086839783A70196016D897E898F89988DCB
:100990000E946434E98DFA8D60877187828793871E
:1009A00064E971E08DEE91E00E943C1D6A960FB6FD
:1009B000F894DEBF0FBECDBFDF91CF911F910F9195
:1009C000FF90EF90DF90CF90BF90AF909F908F906F
:1009D0007F906F905F904F903F902F9008952F924F
:1009E0003F924F925F926F927F928F929F92AF92BF
:1009F000BF92CF92DF92EF92FF920F931F93CF930C
:100A0000DF93CDB7DEB7E9970FB6F894DEBF0FBE20
:100A1000CDBF9DAB8CAB60910205709103058091B9
:100A20000405909105050DEE11E020E030E44CE165
:100A300056E40E944632F801608771878287938767
:100A40006091060570910705809108059091090550
:100A500020E030E44CE156E40E944632DC01CB0158
:100A6000B058F80184839583A683B78360910A0503
:100A700070910B0580910C0590910D0520E030E4FC
:100A80004CE156E40E944632F80160837183828310
:100A90009383C8010E946C1D6F87788B898B9A8B1A
:100AA0004090820450908304609084047090850488
:100AB0000F2EF6E7EF2EF4E0FF2EF02DCE0101967B
:100AC0004C010F2EF5ED2F2EF1E03F2EF02D0F2EC5
:100AD000F2E8AF2EF4E0BF2EF02D81016C01F7019A
:100AE00061917191819191917F019B01AC010E9473
:100AF0006231A30192010E946434F6016193719303
:100B0000819391936F019B01AC010E9462319B0123
:100B1000AC01F80160817181828193810E94623110
:100B2000F80161937193819391938F01EA14FB040F
:100B3000B1F62F85388949895A89CA01B9010E94BD
:100B400064346CA77DA78EA79FA780EA91E09FA33E
:100B50008EA3C12CD12CFE013D96FE87ED8728AADD
:100B600039AA8AAA9BAA8601CEA0DFA0D9A6C8A6C8
:100B7000C80180599E4F9D8B8C8BF801E45BFE4F22
:100B8000FF8BEE8B81EE91E0998F888FF801E85D05
:100B9000FE4FFB8FEA8FC8A8D9A8EAA8FBA81F863A
:100BA0001B8A312C212C1BA70AA78701DD8ECC8E36
:100BB000F80161917191819191918F01EC89FD8989
:100BC0002191319141915191FD8BEC8BEC8DFD8DFB
:100BD00081909190A190B190FD8FEC8FEE89FF896B
:100BE0004190519061907190FF8BEE8BE88DF98D63
:100BF000C190D190E190F190F98FE88FCEAADFAA51
:100C0000E8AEF9AEEA8DFB8DC190D190E190F19004
:100C1000FB8FEA8FCE8EDF8EE8A2F9A20E946434A9
:100C20006B017C01A3019201C501B4010E946434EF
:100C30009B01AC01C701B6010E9462314B015C010E
:100C40002E8D3F8D48A159A16EA97FA988AD99AD80
:100C50000E9464349B01AC01C501B4010E94623161
:100C60009B01AC016F857B89832D922D0E9462319F
:100C70006F877B8B382E292ECD84DE840C151D05C5
:100C800009F096CF0AA51BA52CA53DA54EA55FA5ED
:100C9000922D0E944632E8A5F9A560837183828374
:100CA00093838EA19FA104969FA38EA3045F1F4FE1
:100CB0000432110509F058CF4CA95DA96DEE71E021
:100CC00080EA91E00E945A1F6091D40170E080E0B8
:100CD00090E00E94DF32AB01BC018CA99DA90E946B
:100CE000DB1FE9960FB6F894DEBF0FBECDBFDF91D4
:100CF000CF911F910F91FF90EF90DF90CF90BF9019
:100D0000AF909F908F907F906F905F904F903F90AB
:100D10002F9008952F923F924F925F926F927F9201
:100D20008F929F92AF92BF92CF92DF92EF92FF92FB
:100D30000F931F93CF93DF936C018C017C018CE0A8
:100D4000E80EF11CE601488059806A807B805301DF
:100D50004201E894B7F823E333E343E75FE3C501D7
:100D6000B4010E9459341816FCF4A3019201C50184
:100D7000B4010E94463220E030E040E85FEB0E9480
:100D80003F32811109C083E393E3A3E7BFEB88837C
:100D90009983AA83BB8308C083E393E3A3E7BFE3FC
:100DA00088839983AA83BB832496CE15DF0559F6E1
:100DB00045ED5FE061EC7EE3C6010E94DB1FE601CA
:100DC000488059806A807B8053014201E894B7F8DB
:100DD00028EA36EC4BE85EE3C501B4010E945934C1
:100DE0001816FCF4A3019201C501B4010E94463219
:100DF00020E030E040E85FEB0E943F32811109C003
:100E000088EA96ECABE8BEEB88839983AA83BB8320
:100E100008C088EA96ECABE8BEE388839983AA838E
:100E2000BB832496EC16FD0659F6D8016D917D9191
:100E30008D919D918D0126E03FEF49E75CE40E9492
:100E400064340E94AE32B72ED82FC92F862F660F7A
:100E5000990B0E94332C8B2DBB0C990B0E94332CC9
:100E60008D2FDD0F990B0E94332C8C2FCC0F990BFB
:100E70000E94332C0E151F05C1F680912601082E05
:100E8000000C990B0E94332C8091B001082E000CAD
:100E9000990B0E94332CF60180809180A280B38050
:100EA00020E030E0A901C501B4010E9459341816B0
:100EB000C4F420E03FEF4FE757E4C501B4010E94BE
:100EC000643428EA36EC4BE85EE30E9446329F77B2
:100ED0000E94B332709316056093150510921B059E
:100EE0001EC028EA36EC4BE85EE3C501B4010E945F
:100EF000463220E030E040E85FE30E94623120E0CB
:100F00003FEF4FE757E40E9464349F770E94B3326B
:100F1000709316056093150581E080931B05D6013B
:100F200014968D909D90AD90BC90179720E030E086
:100F3000A901C501B4010E9459341816C4F420E077
:100F40003FEF4FE757E4C501B4010E94643428EA3B
:100F500036EC4BE85EE30E9446329F770E94B33244
:100F6000709318056093170510921C051EC028EA9F
:100F700036EC4BE85EE3C501B4010E94463220E046
:100F800030E040E85FE30E94623120E03FEF4FE74E
:100F900057E40E9464349F770E94B332709318051F
:100FA0006093170581E080931C05F601C084D1840D
:100FB000E284F38420E030E0A901C701B6010E9479
:100FC00059341816C4F420E03FEF4FE757E4C70147
:100FD000B6010E94643428EA36EC4BE85EE30E94D6
:100FE00046329F770E94B33270931A0560931905B9
:100FF00010921D051EC028EA36EC4BE85EE3C701DF
:10100000B6010E94463220E030E040E85FE30E94F3
:10101000623120E03FEF4FE757E40E9464349F774E
:101020000E94B33270931A056093190581E0809392
:101030001D0580EA8BBBDF91CF911F910F91FF902F
:10104000EF90DF90CF90BF90AF909F908F907F9068
:101050006F905F904F903F902F9008956F927F9286
:101060008F929F92AF92BF92CF92DF92EF92FF92B8
:101070000F931F93CF93DF93CDB7DEB7E0970FB6F3
:10108000F894DEBF0FBECDBF0E94F3208FEC97E037
:101090000197F1F700C000000E949620CE01019652
:1010A00039DECE010D9636DE0E94C220CE010196B9
:1010B000ADDB8091020590910305A0910405B091EC
:1010C0000505EDEEF1E080879187A287B3878091D7
:1010D000060590910705A0910805B0910905B05843
:1010E00084839583A683B78380910A0590910B052D
:1010F000A0910C05B0910D0580839183A283B383E9
:101100008AE590E00E94332C0E9491209FEFE9E64F
:1011100018E19150E0401040E1F700C000008091DC
:101120002701813019F40E94072161C020919204A7
:1011300030919304409194045091950460919604E9
:10114000709197048091980490919904A2E00E9474
:101150009F362093920430939304409394045093C9
:1011600095046093960470939704809398049093E9
:10117000990420918A0430918B0440918C04509101
:101180008D0460918E0470918F04809190049091F1
:1011900091040E949F3620938A0430938B044093DD
:1011A0008C0450938D0460938E0470938F0480930D
:1011B000900490939104EDEAF4E086A18E5F86A3FB
:1011C00086A18B3320F016A285A18F5F85A3809125
:1011D000D2048C3330F0EDEAF4E015A284A18F5FE5
:1011E00084A38091D104883110F01092D10484E658
:1011F00090E00E94332C0E9493200E94C52480938B
:10120000D401809127018F3F09F443C00E94DE2260
:10121000CE0149960E947B23CE0185960E944A24E6
:1012200023ED31E046E754E0BE01675E7F4FCE011B
:1012300085960E94ED248093D40161EE71E086E7EB
:1012400094E00E94EE288091D4016091D301869FA2
:10125000B0011124072E000C880B990B0E94E1327B
:10126000AB01BC0181EE91E00E94DB1F81EE91E0B9
:101270000E946C1D60938604709387048093880499
:101280009093890486E794E00E946A20CE010D962F
:10129000A6DB8091C6018837DCF420911F053091D0
:1012A0002005409121055091220560912305709100
:1012B000240580912505909126052032314A47402A
:1012C0005105610571058105910509F008F46BC0B0
:1012D0001092B4011092B5011092B6011092B701AC
:1012E00089E78093C6018091D401813021F58091F6
:1012F000AC019091AD0102969093AD018093AC0149
:101300001092AF011092AE0160ED72E00E94523671
:101310009093C5018093C401883592402CF41092BB
:10132000B1011092B0012CC182E090E09093B10124
:101330008093B00125C11092C5011092C401609143
:10134000AE017091AF016E5F7F4F7093AF016093FC
:10135000AE01072E000C880B990B0E94E1326B0145
:101360007C0120E030E046E153E46091040170919B
:10137000050180910601909107010E9461319B0156
:10138000AC01C701B6010E94593418163CF482E042
:1013900090E09093B1018093B001F2C01092B1013E
:1013A0001092B001EDC0CE0101960E946C1D6B0140
:1013B0007C016093C0017093C1018093C20190933E
:1013C000C3018091D401682F70E080E090E00E941A
:1013D000E1329B01AC01C701B6010E9464346B018C
:1013E0007C016093BC017093BD018093BE0190931A
:1013F000BF0120E030E0A9010E943F32882309F4B8
:1014000062C0809008019090090122E08216910448
:10141000A9F4A7019601C701B6010E94623120E03C
:1014200030E040E05FE30E9464346093B401709365
:10143000B5018093B6019093B7012CC0B4016150FF
:10144000710980E090E00E94DF322091B801309174
:10145000B9014091BA015091BB010E9464349B01D3
:10146000AC01C701B6010E9462316B017C01B4017D
:1014700080E090E00E94DF329B01AC01C701B60121
:101480000E9446326093B4017093B5018093B60117
:101490009093B7018FEF881A980A90920901809271
:1014A0000801C090B401D090B501E090B601F09071
:1014B000B70120E030E0A901C701B6010E943F3228
:1014C000811110C01AC082E090E0909309018093CE
:1014D00008011092B4011092B5011092B601109259
:1014E000B7010BC02AE037ED43E25DE3C701B60167
:1014F0000E943F32882384F019C020E030E0A90127
:101500006091B8017091B9018091BA019091BB01CD
:101510000E943F32882351F08091B2019091B30133
:1015200002969093B3018093B20104C01092B3016C
:101530001092B2016091B2017091B30180E090E02D
:101540000E94DF322091000130910101409102019F
:10155000509103010E945934181664F482E090E01F
:101560009093B1018093B0018091C6018E5F80930A
:10157000C60106C01092B1011092B0011092C601CE
:101580008091B4019091B501A091B601B091B701DD
:101590008093B8019093B901A093BA01B093BB01B5
:1015A000C0908604D0908704E0908804F09089046D
:1015B0002FE632E143E85BE3C701B6010E943F3208
:1015C0008823BCF48091D4019091D301899FC001FC
:1015D0001124019771F48091D1019091D20101966B
:1015E0009093D2018093D1011092D0011092CF013B
:1015F00017C02FE632E143E05CE3C701B6010E9469
:10160000593418166CF48091CF019091D001019655
:101610009093D0018093CF011092D2011092D1010A
:1016200060901F0570902005809021059090220504
:10163000B0912305A0912405F0912505E0912605A0
:10164000262D372D482D592D6B2F7A2F8F2F9E2F1A
:10165000233F314041055105610571058105910523
:1016600009F0A0F484E0809326011092C701109243
:10167000C8011092C9011092CA011092CB011092B8
:10168000CC011092CD011092CE0177C08091C6019D
:1016900018165CF580912601843039F52091D1012E
:1016A0003091D20180910A0190910B01821793072A
:1016B000C4F481E0809326016092C7017092C80152
:1016C0008092C9019092CA01B093CB01A093CC0142
:1016D000F093CD01E093CE011092D2011092D1018E
:1016E00004C01092D0011092CF0180912601813068
:1016F00009F043C02091CF013091D00180910A01BF
:1017000090910B0182179307A4F52091C7013091A6
:10171000C8014091C9015091CA016091CB017091FB
:10172000CC018091CD019091CE01205F384D4F4F7B
:101730005F4F6F4F7F4F8F4F9F4FA22EB32EC42E00
:10174000D52EE62EF72E082F192F262D372D482DB2
:10175000592D6B2F7A2F8F2F9E2F0E94B43649F070
:1017600040F084E0809326011092D0011092CF01C6
:1017700004C01092D2011092D1018091B0018093E7
:10178000DB04E0960FB6F894DEBF0FBECDBFDF914D
:10179000CF911F910F91FF90EF90DF90CF90BF906E
:1017A000AF909F908F907F906F90089590E0FC0194
:1017B0003297EB30F10508F067C0EA5BFF4F0C94FD
:1017C00065362FE130E040E050E060E070E080E01E
:1017D00090E008952BE330E040E050E060E070E0FE
:1017E00080E090E008952AE530E040E050E060E0DD
:1017F00070E080E090E0089528E730E040E050E0BD
:1018000060E070E080E090E0089527E930E040E09B
:1018100050E060E070E080E090E0089525EB30E07B
:1018200040E050E060E070E080E090E0089524ED5A
:1018300030E040E050E060E070E080E090E008954B
:1018400023EF30E040E050E060E070E080E090E0C6
:10185000089521E131E040E050E060E070E080E098
:1018600090E0089520E331E040E050E060E070E077
:1018700080E090E008952EE431E040E050E060E048
:1018800070E080E090E0089520E030E040E050E03B
:1018900060E070E080E090E008952F923F924F92D8
:1018A0005F926F927F928F929F92AF92BF92CF92F0
:1018B000DF92EF92FF920F931F93CF93DF93CDB7F9
:1018C000DEB765970FB6F894DEBF0FBECDBF2C0113
:1018D000862F4987622EA02E69DF2A873B874C8797
:1018E0005D876E877F87888B998B2E2D30E040E057
:1018F00050E060E070E080E090E020583C454449D2
:101900005B4C6E40710981099109822E932E342E11
:10191000752EB62FA72FF82FE92F202F30E040E0AB
:1019200050E060E070E080E090E004E00E947D36EE
:10193000B12CC12CD12CE12CF12C00E010E00E9444
:10194000AB3602E00E947D36A22EB32EC42ED52ED9
:10195000E62EF72E082F192F282D392D432D572D20
:101960006B2F7A2F8F2F9E2F0E949636722E832EEA
:10197000942E252E362EB72FA82FF92F262D30E0A6
:1019800040E050E060E070E080E090E004E00E9421
:101990007D36A62CB12CC12CD12CE12CF12C00E0F1
:1019A00010E00E94AB36A22EB32EC42ED52EE62E0A
:1019B000F72EE82F192F04E00E947D360E2F0E948B
:1019C000AB3604E00E947D36A22EB32EC42ED52E57
:1019D000E62EF72E082F192F272D382D492D522DA1
:1019E000632D7B2F8A2F9F2F0E949636222E332E17
:1019F0004A8B5B8B662E772E8C8B9D8B9201498256
:101A00003A8340E050E060E070E080E090E003E086
:101A10000E947D36822E932E442E552EB62FA72F50
:101A2000F82FE92F0E947D36A22EB32EC42ED52E7C
:101A3000E62EF72E082F192F282D392D442D552D40
:101A40006B2F7A2F8F2F9E2F0E949636A980BA80F7
:101A5000C12CD12CE12CF12C00E010E00E94963634
:101A6000A22EB32EC42ED52EE62EF72EE82F192F38
:101A700004E00E947D360E2F0E94AB36A22EB32EBC
:101A8000C42ED52EE62EF72EE82F192F04E00E9443
:101A90007D360E2F0E94AB36A22EB32EC42ED52E2D
:101AA000E62EF72EE82F192F04E00E947D360E2F28
:101AB0000E94AB3607E00E947D36A22EB32EC42EC4
:101AC000D52EE62EF72E082F192F222D332D4A89D9
:101AD0005B89662D772D8C899D890E949636722EA2
:101AE000832E942EB52F662E572EF82FE92F298599
:101AF00030E040E050E060E070E080E090E0AFEF88
:101B00000E949F36AA84BB84CC84DD84EE84FF844B
:101B1000088919890E949636A22EB32EC42ED52E7E
:101B2000E62EF72EA82F192F02E00E947D360A2FED
:101B30000E94AB36A22EB32EC42ED52EE62EF72E43
:101B4000A82F192F04E00E947D360A2F0E94AB3681
:101B5000A22EB32EC42ED52EE62EF72EA82F192F87
:101B600004E00E947D360A2F0E94AB3607E00E94F7
:101B70007D36A22EB32EC42ED52EE62EF72E082F9C
:101B8000192F272D382D492D5B2F662D752D8F2F61
:101B90009E2F0E94963665960FB6F894DEBF0FBE54
:101BA000CDBFDF91CF911F910F91FF90EF90DF900C
:101BB000CF90BF90AF909F908F907F906F905F90ED
:101BC0004F903F902F900895AF92BF92CF92DF92A7
:101BD000EF92FF920F931F93CF93DF93E12C0EE1CF
:101BE00024E044E163E080EE97E057DEA22EB32EBE
:101BF000C42ED52ED62FF72EC82F192FEDEAF4E0DC
:101C000081A592A5E6A005A124A147A160A545DE76
:101C100020938A0430938B0440938C0450938D045A
:101C200060938E0470938F0480939004909391043A
:101C3000ED2E0C2F0E94AB36209392043093930428
:101C40004093940450939504609396047093970482
:101C50008093980490939904DF91CF911F910F91F5
:101C6000FF90EF90DF90CF90BF90AF9008954F928C
:101C70005F926F927F928F929F92AF92BF92CF921C
:101C8000DF92EF92FF920F931F93CF93DF93CDB725
:101C9000DEB7A4970FB6F894DEBF0FBECDBF7C01B0
:101CA0006B012091920430919304409194045091DF
:101CB0009504609196047091970480919804909196
:101CC00099040E941C3327EB39E540E85FE30E944A
:101CD00064342EEB37EF48E958E30E9464342B015B
:101CE0003C010E9443324B015C0169837A838B8300
:101CF0009C83C301B2010E9413356D837E838F8361
:101D0000988719861A861B861C868B019C01305881
:101D10000D871E872F87388B898A9A8AAB8ABC8A5F
:101D20001D8A1E8A1F8A188E198E1A8E1B8E1C8E73
:101D30001D8E1E8E1F8E18A280E090E0A0E8BFE3EB
:101D400089A39AA3ABA3BCA3A601BE016F5F7F4F7B
:101D5000C7010E94FC1EA4960FB6F894DEBF0FBE0A
:101D6000CDBFDF91CF911F910F91FF90EF90DF904A
:101D7000CF90BF90AF909F908F907F906F905F902B
:101D80004F9008954F925F926F927F92AF92BF9261
:101D9000CF92DF92EF92FF920F931F93CF93DF9337
:101DA000CDB7DEB7A4970FB6F894DEBF0FBECDBF98
:101DB0008C015B0120919204309193044091940432
:101DC00050919504609196047091970480919804C5
:101DD000909199040E941C3327EB39E540E85FE3BA
:101DE0000E9464342EEB37EF48E958E30E946434D4
:101DF0002B013C010E9443326B017C0169837A8391
:101E00008B839C83C301B2010E9413352B013C01DB
:101E100077FA709477F870944D825E826F8278863C
:101E200019861A861B861C866D877E878F87988BFE
:101E3000C98ADA8AEB8AFC8A1D8A1E8A1F8A188E52
:101E4000198E1A8E1B8E1C8E1D8E1E8E1F8E18A232
:101E500080E090E0A0E8BFE389A39AA3ABA3BCA372
:101E6000A501BE016F5F7F4FC8010E94FC1EA496B2
:101E70000FB6F894DEBF0FBECDBFDF91CF911F919B
:101E80000F91FF90EF90DF90CF90BF90AF907F9039
:101E90006F905F904F900895CF92DF92EF92FF92F4
:101EA0000F931F93CF93DF93CDB7DEB7C854D109FB
:101EB0000FB6F894DEBF0FBECDBF8C01CB016A0117
:101EC0007901AE01435F5F4FB8010E945A1FCE01F6
:101ED0000D960E943520F80180819181A281B38105
:101EE000B058898F9A8FAB8FBC8F84819581A681E2
:101EF000B781B0588D8F9E8FAF8FB8A300851185A5
:101F000022853385305809A31AA32BA33CA3CE0105
:101F100049960E943520AE014F5F5F4FBE01675E5C
:101F20007F4FCE010D960E945A1FCE0101960E944E
:101F3000352089819A81AB81BC818DA39EA3AFA3FB
:101F4000B8A78D859E85AF85B88989A79AA7ABA7C5
:101F5000BCA7898D9A8DAB8DBC8D8DA79EA7AFA791
:101F6000B8AB8D819E81AF81B88589AB9AABABABA5
:101F7000BCAB89899A89AB89BC898DAB9EABAFAB71
:101F8000B8AF8D8D9E8DAF8DB8A189AF9AAFABAF35
:101F9000BCAF89859A85AB85BC8521968CAF9DAFFA
:101FA000AEAFBFAF21978D899E89AF89B88D259639
:101FB0008CAF9DAFAEAFBFAF259789A19AA1ABA162
:101FC000BCA129968CAF9DAFAEAFBFAF2997A7013B
:101FD000BE016B5D7F4FC6010E94FC1EC85BDF4FD8
:101FE0000FB6F894DEBF0FBECDBFDF91CF911F912A
:101FF0000F91FF90EF90DF90CF9008952F923F9236
:102000004F925F926F927F928F929F92AF92BF9208
:10201000CF92DF92EF92FF920F931F93CF93DF93B4
:10202000CDB7DEB72C970FB6F894DEBF0FBECDBF8D
:10203000FC011B0180809180A280B380C480D58088
:10204000E680F7804084518462847384A501940102
:10205000C701B6010E94EC3169877A878B879C871C
:10206000A5019401C501B4010E94643469837A8397
:102070008B839C83A5019401C501B4010E94643443
:102080004B015C01A7019601C701B6010E946434AF
:102090009B01AC01C501B4010E9462310E941D3553
:1020A00069837A838B839C8325E434E24FE75FE383
:1020B0000E9464349B01AC01C301B2010E94EC3167
:1020C0004B015C0115E0C501B4010E94433220E0E0
:1020D00030E040E450E40E94C7346B017C01C5014C
:1020E000B4010E94133520E030E040E450E40E9447
:1020F000C7344B015C012EEA39EC46E257E4C701D4
:10210000B6010E9464349B01AC0169817A818B81A4
:102110009C810E9461316B017C0121E539E547E238
:1021200057E4C501B4010E946434A30192010E94E6
:102130006231A70196010E94EC316B017C010E9483
:1021400043324B015C01C701B6010E94133525E4FF
:1021500034E24FE75FE30E946434A50194010E94DA
:10216000EC314B015C01115009F0ADCFC701B60154
:102170000E9413354B015C012AE83CE54BED5BE323
:102180000E9464346D837E838F839887A5019401B8
:102190006D817E818F8198850E9464349B01AC01A2
:1021A00060E070E080E89FE30E9461310E941D358D
:1021B0009B01AC0162E375EA82EC9AE40E9446322C
:1021C0006D837E838F839887C701B6010E94433257
:1021D000F101C082D182E282F38229853A854B8562
:1021E0005C85248335834683578329813A814B81DB
:1021F0005C810E94643469837A838B839C832AE8A0
:102200003CE54BED5BE36D817E818F8198850E947B
:102210006434A50194010E946434A30192010E94D8
:102220006231A50194010E9464349B01AC01698173
:102230007A818B819C810E9462312D813E814F8108
:1022400058850E946131F101608771878287938789
:1022500020E030E044E353E4C701B6010E94643457
:1022600028ED3FE049E450E40E94463220E030E0AF
:1022700048EC52E40E9464340E94AE320DEA14E04D
:10228000F801608F718F828F938F20E030E044E3FC
:1022900053E4F10164817581868197810E946434E1
:1022A00028ED3FE049E450E40E94463220E030E06F
:1022B00048EC52E40E9464340E94AE32F801648F0C
:1022C000758F868F978FF1016085718582859385E3
:1022D0000E94AE32F80160A371A382A393A32C964F
:1022E0000FB6F894DEBF0FBECDBFDF91CF911F9127
:1022F0000F91FF90EF90DF90CF90BF90AF909F90A5
:102300008F907F906F905F904F903F902F900895A7
:102310002F923F924F925F926F927F928F929F92F5
:10232000AF92BF92CF92DF92EF92FF920F931F93E3
:10233000CF93DF93CDB7DEB7AC970FB6F894DEBF7F
:102340000FBECDBF1C017B018A01DB014D905D906A
:102350006D907C90C301B2010E9443324B015C013D
:10236000F701C480D580E680F780C701B6010E94DE
:1023700043326DA37EA38FA398A7C301B2010E942D
:1023800013352B013C01C701B6010E9413356B01C7
:102390007C0177FA709477F87094D501C401B05835
:1023A00089A79AA7ABA7BCA72DA13EA14FA158A56D
:1023B000C301B2010E94643469837A838B839C8356
:1023C000A3019201C701B6010E9464346D837E832C
:1023D0008F83988789869A86AB86BC86D701C6018B
:1023E000B0588D879E87AF87B88B8DA19EA1AFA176
:1023F000B8A5898B9A8BAB8BBC8B1D8A1E8A1F8AD2
:10240000188E9C01AD0169A57AA58BA59CA50E949B
:102410006434698F7A8F8B8F9C8F29A53AA54BA541
:102420005CA5C701B6010E9464346D8F7E8F8F8FCB
:1024300098A349A25AA26BA27CA2A801BE016F5F19
:102440007F4FC1010E94FC1EAC960FB6F894DEBF10
:102450000FBECDBFDF91CF911F910F91FF90EF90F5
:10246000DF90CF90BF90AF909F908F907F906F90B4
:102470005F904F903F902F9008951F920F920FB64C
:102480000F9211240BB60F922F938F939F93AF93BC
:10249000BF93EF93FF939BB380EF89278BBB8CB1E6
:1024A0008093FA018091FB019091FC01A091FD01C4
:1024B000B091FE01BA2FA92F982F88278093FB0196
:1024C0009093FC01A093FD01B093FE018091FB016C
:1024D0009091FC01A091FD01B091FE0188278093AD
:1024E000FB019093FC01A093FD01B093FE012091AC
:1024F000FA018091FB019091FC01A091FD01B09146
:10250000FE01822B8093FB019093FC01A093FD01BF
:10251000B093FE01809111018C3008F086C080914B
:102520001101843028F5EDEAF4E080819181A281E7
:10253000B381892F9A2FAB2FBB27A7FDBA95808334
:102540009183A283B38380819181A281B381BB27D0
:1025500080839183A283B3832091FA01808191814A
:10256000A281B381B22B80839183A283B38351C0B4
:1025700080911101883028F5EDEAF4E0848195819D
:10258000A681B781892F9A2FAB2FBB27A7FDBA95BC
:1025900084839583A683B78384819581A681B7813F
:1025A000BB2784839583A683B7832091FA01848116
:1025B0009581A681B781B22B84839583A683B78347
:1025C00028C0809111018C3020F5EDEAF4E080857F
:1025D0009185A285B385892F9A2FAB2FBB27A7FDA5
:1025E000BA9580879187A287B38780859185A285D8
:1025F000B385BB2780879187A287B3872091FA0193
:1026000080859185A285B385B22B80879187A2872B
:10261000B387809111018F5F809311018091110127
:102620008C3019F48FEF80931101809110018C3060
:1026300008F086C080911001843028F5EDEAF4E0BE
:1026400084859585A685B785892F9A2FAB2FBB27C3
:10265000A7FDBA9584879587A687B78784859585D2
:10266000A685B785BB2784879587A687B7872091DE
:10267000FA0184859585A685B785B22B84879587D1
:10268000A687B78751C080911001883028F5EDEA00
:10269000F4E080899189A289B389892F9A2FAB2F81
:1026A000BB27A7FDBA95808B918BA28BB38B8089BA
:1026B0009189A289B389BB27808B918BA28BB38B25
:1026C0002091FA0180899189A289B389B22B808BEC
:1026D000918BA28BB38B28C0809110018C3020F598
:1026E000EDEAF4E084899589A689B789892F9A2F24
:1026F000AB2FBB27A7FDBA95848B958BA68BB78B89
:1027000084899589A689B789BB27848B958BA68BED
:10271000B78B2091FA0184899589A689B789B22B54
:10272000848B958BA68BB78B809110018F5F8093E4
:102730001001809110018C3019F48FEF80931001FB
:1027400080910F01843020F580910F018230A0F03C
:10275000EDEAF4E083A594A5892F992794A783A790
:1027600083A594A5992794A783A72091FA0183A50F
:1027700094A5922B94A783A780910F018F5F8093DC
:102780000F0180910F01843019F48FEF80930F01B6
:1027900080910E01803108F08BC080910E01843051
:1027A00008F47AC080910E01883028F5EDEAF4E053
:1027B000808D918DA28DB38D892F9A2FAB2FBB2742
:1027C000A7FDBA95808F918FA28FB38F808D918D49
:1027D000A28DB38DBB27808F918FA28FB38F209155
:1027E000FA01808D918DA28DB38DB22B808F918F48
:1027F000A28FB38F51C080910E018C3028F5EDEA85
:10280000F4E0848D958DA68DB78D892F9A2FAB2FEF
:10281000BB27A7FDBA95848F958FA68FB78F848D20
:10282000958DA68DB78DBB27848F958FA68FB78F7B
:102830002091FA01848D958DA68DB78DB22B848F52
:10284000958FA68FB78F28C080910E01803120F51B
:10285000EDEAF4E080A191A1A2A1B3A1892F9A2F62
:10286000AB2FBB27A7FDBA9580A391A3A2A3B3A3C7
:1028700080A191A1A2A1B3A1BB2780A391A3A2A3F0
:10288000B3A32091FA0180A191A1A2A1B3A1B22B7F
:1028900080A391A3A2A3B3A380910E018F5F809325
:1028A0000E0180910E01803119F48FEF80930E019B
:1028B00080910D01873008F054C080910D01811185
:1028C00005C08091FA018093D1043CC080910D0134
:1028D000813029F48091FA018093D20433C0809131
:1028E0000D01823029F48091FA018093D3042AC02B
:1028F00080910D01833029F48091FA018093D404F2
:1029000021C080910D01843029F48091FA018093D7
:10291000D50418C080910D018530A0F0EDEAF4E0F7
:1029200081A592A5892F992792A781A781A592A514
:10293000992792A781A72091FA0181A592A5922BB0
:1029400092A781A780910D018F5F80930D018091E7
:102950000D01873031F48FEF80930D0181E080937A
:10296000F9018091FB019091FC01A091FD01B091D2
:10297000FE018C3A9440AF43BF4329F41092F90111
:10298000109211013FC08091FB019091FC01A09138
:10299000FD01B091FE018C3A9540AF43BF4319F45D
:1029A000109210012FC08091FB019091FC01A09129
:1029B000FD01B091FE018C3A9B40AF43BF4319F437
:1029C00010920F011FC08091FB019091FC01A0911A
:1029D000FD01B091FE018C3A9E40AF43BF4319F414
:1029E00010920E010FC08091FB019091FC01A0910B
:1029F000FD01B091FE018C3A9F40AF43BF4311F4FB
:102A000010920D018091D8049091D9048091F90120
:102A10008823A1F081E08093270157988FEF9FEFE3
:102A20009093D9048093D8041092F9011092FB017D
:102A30001092FC011092FD011092FE01FF91EF91A6
:102A4000BF91AF919F918F912F910F900BBE0F90DF
:102A50000FBE0F901F9018952F923F924F925F924A
:102A60006F927F928F929F92AF92BF92CF92DF929E
:102A7000EF92FF920F931F93CF93DF93CDB7DEB703
:102A8000C854D1090FB6F894DEBF0FBECDBFFC010C
:102A90002A013B01322E29961FAF0EAF2997808065
:102AA0009180A280B380C480D580E680F78020E04A
:102AB00030E04AE754E460857185828593850E9401
:102AC00046326D837E838F839887C501B4010E944F
:102AD000133569837A838B839C83C501B4010E947B
:102AE000433269877A878B879C8720E030EE4BEFF3
:102AF00054E4C301B2010E9461316EA77FA788AB85
:102B000099ABC701B6010E94433260933F027093B4
:102B100040028093410290934202C701B6010E9495
:102B2000133560930302709304028093050290931F
:102B300006022EE23FE24BE15CE469857A858B85F3
:102B40009C850E94643429853A854B855C850E946A
:102B500064344B015C012BE335E24AE15CE46981BA
:102B60007A818B819C810E94643429813A814B81D6
:102B70005C810E946434698B7A8B8B8B9C8B9B016C
:102B8000AC01C501B4010E9462316D8B7E8B8F8BCD
:102B9000988F0E941D352B013C019B01AC010E94C6
:102BA00062316B017C012D813E814F8158850E94ED
:102BB00062312D813E814F8158850E946434698F36
:102BC0007A8F8B8F9C8F2EE23FE24BE15CE4C50154
:102BD000B4010E94643469A37AA38BA39CA32D81C2
:102BE0003E814F815885C701B6010E9462312D8117
:102BF0003E814F8158850E9464346B017C012EE236
:102C00003FE24BE15CE4C501B4010E9464344B0136
:102C10005C012BE335E24AE15CE469897A898B89BE
:102C20009C890E9464349B01AC01C501B4010E94DF
:102C300062312D893E894F89588D0E9446329B0111
:102C4000AC01C701B6010E9462310E941D354B01E3
:102C50005C01A30192016D817E818F8198850E9424
:102C60006231A50194010E94463223966CAF7DAF7C
:102C70008EAF9FAF239720E839EF44E858E469818D
:102C80007A818B819C810E94643429853A854B85A9
:102C90005C850E9464346B017C01A5019401C30131
:102CA000B2010E9464349B01AC01C701B6010E94CD
:102CB000463227966CAF7DAF8EAF9FAF2797239696
:102CC0002CAD3DAD4EAD5FAD239769817A818B818F
:102CD0009C810E9464346B017C0127962CAD3DAD34
:102CE0004EAD5FAD279769857A858B859C850E945F
:102CF00064349B01AC01C701B6010E946131698F48
:102D00007A8F8B8F9C8F23962CAD3DAD4EAD5FADF2
:102D1000239769857A858B859C850E9464346B0135
:102D20007C0127962CAD3DAD4EAD5FAD27976981F7
:102D30007A818B819C810E9464349B01AC01C70124
:102D4000B6010E9462316D8B7E8B8F8B988F0FE363
:102D500013E0298D3A8D4B8D5C8DCA01B9010E941B
:102D60006231D80114966D937D938D939C93179740
:102D70002D893E894F89588DCA01B9010E9462315F
:102D8000F801608771878287938720E030E040E90F
:102D900050E4698D7A8D8B8D9C8D0E946434298DD1
:102DA0003A8D4B8D5C8D0E94643420E030E040EC25
:102DB0005FE30E946131D8011C966D937D938D93E2
:102DC0009C931F9721EE36E446EA50E46D897E8994
:102DD0008F89988D0E946434298D3A8D4B8D5C8D3E
:102DE0000E946434F801608B718B828B938B07E7B0
:102DF00012E08D899E89AF89B88DB058F80184831F
:102E00009583A683B783898D9A8DAB8DBC8D808782
:102E10009187A287B38720E030E040E450EC6D89D1
:102E20007E898F89988D0E946434298D3A8D4B8DCF
:102E30005C8D0E946434D8011C966D937D938D93B4
:102E40009C931F97298D3A8D4B8D5C8DCA01B901DA
:102E50000E9464346B017C012D893E894F89588D15
:102E6000CA01B9010E9464349B01AC01C701B601DB
:102E70000E94613127ED33EB4DED5FE30E94643436
:102E8000F801608B718B828B938BA50194016AE9A9
:102E900079E187EC95E40E9446326BAF7CAF8DAF51
:102EA0009EAF232D30E0A9014D5F5F4F249FC001ED
:102EB000259F900D349F900D112499230CF40196B9
:102EC000959587958EAB882309F4F6C3412C212C68
:102ED00033243394F1E0F98B19A61AA61BA61CA67D
:102EE0001DA21EA21FA218A61FAA18AE19AE1AAEC6
:102EF00019A21AA21BA21CA229864DA6232C298541
:102F00002215D8F42F5F2987622F70E06E5F7F4F04
:102F1000072E000C880B990B0E94E1329B01AC013B
:102F20006BAD7CAD8DAD9EAD0E94C73469A77AA70D
:102F30008BA79CA739853DA7212C44E0431508F0B9
:102F40001CC28985281201C1422C512CB201052CCA
:102F5000000C880B990B0E94E1326B017C019B01F4
:102F6000AC0160E070E080E09FE30E9446324B01DC
:102F70005C01A501940160E070E080E89FE30E949D
:102F800061310E941D3569837A838B839C83632C16
:102F9000712C43018418950891E0891A9108660CF8
:102FA000771C660C771CD301A15CBC4F5D01A701A7
:102FB000960160E070E080E89FE30E94463220E0E6
:102FC00030E040E85FE30E94623129813A814B8121
:102FD0005C810E9464342D893E894F89588D0E94FE
:102FE0006434880C991C880C991C8401015C1C4F6A
:102FF000F80120813181428153810E946434D501DE
:103000006D937D938D939C931397F301E958FD4F36
:103010005F01F401E958FD4F2081318142815381E4
:103020006D897E898F89988D0E9464343B014C01A3
:10303000D8012D913D914D915C91698D7A8D8B8D4B
:103040009C8D0E946434A70196010E9446329B0128
:10305000AC01C401B3010E94623129813A814B81E4
:103060005C810E946434F501608371838283938361
:10307000820101501109C0903F02D0904002E090BF
:103080004102F0904202000F111F000F111FF801C2
:10309000E55CFD4F80809180A280B380440C551C7C
:1030A000440C551C920121503E4F390101501E4FD6
:1030B000D8012D913D914D915C91C701B6010E94BF
:1030C000643469837A838B839C83209103023091DB
:1030D00004024091050250910602C501B4010E940C
:1030E00064349B01AC0169817A818B819C810E944F
:1030F0006231F30160837183828393839201255C43
:103100003D4F2901A5019401C701B6010E94643415
:103110006B017C0120910302309104024091050271
:1031200050910602D8016D917D918D919C910E94E4
:1031300064349B01AC01C701B6010E946131F20108
:10314000608371838283938318C1FDA50F2F10E0E4
:10315000229C60011124009F4001019F900C900C63
:1031600011248C189D08092C000CAA08BB08C50165
:10317000B4010E94E1320E941D354B015C01B8018F
:10318000110F880B990B0E94E13269837A838B833C
:103190009C8320E030E040E85FE30E9461316D8372
:1031A0007E838F8398879B01AC010E9464342B013E
:1031B0003C010D2C000CEE08FF08C701B6010E946F
:1031C000E1329B01AC01C301B2010E9461310E9456
:1031D0001D35A50194010E9446326B017C012981B5
:1031E0003A814B815C81CA01B9010E94623120E0C1
:1031F00030E040E85FE30E946131A50194010E9444
:1032000046326D877E878F87988B832D90E0498526
:10321000242F30E04C01821A930A8401021B130B05
:103220000F5F1F4F3C01660C771C660C771CC301B7
:10323000815C9C4F5C0120E030E040E85FE3698105
:103240007A818B819C810E9462316D8F7E8F8F8FFE
:1032500098A3298D3A8D4B8D5C8D6D857E858F85EC
:1032600098890E946434880C991C880C991CD4019C
:10327000A15CBC4F2D012D913D914D915C910E941F
:10328000643429813A814B815C810E9446326AAB69
:103290007BAB8CAB9DAB000F111F000F111FF80112
:1032A000E15CFC4F2081318142815381C701B6012D
:1032B0000E9464342D813E814F8158850E944632A0
:1032C0009B01AC016AA97BA98CA99DA90E946131CF
:1032D0009B01AC016D8D7E8D8F8D98A10E94643411
:1032E000F5016083718382839383930129583D4F55
:1032F0003901F401E958FD4F208131814281538128
:10330000698D7A8D8B8D9C8D0E9464344B015C019C
:10331000D2012D913D914D915C916D897E898F896E
:10332000988D0E94643429813A814B815C810E948E
:1033300046329B01AC01C501B4010E9461312D856B
:103340003E854F8558890E9464344B015C01F80129
:10335000E958FD4F2081318142815381C701B60177
:103360000E9464349B01AC01C501B4010E9461312B
:10337000F3016083718382839383F9890F2F10E0B7
:10338000C801880F991F880F991FFC01E454FB4F57
:10339000C590D590E590F490FC01E455FE4F259141
:1033A0003591459154916EA57FA588A999A90E9450
:1033B00064349B01AC01C701B6010E94623129A5AA
:1033C0003AA54BA55CA50E94643469837A838B83FC
:1033D0009C83211038C0032D10E0000F111F000F37
:1033E000111FF801E958FD4F20813181428153813D
:1033F0000E9464349B01AC0169A17AA18BA19CA1BC
:103400000E94623169A37AA38BA39CA3F801E15CBB
:10341000FC4F208131814281538169817A818B8186
:103420009C810E9464349B01AC016DA17EA18FA19F
:1034300098A50E9461316DA37EA38FA398A72989C7
:103440002F5F298B32C1C8010196880F991F880F01
:10345000991FFC01E454FB4F85909590A590B49082
:1034600084559E4FFC0125913591459154916EA54F
:103470007FA588A999A90E9464349B01AC01C5016C
:10348000B4010E94623129A53AA54BA55CA50E9412
:1034900064346D877E878F87988B022D10E0C8017A
:1034A000880F991F880F991FFC01E55CFD4FC080B4
:1034B000D180E280F380FC01E150FE4F40805180DA
:1034C0006280738029813A814B815C81C701B6019A
:1034D0000E9464344B015C012D853E854F855889DF
:1034E000C301B2010E9464349B01AC01C501B40167
:1034F0000E9462316D837E838F839887A32CB12CC9
:10350000AA0CBB1CAA0CBB1C950129583D4FD90124
:103510008D919D910D90BC91A02D8D8F9E8FAF8F21
:10352000B8A32D813E814F815885BC01CD010E94F9
:1035300064349B01AC0169A17AA18BA19CA10E947A
:10354000623169A37AA38BA39CA3F501E15CFC4FD4
:1035500080809180A280B3802D813E814F815885EB
:10356000C501B4010E9464349B01AC016DA17EA130
:103570008FA198A50E9461316DA37EA38FA398A708
:1035800020E030E0A9016D897E898F89988D0E94A5
:10359000593418160CF054C0A301920169817A8144
:1035A0008B819C810E9464342B013C01A701960110
:1035B0006D857E858F8598890E9464349B01AC015E
:1035C000C301B2010E9461316B017C01B801110F8E
:1035D000880B990B0E94E1329B01AC01C701B60137
:1035E0000E9464349B01AC01C501B4010E946434A3
:1035F0006B017C01BDA56B2F70E080E090E00E9424
:10360000E13220E030E040E85FE30E9462312D8942
:103610003E894F89588D0E9464349B01AC01C701DB
:10362000B6010E9446329B01AC016FA978AD89AD0D
:103630009AAD0E9462316FAB78AF89AF9AAF32C05A
:10364000A301920169817A818B819C810E946434FB
:103650004B015C01A70196016D857E858F85988958
:103660000E9464349B01AC01C501B4010E94613128
:103670009B01AC016D8D7E8D8F8D98A10E9464346D
:10368000298D3A8D4B8D5C8D0E9464349B01AC0179
:103690006FA978AD89AD9AAD0E9462316FAB78AFFA
:1036A00089AF9AAFE989EE5FE98B23943394FEA941
:1036B000F31508F024CC0CC01DA21EA21FA218A650
:1036C0001FAA18AE19AE1AAE19A21AA21BA21CA2EA
:1036D00023962CAD3DAD4EAD5FAD23976DA17EA180
:1036E0008FA198A50E9464346B017C0123962CADB8
:1036F0003DAD4EAD5FAD239769A17AA18BA19CA191
:103700000E9464344B015C0127962CAD3DAD4EAD5B
:103710005FAD27976DA17EA18FA198A50E9464340B
:103720009B01AC01C501B4010E9462312996AEAD86
:10373000BFAD29976D937D938D939C9313978FA91C
:1037400098ADA9ADBAAD2996EEADFFAD29978483AA
:103750009583A683B78329A13AA14BA15CA12796A3
:103760006CAD7DAD8EAD9FAD27970E9464349B01FB
:10377000AC01C701B6010E9461312996AEADBFAD63
:10378000299718966D937D938D939C931B97C85B97
:10379000DF4F0FB6F894DEBF0FBECDBFDF91CF91E4
:1037A0001F910F91FF90EF90DF90CF90BF90AF905F
:1037B0009F908F907F906F905F904F903F902F9051
:1037C0000895CF93DF93CBE9D0E01882AAE9B0E067
:1037D0001C92EDE9F0E010828881826088838C91F0
:1037E00088698C9380818E60808387E680939900BE
:1037F00010929800DF91CF910895DF92EF92FF929F
:103800000F931F93CF93DF9380E50E94332C0E9488
:10381000372CC82FD0E0DC2FCC270E94372C7E011C
:10382000E82A0E94372CC82FD0E0DC2FCC270E943A
:10383000372C8E01082B0E94372CC82FD0E0DC2FAC
:10384000CC270E94372CD82EB701FF0C880B990B80
:103850000E94E13220E030E64AE656E40E94463219
:10386000609302057093030580930405909305050A
:10387000B801110F880B990B0E94E13220E030E66D
:103880004AE656E40E9446326093060570930705A7
:103890008093080590930905BE016D29072E000C41
:1038A000880B990B0E94E13220E030E64AE656E4AC
:1038B0000E94463260930A0570930B0580930C05B5
:1038C00090930D05DF91CF911F910F91FF90EF9095
:1038D000DF9008951F920F920FB60F9211240BB62E
:1038E0000F922F933F934F935F936F937F938F9399
:1038F0009F93AF93BF93EF93FF9380910D049091AB
:103900009C00E82FF0E0E656FB4F90838F5F8730F6
:1039100019F080930D049DC010920D04EAE9F4E0C3
:10392000808190E0982F882790930C0480930B045B
:1039300080910B0490910C04882790930C04809341
:103940000B0480910B0490910C042181822B9093A5
:103950000C0480930B04828190E0982F8827909329
:103960000A04809309048091090490910A0488272D
:1039700090930A04809309048091090490910A04A9
:103980002381822B90930A0480930904848190E020
:10399000982F882790930804809307048091070448
:1039A00090910804882790930804809307048091DD
:1039B0000704909108042581822B9093080480933A
:1039C000070460910B0470910C04072E000C880B07
:1039D000990B0E94E13220E030E64AE656E40E946C
:1039E000463260930205709303058093040590931B
:1039F00005056091090470910A04072E000C880BDC
:103A0000990B0E94E13220E030E64AE656E40E943B
:103A100046326093060570930705809308059093DE
:103A200009056091070470910804072E000C880BAB
:103A3000990B0E94E13220E030E64AE656E40E940B
:103A4000463260930A0570930B0580930C059093A2
:103A50000D05FF91EF91BF91AF919F918F917F9154
:103A60006F915F914F913F912F910F900BBE0F90EF
:103A70000FBE0F901F901895DC01FB014D915D91D9
:103A80006D917C9113974083518362837383149665
:103A90004D915D916D917C91179744835583668319
:103AA000778318968D919D910D90BC91A02D808764
:103AB0009187A287B3870895FC01A62FB72F409660
:103AC00041915191619171914D935D936D937D936E
:103AD000E817F907A9F708954F925F926F927F92C6
:103AE0008F929F92AF92BF92CF92DF92EF92FF920E
:103AF000CF93DF9300D000D0CDB7DEB7FC0180803C
:103B00009180A280B380C480D580E680F780408415
:103B1000518462847384A5019401C501B4010E949B
:103B2000643469837A838B839C83A7019601C701E0
:103B3000B6010E9464349B01AC0169817A818B815A
:103B40009C810E94623169837A838B839C83A50167
:103B50009401C501B4010E9464344B015C01A701CA
:103B60009601C701B6010E9464349B01AC01C501F6
:103B7000B4010E9462316B017C01A3019201C30177
:103B8000B2010E9464349B01AC01C701B6010E94DE
:103B900062310E941D350F900F900F900F90DF91B2
:103BA000CF91FF90EF90DF90CF90BF90AF909F901C
:103BB0008F907F906F905F904F9008954F925F929B
:103BC0006F927F928F929F92AF92BF92CF92DF922D
:103BD000EF92FF92CF93DF93CDB7DEB728970FB662
:103BE000F894DEBF0FBECDBF9C01DC018D909D908F
:103BF000AD90BC9013971496CD90DD90ED90FC9015
:103C0000179718968D919D910D90BC91A02D8D8345
:103C10009E83AF83B887F901448455846684778492
:103C2000A5019401C501B4010E94643469837A83BB
:103C30008B839C83A7019601C701B6010E9464345F
:103C40009B01AC0169817A818B819C810E946231E8
:103C500069837A838B839C832D813E814F81588534
:103C6000CA01B9010E9464349B01AC0169817A8167
:103C70008B819C810E94623169837A838B839C83D0
:103C8000A5019401C501B4010E9464344B015C019B
:103C9000A7019601C701B6010E9464349B01AC01E3
:103CA000C501B4010E9462316B017C012D813E810E
:103CB0004F815885CA01B9010E9464349B01AC014F
:103CC000C701B6010E9462316B017C01A301920120
:103CD000C301B2010E9464349B01AC01C701B6016B
:103CE0000E9462310E941D3528960FB6F894DEBFFF
:103CF0000FBECDBFDF91CF91FF90EF90DF90CF90BF
:103D0000BF90AF909F908F907F906F905F904F90FB
:103D10000895CF92DF92EF92FF920F931F93CF936C
:103D2000DF93EC018B01FB012081318142815381C2
:103D3000688179818A819B810E9464346B017C0156
:103D4000F80124813581468157816C817D818E8186
:103D50009F810E9464349B01AC01C701B6010E949F
:103D600062316B017C01F8012085318542855385E4
:103D7000688579858A859B850E9464349B01AC01A6
:103D8000C701B6010E946231DF91CF911F910F915F
:103D9000FF90EF90DF90CF900895CF92DF92EF9257
:103DA000FF920F931F93CF93DF93EC01E62EF72E34
:103DB000042F152F6C012CE0C20ED11C6991799152
:103DC00089919991F70121913191419151917F010F
:103DD0000E946231F80161937193819391938F01F5
:103DE000CC15DD0559F7DF91CF911F910F91FF9011
:103DF000EF90DF90CF9008954F925F926F927F92F5
:103E00008F929F92AF92BF92CF92DF92EF92FF92EA
:103E10000F931F93CF93DF936A01862E972E3A015B
:103E20002CE0620E711C482E592E5C01ECE0AE0EA7
:103E3000B11C7601F6011082118212821382C42D08
:103E4000D52D84016991799189919991F801208109
:103E50003181428153810E9464349B01AC01F7019E
:103E600060817181828193810E946231F701608358
:103E7000718382839383045F1F4FCA15DB0511F79B
:103E8000F4E0CF0ED11C24E0820E911CC614D7049E
:103E900081F6DF91CF911F910F91FF90EF90DF900E
:103EA000CF90BF90AF909F908F907F906F905F90DA
:103EB0004F9008958F929F92AF92BF92EF92FF9290
:103EC0000F931F93CF93DF93EC018B017A01FB01DA
:103ED00020853185428553856C817D818E819F81CE
:103EE0000E9464344B015C01F801248135814681D4
:103EF0005781688579858A859B850E9464349B01FA
:103F0000AC01C501B4010E946131F7016083718386
:103F100082839383F80120813181428153816885B6
:103F200079858A859B850E9464344B015C01F80188
:103F30002085318542855385688179818A819B817D
:103F40000E9464349B01AC01C501B4010E9461313F
:103F5000F7016483758386839783F8012481358113
:103F600046815781688179818A819B810E9464346E
:103F70004B015C01F80120813181428153816C81C8
:103F80007D818E819F810E9464349B01AC01C501BB
:103F9000B4010E946131F70160877187828793873E
:103FA000DF91CF911F910F91FF90EF90BF90AF9055
:103FB0009F908F900895CF92DF92EF92FF92CF93D0
:103FC000DF93EC016A017B019A01AB016881798181
:103FD0008A819B810E946434688379838A839B836E
:103FE000A70196016C817D818E819F810E9464343E
:103FF0006C837D838E839F83A70196016885798575
:104000008A859B850E946434688779878A879B8725
:10401000DF91CF91FF90EF90DF90CF900895CF92F6
:10402000DF92EF92FF920F931F93CF93DF936A017A
:104030007B01EC018C01005F1F4FA7019601688195
:1040400079818A819B810E946434699379938993F1
:104050009993C017D10789F7DF91CF911F910F91E5
:10406000FF90EF90DF90CF900895CF92DF92EF9284
:10407000FF92CF93DF93EC012FDD6B017C019B015D
:10408000AC01688179818A819B810E944632688374
:1040900079838A839B83A70196016C817D818E81C0
:1040A0009F810E9446326C837D838E839F83A7010C
:1040B0009601688579858A859B850E944632688746
:1040C00079878A879B87DF91CF91FF90EF90DF9070
:1040D000CF900895CF92DF92EF92FF920F931F93AC
:1040E000CF93DF938C016ADD6B017C01E801005FF7
:1040F0001F4FA7019601688179818A819B810E9467
:1041000046326993799389939993C017D10789F7B8
:10411000DF91CF911F910F91FF90EF90DF90CF90A3
:104120000895579A08950C94BC2B089566CB089572
:1041300084B3886384BB82B1886382B9ABE8B0E0A2
:104140001C92EAE8F0E0108210928C008C918A6A4E
:104150008C938081816180838FEF9FEF90938100AA
:104160008093800010928700109286001092850044
:1041700010928400109283001092820085B3877C95
:1041800085BB089585B3877C85BB80911B058823FB
:1041900011F0AD9A01C0AD9880911C05882311F0F3
:1041A000AC9A01C0AC9880911D05882311F0AB9AA0
:1041B00001C0AB98809115059091160590938700EA
:1041C0008093860080911705909118059093850043
:1041D000809384008091190590911A059093830033
:1041E0008093820008951092160510921505109282
:1041F00018051092170510921A05109219051092C1
:104200001B0510921C0510921D05BCCF0895EF925E
:10421000FF920F931F93CF93DF93CDEAD4E018AAB8
:104220001FA6688179818A819B810AE114E00E943E
:10423000E13220E030E048EC52E40E944632D801FE
:104240006D937D938D939C9313976C817D818E816B
:104250009F810E94E13220E030E048EC52E40E946D
:104260004632F801648375838683978368857985F0
:104270008A859B850E94E13220E030E048EC52E4E0
:104280000E944632D80118966D937D938D939C932E
:104290001B976C857D858E859F850F2EFEE0EF2E0A
:1042A000F4E0FF2EF02D0E94E13220E030E04AE7FA
:1042B00054E40E944632F7016083718382839383C2
:1042C000688979898A899B890E94E13220E030E0FF
:1042D0004AE754E40E944632D70114966D937D93C9
:1042E0008D939C9317976C897D898E899F890E94F5
:1042F000E13220E030E04AE754E40E944632F70120
:1043000060877187828793870E94E40DE6E3F4E07B
:10431000D8014D915D916D917C91139740835183AC
:104320006283738314964D915D916D917C91179783
:10433000448355836683778318964D915D916D9183
:104340007C911B97408751876287738762E474E092
:10435000C8010E94370E6AE274E0C7010E94370E5E
:10436000688D798D8A8D9B8D01EA14E00E94E1327F
:1043700020E836E948E15BE40E94463225E33AEF63
:104380004EE85CE30E946434F801608371838283A9
:1043900093836C8D7D8D8E8D9F8D0E94E13220E800
:1043A00036E948E15BE40E94463225E33AEF4EE805
:1043B0005CE30E946434D80114966D937D938D93D1
:1043C0009C93179710922701DF91CF911F910F9126
:1043D000FF90EF9008952F923F924F925F926F92CD
:1043E0007F928F929F92AF92BF92CF92DF92EF9285
:1043F000FF920F931F93CF93DF93CDB7DEB76497F0
:104400000FB6F894DEBF0FBECDBF1C0186E394E06B
:1044100063DB2B013C019B01AC010E9464349B01D6
:10442000AC0161EB7AE186E791E50E9446326D8747
:104430007E878F87988B20E030E040E450E4C30112
:10444000B2010E94C7346B017C0120E030E040E8FB
:1044500050E4C301B2010E94C7342B013C0106E3C2
:1044600014E0F80180849184A284B384A5019401AE
:10447000C501B4010E94643428E938E045E05CE3FA
:104480000E9464342AEC3EEF43E156E50E94643416
:10449000A30192010E944632698B7A8B8B8B9C8B95
:1044A00020E030E040E85FE36D857E858F85988968
:1044B0000E94623129893A894B895C890E94613165
:1044C0002B013C0121EF39E445EB57EDF801608108
:1044D0007181828193810E946434A30192010E94C0
:1044E0006434A70196010E94463269837A838B83E4
:1044F0009C8321EF39E445EB57EDF8016481758128
:10450000868197810E9464349B01AC01C301B20192
:104510000E946434A70196010E9446326D837E8317
:104520008F83988721EF39E445EB57EDC501B4013E
:104530000E9464342B013C0120E030E040E450E470
:104540006D857E858F8598890E94643420E030E0F7
:1045500040E85FE30E94623129893A894B895C898E
:104560000E9461319B01AC01C301B2010E9464341D
:10457000A70196010E94463269877A878B879C87BC
:10458000B101CE0101960E94370E64960FB6F894E1
:10459000DEBF0FBECDBFDF91CF911F910F91FF9076
:1045A000EF90DF90CF90BF90AF909F908F907F90D3
:1045B0006F905F904F903F902F9008957F928F92D1
:1045C0009F92AF92BF92CF92DF92EF92FF920F93A2
:1045D0001F93CF93DF93CDB7DEB768970FB6F894EC
:1045E000DEBF0FBECDBF0F2EFAE07F2EF02D0F2EB7
:1045F000F6E3CF2EF4E0DF2EF02D0F2EF2E4AF2EF7
:10460000F4E0BF2EF02DCE010196E5DEBE01635F22
:104610007F4F8AE294E030DACE0101964C010F2EF2
:10462000FAE2EF2EF4E0FF2EF02D8701F401619104
:104630007191819191914F012DEC3CEC4CE45EE342
:104640000E9464349B01AC01F80160817181828118
:1046500093810E946231F8016193719381939193E8
:104660008F01EC15FD0511F7CE010D964C0185016A
:10467000F70161917191819191917F01F4012191F3
:104680003191419151914F010E94623120E030E01F
:1046900040E05FE30E9464342DEC3CEC4CE45EE3CC
:1046A0000E9464349B01AC01F801608171818281B8
:1046B00093810E946231F801619371938193919388
:1046C0008F01EC14FD04A1F67A9471109CCF6896CA
:1046D0000FB6F894DEBF0FBECDBFDF91CF911F9113
:1046E0000F91FF90EF90DF90CF90BF90AF909F9091
:1046F0008F907F9008954F925F926F927F928F92EA
:104700009F92AF92BF92CF92DF92EF92FF920F9360
:104710001F93CF93DF93CDB7DEB72C970FB6F894E6
:10472000DEBF0FBECDBF8C01209192043091930467
:10473000409194045091950460919604709197046F
:1047400080919804909199040E941C3320E030ECF1
:1047500048EA57E40E9446322BED3FE049EC50E432
:104760000E94643421ED30EA46EB53E40E94463265
:104770004B015C010E94133520E93EE24CEC5EE304
:104780000E9464340E94C6316B017C01C501B401F2
:104790000E9443322B013C01C701B6010E94433203
:1047A0004B015C019B01AC01C301B2010E94463286
:1047B0000E9453312B013C0120E030E0A901C701E8
:1047C000B6010E945934882354F4A30192016BED81
:1047D0007FE089EC90E40E9461312B013C01C30130
:1047E000B2010E9443329B01AC01C501B4010E9499
:1047F000643469837A838B839C83C301B2010E94F2
:1048000013359B01AC01C501B4010E9464346D8372
:104810007E838F839887C701B6010E94133569870D
:104820007A878B879C872DEC3CEC4CEC5DE36091A8
:1048300026047091270480912804909129040E94F5
:104840006231609326047093270480932804909328
:1048500029049801AE014F5F5F4F6AE274E082E481
:1048600094E00E944C0F2C960FB6F894DEBF0FBE5A
:10487000CDBFDF91CF911F910F91FF90EF90DF900F
:10488000CF90BF90AF909F908F907F906F905F90F0
:104890004F9008958F929F92AF92BF92EF92FF92A6
:1048A0000F931F93CF93DF93CDB7DEB7E0970FB68B
:1048B000F894DEBF0FBECDBF7C0120918A043091F9
:1048C0008B0440918C0450918D0460918E04709102
:1048D0008F0480919004909191040E941C3320ECED
:1048E00039E940EF5BE40E94463220E030E04CEFD3
:1048F00054E40E9462314B015C01BE016F5F7F4F47
:1049000082E494E00E94C20EBE01635F7F4FCE013D
:1049100001960E94FE0F61EA74E0CE010D96ACD8BC
:104920008E01075E1F4F28E0B501A401CE010D9650
:104930000E942C15AE014F5F5F4FBE01635F7F4F3A
:10494000C8010E948811BE016B5D7F4FCE010196A8
:104950000E94370E9701AE014B5D5F4F6AE274E033
:1049600082E494E00E944C0FE0960FB6F894DEBF0C
:104970000FBECDBFDF91CF911F910F91FF90EF90B0
:10498000BF90AF909F908F900895EF92FF921F93EA
:10499000CF93DF93CAEED4E00F2EF2E0EF2EF5E0D6
:1049A000FF2EF02D10E0699179918991999127E27C
:1049B00031E348EC5EE30E943F3288230CF41F5F32
:1049C000CE15DF0581F781E0163009F480E0DF9134
:1049D000CF911F91FF90EF9008952F923F924F92A9
:1049E0005F926F927F928F929F92AF92BF92CF927F
:1049F000DF92EF92FF920F931F93CF93DF93CDB788
:104A0000DEB7CB57D1090FB6F894DEBF0FBECDBFCE
:104A1000AF969FAF8EAFAF97E5967FAF6EAFE5973E
:104A2000E3965FAF4EAFE39779010AEE14E00F2EE5
:104A3000F2E0CF2EF5E0DF2EF02DB12CF8016191E0
:104A40007191819191918F0127E231E348EC5EE30E
:104A50000E943F3288230CF4B3940C151D0571F7A6
:104A6000F1E0E896FFAFE89726E0B21203C0E896BF
:104A70001FAEE897E8968FADE897882309F411C335
:104A8000F701808181110FC080914E0490914F04F5
:104A9000029690934F0480934E048C32914019F407
:104AA00081E0F701808380911201811113C3F70126
:104AB000108210924F0410924E040CC389869A867D
:104AC000AB86BC8608C0F7FAF094F7F8F094C98674
:104AD000DA86EB86FC868E010F5F1F4F1E01FDE01C
:104AE0002F0E311CF801C080D180E280F380460196
:104AF0005701E894B7F826E636E646E85FE3C501D5
:104B0000B4010E94613121EC3AEC41EC5FE30E9478
:104B100046320E94533120E030E044E353E40E94E7
:104B2000643420ED3FE049E450E40E94463226E63A
:104B300036E64EE151E40E94623123E333E343ED74
:104B40005FE30E94463220ED3FE049E450E40E94DA
:104B5000643420E030E044E353E40E9446322B0109
:104B60003C0120E030E0A901C701B6010E943F32BC
:104B70008823C1F0C301B2010E9443322B013C01E2
:104B8000A7019601C501B4010E9446329B01AC0108
:104B9000C301B2010E946434F8016083718382838F
:104BA000938309C0C301B2010E944332F8016083BC
:104BB0007183828393830C5F1F4F0215130509F0E5
:104BC00091CFCE01019651DA8091020590910305B3
:104BD000A0910405B09105058D8B9E8BAF8BB88F8E
:104BE0008091060590910705A0910805B0910905EF
:104BF000B058898B9A8BAB8BBC8B80910A059091B6
:104C00000B05A0910C05B0910D058D879E87AF8790
:104C1000B88BAE01475E5F4FBE016F5F7F4FCE0125
:104C20000D9648D9CE01499620DAAE014B5D5F4F13
:104C3000E5966EAD7FADE597AF968EAD9FADAF9724
:104C400039D9CE01859611DABE016B5D7F4FCE0159
:104C500049965FD86B017C01AF966EAD7FADAF9783
:104C6000CE010D9656D84B015C01E5966EAD7FAD39
:104C7000E597CE0101964DD82B013C0120E030E0B4
:104C800040E85FE3C701B6010E9462316B017C011D
:104C900026E636E646E65FE3C501B4010E946434C9
:104CA0004B015C0120ED3CEC4CEC5DE3C301B20137
:104CB0000E9464349B01AC01C501B4010E946231C1
:104CC0009B01AC01C701B6010E9464344B015C0139
:104CD000AE01475B5F4FAF966EAD7FADAF97CE0134
:104CE0000D96E8D8AE014B5A5F4FE5966EAD7FAD9D
:104CF000E597CE010196DED8CE01875B9F4F7C0100
:104D00008E010B5A1F4F68019CE0C90ED11CF701A0
:104D100061917191819191917F0126E636E646E697
:104D20005FE30E9464342B013C0120ED3CEC4CEC31
:104D30005DE3F80160817181828193810E94643416
:104D40009B01AC01C301B2010E946231F801619381
:104D50007193819391938F01EC15FD05C1F6AE011E
:104D60004F5C5F4FBE016B5D7F4FCE014996A2D86D
:104D7000BE016B5A7F4FCE01C1960E94891EA501CC
:104D800094010E9462316B017C01AE01435C5F4F74
:104D9000BE016B5D7F4FCE0149960E94CD1EBE01C4
:104DA0006B5A7F4FCE01CD960E94891EE1966CAF63
:104DB0007DAF8EAF9FAFE197A7019601C701B60106
:104DC0000E9464344B015C01E1962CAD3DAD4EADCB
:104DD0005FADE197CA01B9010E9464342B013C0127
:104DE000A3019201C501B4010E9462310E941D35E8
:104DF0004B015C0120E030E0A901C701B6010E942F
:104E0000593418160CF090C0A7019601C501B401E1
:104E10000E946231E7966CAF7DAF8EAF9FAFE79790
:104E2000A50194010E9464344B015C01BE016B5DDD
:104E30007F4FCE0149960E94891E2B013C0120E044
:104E400030E040E85FE3C301B2010E9462319B01A0
:104E5000AC01C501B4010E9464340E941D359B0160
:104E6000AC010E9462319B01AC0160E070E080E81F
:104E70009FE30E944632EC966CAF7DAF8EAF9FAF42
:104E8000EC978E010F5C1F4F1E01FDE32F0E311CAE
:104E90006E0121E6C20ED11C7101F8012191319100
:104EA000419151918F01F101419051906190719028
:104EB0001F01E7966CAD7DAD8EAD9FADE7970E946B
:104EC00064344B015C01E1962CAD3DAD4EAD5FAD60
:104ED000E197C301B2010E9464349B01AC01C5019A
:104EE000B4010E946231F6016193719381939193B1
:104EF0006F010E151F0589F6BE016B5D7F4FCE0158
:104F000049960E94891E20E030E040E85FE30E945D
:104F100062319B01AC01E7966CAD7DAD8EAD9FAD6E
:104F2000E7970E9464348DC0A7019601C501B401C2
:104F30000E946131E7966CAF7DAF8EAF9FAFE79770
:104F4000A50194010E9464346B017C01BE016B5D7C
:104F50007F4FCE0149960E94891E4B015C0120E0E3
:104F600030E040E85FE3C501B4010E9462319B017B
:104F7000AC01C701B6010E9464340E941D359B013B
:104F8000AC010E9462319B01AC0160E070E080E8FE
:104F90009FE30E944632EC966CAF7DAF8EAF9FAF21
:104FA000EC978E010F5C1F4F1E01FDE32F0E311C8D
:104FB0002E0121E6420E511C3101F80161917191DF
:104FC000819191918F01F10181909190A190B19087
:104FD0001F01E1962CAD3DAD4EAD5FADE1970E9456
:104FE00064346B017C01A5019401E7966CAD7DAD45
:104FF0008EAD9FADE7970E9464349B01AC01C70161
:10500000B6010E946231F201619371938193919391
:105010002F010615170589F6BE016B5D7F4FCE0186
:1050200049960E94891E20E030E040E85FE30E943C
:105030006231E1962CAD3DAD4EAD5FADE1970E9482
:105040006434A5960CAD1DAD2EAD3FADA597E3968E
:10505000EEADFFADE3970083118322833383A996DE
:105060000CAD1DAD2EAD3FADA997048315832683EE
:105070003783AD960CAD1DAD2EAD3FADAD9700871E
:105080001187228733876487758786879787EC9691
:105090004CAD5DAD6EAD7FADEC97CF010E940F20A2
:1050A0007DC0E396EEADFFADE397108211821282D0
:1050B0001382148215821682178210861186128638
:1050C000138680E090E0A0E8BFE384879587A687F9
:1050D000B78764C08090EA049090EB04A090EC0441
:1050E000B090ED04C090EE04D090EF04E090F00496
:1050F000F090F104A7019601C501B4010E94593452
:1051000018164CF0F7FAF094F7F8F094C982DA82A6
:10511000EB82FC8204C089829A82AB82BC8280903E
:10512000F2049090F304A090F404B090F504C090C1
:10513000F604D090F704E090F804F090F904A70189
:105140009601C501B4010E94593418164CF0F7FAC3
:10515000F094F7F8F094CD82DE82EF82F88604C0F6
:105160008D829E82AF82B8868090FA049090FB0474
:10517000A090FC04B090FD04C090FE04D090FF0409
:10518000E0900005F0900105A7019601C501B4016A
:105190000E94593418160CF491CC95CCE896FFADCA
:1051A000E897F09312018F2FC558DF4F0FB6F89490
:1051B000DEBF0FBECDBFDF91CF911F910F91FF904A
:1051C000EF90DF90CF90BF90AF909F908F907F90A7
:1051D0006F905F904F903F902F9008952F923F9245
:1051E0004F925F926F927F928F929F92AF92BF92F7
:1051F000CF92DF92EF92FF920F931F93CF93DF93A3
:10520000CDB7DEB7C65CD1090FB6F894DEBF0FBECE
:10521000CDBFCD53DF4F8883C35CD040CC53DF4F2D
:105220009883C45CD040CB53DF4F6883C55CD040CB
:10523000CA53DF4F7883C65CD040282E392E0CE548
:1052400014E0CE0101967C01DE015196CB54DF4F74
:10525000B983A883C55BD0400F2EFCE6CF2EF4E0C7
:10526000DF2EF02DCF54DF4FB983A883C15BD04030
:10527000C754DF4F99838883C95BD040F101819087
:105280009190A190B1901F01D8014D905D906D90CB
:105290007D908D01A3019201C501B4010E9461318D
:1052A00020E030E040E05FE30E946434F701619366
:1052B0007193819391937F01A3019201C501B40180
:1052C0000E94623120E030E040E05FE30E946434FD
:1052D000CF54DF4FA881B981C15BD0406D937D93DE
:1052E0008D939D93CF54DF4FB983A883C15BD0408A
:1052F0000C151D0519F6C754DF4FE880F980C95B0E
:10530000D040DE019D968E010F5D1F4FCE010D96A0
:10531000BD019801F701CB54DF4F48815981C55B2E
:10532000D040C190D190E190F190DB01CD92DD921F
:10533000ED92FD92BD01DA01CD90DD90ED90FD90F2
:10534000AD01D901CD92DD92ED92FD929D01E8175C
:10535000F90739F78D8D9E8DAF8DB8A1C754DF4FFA
:1053600088839983AA83BB83C95BD040AD961CAE6A
:105370001DAE1EAE1FAEAD97C9A4DAA4EBA4FCA46B
:1053800020E030E040E050ECC701B6010E946434F8
:10539000E1966CAF7DAF8EAF9FAFE1978DA09EA0E1
:1053A000AFA0B8A4A5019401C501B4018BD7E596BF
:1053B0006CAF7DAF8EAF9FAFE597A7019601C70198
:1053C000B60180D7E9966CAF7DAF8EAF9FAFE997FE
:1053D000ED961CAE1DAE1EAE1FAEED97C9A0DAA0B5
:1053E000EBA0FCA020E030E040E050ECC701B601AB
:1053F0000E946434C358DF4F688379838A839B8318
:10540000CD57D04020E030E040E050ECC501B40181
:105410000E946434CF57DF4F688379838A839B83EC
:10542000C158D040A7019601C701B6014BD7CB5751
:10543000DF4F688379838A839B83C558D040C757E1
:10544000DF4F188219821A821B82C958D040C75474
:10545000DF4F288139814A815B81C95BD040CA0115
:10546000B90130D7C357DF4F688379838A839B8321
:10547000CD58D040CF56DF4F188219821A821B8236
:10548000C159D040CB56DF4F188219821A821B8235
:10549000C559D040C756DF4F188219821A821B8225
:1054A000C959D040C356DF4F688379838A839B8371
:1054B000CD59D040CF55DF4F188219821A821B82F6
:1054C000C15AD040CB55DF4F188219821A821B82F5
:1054D000C55AD040C755DF4F188219821A821B82E5
:1054E000C95AD040C355DF4F688379838A839B8331
:1054F000CD5AD0403E0195E4690E711CC354DF4F74
:1055000019830883CD5BD040812C912C5E01ADE2E4
:10551000AA0EB11CCF53DF4F0883C15CD040CE53DD
:10552000DF4F1883C25CD04059C0F1016191719185
:10553000819191911F01D6012D913D914D915D91E8
:105540006D01F20161907190819091902F01B9D617
:10555000CF54DF4F688379838A839B83C15BD040BC
:10556000A4019301CB54DF4F688179818A819B81AB
:10557000C55BD0400E946434C754DF4F2881398115
:105580004A815B81C95BD04081D79B01AC01CF547C
:10559000DF4F688179818A819B81C15BD04092D63F
:1055A000D8016D937D938D939C931397045F1F4F48
:1055B0004A145B0409F0B9CF4701C154DF4F68803A
:1055C0007980CF5BD040BCE08B0E911CE4E06E0E86
:1055D000711CF4E28F16910409F440C0C354DF4FEC
:1055E000A881B981CD5BD0406D917D918D919D91C8
:1055F000C354DF4FB983A883CD5BD0409B01AC017E
:1056000061D6CB54DF4F688379838A839B83C55BE4
:10561000D0400F2EFDE82F2E312CF02D2C0E3D1EEC
:10562000280C391C0F2EF9E6CF2ED12CF02DCC0EE4
:10563000DD1EC80CD91C8301CF53DF4F4880C15CED
:10564000D040CE53DF4F5880C25CD0407401C1546B
:10565000DF4F79826882CF5BD04067CFAE01475C75
:105660005F4FBE016B5B7F4FCE018D960E94FC1E8B
:105670008E01075C1F4F0F2EF0E5CF2EF4E0DF2EDA
:10568000F02DCB53DF4F2880C55CD040CA53DF4F8D
:105690003880C65CD0407801BCE0EB0EF11CF8010C
:1056A00061917191819191918F01D6014D905D90A1
:1056B0006D907D906D0128E031E244E05DE30E9451
:1056C00064344B015C0120EF3DEB47E75FE3C3012E
:1056D000B2010E9464349B01AC01C501B401F2D552
:1056E000F10161937193819391931F010E151F0531
:1056F000B1F66CE574E0CD53DF4F8881C35CD040D8
:10570000CC53DF4F9881C45CD0400E945C1D60E5A3
:1057100074E0CB53DF4F8881C55CD040CA53DF4F64
:105720009881C65CD0400E943C1DCA53DF4F0FB623
:10573000F894DEBF0FBECDBFDF91CF911F910F91C7
:10574000FF90EF90DF90CF90BF90AF909F908F90A1
:105750007F906F905F904F903F902F90089517BA71
:1057600086E087BB87B3816387BB88B3806388BBD0
:10577000C0988FE58DB908950F931F93CF93DF9352
:1057800000E010E074D0E801CC0FDD1FC355DB4F03
:105790009AAB89AB89A99AA9982F88279AAB89AB2C
:1057A00089A99AA988279AAB89AB61D029A93AA976
:1057B000822B932B9AAB89AB0F5F1F4F06301105DD
:1057C00009F7C0E0D0E0FE01EE0FFF1FE355FB4FED
:1057D00061A972A980E090E0F2D623E333E343E5C8
:1057E00050E40E94643420E030E040E85AE30E9434
:1057F0006434FE01EE0FFF1FEE0FFF1FE754FB4F57
:1058000061AB72AB83AB94AB2196C630D105D9F6B0
:10581000DF91CF911F910F91089586B7806186BF68
:105820001EBC1DBC1CBC88E09DE39BBD8ABD1FBC8B
:1058300085E08EBD10927A00089506B604FEFDCF75
:10584000ECCF08951BB81AB8E5E9F0E01082599A38
:105850008AB188618AB980818E60808387E689B940
:105860001092900008955D9BFECF8CB908955F9BC8
:10587000FECF8CB1089510927100109274008CE0EC
:1058800080937000089584EA80937400E4E7F0E068
:1058900080818823ECF7E1E7F0E08081887F883021
:1058A000E1F708958093730084E880937400A4E77F
:1058B000B0E0E1E7F0E004C08081887F8831E1F763
:1058C0008C918823CCF708958093730084E88093AB
:1058D0007400E4E7F0E080818823ECF7E1E7F0E092
:1058E0008081887F8034E1F708958093730084E895
:1058F00080937400E4E7F0E080818823ECF7E1E72F
:10590000F0E08081887F8832E1F7089584E8809311
:105910007400E4E7F0E080818823ECF7E1E7F0E051
:105920008081887F8835E1F78091730080931E0520
:10593000089584E980937400E4E7F0E0808184FFB7
:10594000FDCF0895E7E2F5E02EE235E09FEF81918B
:105950008FB9779BFECF9BBBAFECB7E01197F1F708
:1059600000C00000E217F30791F70895CF93DF938B
:10597000CDB7DEB7A0970FB6F894DEBF0FBECDBF90
:10598000EEDE60DF0E94E11B0E94982080EF8ABB60
:105990001092DA0487B3816287BB2FEF83ED90E327
:1059A000215080409040E1F700C0000080ED8BBBAB
:1059B00062DFAFEFB1E1EAE7A150B040E040E1F7CC
:1059C00000C00000789410921F05109220051092DC
:1059D00021051092220510922305109224051092A1
:1059E0002505109226050F2EFDEAAF2EF4E0BF2EFE
:1059F000F02D0F2EFEE24F2EF5E05F2EF02D0F2E34
:105A0000F4E16F2EF1E07F2EF02D0F2EF0E22F2E1D
:105A1000F1E03F2EF02D88248A94FFDE809126014C
:105A2000843031F4809125018C648093250107C076
:105A3000813029F4809125018C6C80932501C59AD1
:105A4000C098D5019E968C919E97823051F49D9678
:105A50008C91811106C0809125018062809325017F
:105A600005C0809125018F7D8093250180912601BD
:105A7000813049F480911301811105C08091250185
:105A80008B79809325019FE088E10FB6F894A89563
:105A900081BD0FBE91BDA8958AEA8BBBF4DE80EC78
:105AA0008BBB80912401FEDE80E68BBB80912501BB
:105AB0001CDF80EA8BBB3DDFEFE1FEE43197F1F7BD
:105AC00000C0000087E295E08C017C01DCDE909153
:105AD000230180912401890FF7DE18DF80911E05D4
