:100000000C9446000C9465000C9465000C946500FB
:100010000C9465000C9465000C9465000C946500CC
:100020000C9465000C9465000C9465000C946500BC
:100030000C9465000C9465000C9465000C946500AC
:100040000C9465000C946F050C9465000C9465008D
:100050000C9465000C9465000C9465000C9465008C
:100060000C9465000C9465000C9465000C9465007C
:100070000C9465000C9465000C9465000C9465006C
:100080000C9465000C9465000C94650011241FBE4F
:10009000CFEFD0E1DEBFCDBF12E0A0E0B1E0E6E5FA
:1000A000F2E100E00BBF02C007900D92A630B1074D
:1000B000D9F723E0A6E0B2E001C01D92A931B20752
:1000C000E1F70E94DB030C9429090C94000098E0EE
:1000D000262F217076956795382F3170321721F0D1
:1000E00028E0622724E872278695915089F7CB0192
:1000F00008950F931F93CF93DF93182F062FEC01D2
:100100008FEF9FEF04C0BC0189910E9467002C2FE4
:10011000211B2017C0F39C0120953095C901DF9168
:10012000CF911F910F910895FF920F931F93CF933B
:10013000DF93CDB7DEB72A970FB6F894DEBF0FBEB8
:10014000CDBF8C012EE7DC012D93CD0126E0E1E04F
:10015000F1E0DE01119601900D922A95E1F7AE01D2
:100160004F5F5F4FFC019E01295F3F4FDA01FD9019
:10017000FF0CF192A217B307D1F7E0E6D80117966A
:10018000EC93F6E0FF2EE8E0F1E0DE01119601903D
:100190000D92FA94E1F7F8013896DE011196FD9080
:1001A000FF0CF192A217B307D1F7E8E6D8011E962B
:1001B000EC93E6E0FE2EEFE0F1E0DE011196019017
:1001C0000D92FA94E1F7D8011F96FA01F190AF0170
:1001D000FF0CFD92E217F307C1F721E6D80155960F
:1001E0002C93559723E056962C93569720EF5796CD
:1001F0002C935797589627E0FB0101900D922A9572
:10020000E1F76EE10E947900F80190A3878F8EE7F5
:1002100081A32A960FB6F894DEBF0FBECDBFDF9143
:10022000CF911F910F91FF9008951092710080E27D
:100230008093700008951F93CF93DF93E0910001A6
:1002400061157105F1E08F07910518F00197E860DD
:1002500001C0E77FE0930001B0910001D72FA9EC26
:10026000C4EAF4E81B2F1160A15009F4A2C0C093A6
:100270007400E0917400E7FFFCCFE0917100E87F2B
:10028000E0931702E03129F0E83389F3E83009F010
:1002900090C0B0937300F0937400E0917400E7FF96
:1002A000FCCFE0917100E87FE0931702E032E1F2C9
:1002B000E833E9F2E83109F076C0D0937300F093A7
:1002C0007400E0917400E7FFFCCFE0917100E87FDB
:1002D000E0931702E03359F2E83349F2E83209F0CB
:1002E00062C060937300F0937400E0917400E7FFC4
:1002F000FCCFE0917100E87FE0931702E03361F1F9
:10030000E83309F4B4CFE83209F04DC0C09374006B
:10031000E0917400E7FFFCCFE0917100E87FE0938B
:100320001702E03129F0E83309F4A1CFE830D9F51C
:1003300010937300F0937400E0917400E7FFFCCF1A
:10034000E0917100E87FE0931702E03419F1E8349E
:1003500019F0E83341F58BCF60E070E026C0413002
:10036000510509F494E8909374008091740087FF1C
:10037000FCCF80917100887F80931702803521F037
:10038000883589F440E050E08091730081934150BA
:10039000510902C0F90194ECBF01621B730B1416E2
:1003A0001506ECF202C06FEF7FEF84E980937400D2
:1003B00002C06FEF7FEFCB01DF91CF911F910895C6
:1003C000CF92DF92EF92FF920F931F93CF93DF9321
:1003D000EA0189016115710521E08207910510F597
:1003E0006A01EE24D7FCE094FE2CC60ED71EE81E50
:1003F000F91E21E0C216D104E206F10498F0EE24C1
:10040000FF24E61AF70A9801A7010E941B01980130
:100410002E0D3F1DAE014E195F0960E070E081E0D6
:1004200090E002C09801AE01DF91CF911F910F9132
:10043000FF90EF90DF90CF900C941B01CF92DF9252
:10044000EF92FF920F931F93F90120910001611524
:10045000710531E08307910518F00197286001C00C
:10046000277F209300012FE7C22ED12CE12CF12C05
:10047000C62AD72AE82AF92A8A01222717FD2095B9
:10048000322F060F171F281F391F0C151D052E05AB
:100490003F0520F46A01C60ED71E03C02FEFC21A13
:1004A000D20A50910001A72F39ECB4EA44E8315048
:1004B00009F476C0B09374002091740027FFFCCF3C
:1004C00020917100287F20931702203129F02833D2
:1004D00089F3283009F064C050937300409374008E
:1004E0002091740027FFFCCF20917100287F20937A
:1004F00017022032E1F22833E9F2283109F04AC02C
:10050000A0937300409374002091740027FFFCCFE8
:1005100020917100287F209317022033C9F02833DF
:1005200049F22832B9F5609373004093740020912A
:10053000740027FFFCCF20917100287F20931702C1
:10054000203331F0283309F4B5CF283219F503C030
:1005500020E030E021C0C61AD70A20E030E044E8AD
:1005600012C0819180937300409374008091740055
:1005700087FFFCCF80917100887F809317028832BB
:1005800049F42F5F3F4FC601821B930B18161906C3
:1005900044F302C02FEF3FEF84E98093740002C060
:1005A0002FEF3FEFC9011F910F91FF90EF90DF9068
:1005B000CF900895AF92BF92CF92DF92EF92FF92C9
:1005C0000F931F93CF93DF936B017C018A01590135
:1005D000C0E0D0E09501A801C701B6010E941E024B
:1005E0008F3F2FEF920799F0AC01662757FD60957A
:1005F000762FC40ED51EE61EF71E081B190BA80E7B
:10060000B91EC80FD91F1016110624F302C0CFEF70
:10061000DFEFCE01DF91CF911F910F91FF90EF900F
:10062000DF90CF90BF90AF900895CF92DF92EF927E
:10063000FF92C0900602D0900702E0900802F0906E
:10064000090240910A0250910B0260910C027091D4
:100650000D02C416D506E606F70691F420910E02A7
:10066000222371F0B701A6014A5E5F4F6F4F7F4FA3
:1006700040930A0250930B0260930C0270930D0298
:100680009C0146E150E0C701B6010E94DA0226E172
:10069000C20ED11CE11CF11C8CEEC8168FEFD806DF
:1006A000E104F10449F0C0920602D0920702E09200
:1006B0000802F09209020CC080E090E0A1E0B0E0F6
:1006C0008093060290930702A0930802B093090258
:1006D0008091060290910702A0910802B091090250
:1006E0004696A11DB11D0197A240B10540F01092A0
:1006F000060210920702109208021092090281E08D
:1007000080930E02FF90EF90DF90CF900895CF92EC
:10071000DF92EF92FF92C0900A02D0900B02E0901D
:100720000C02F0900D029C0146E150E0C701B601B9
:100730000E94E00126E1C20ED11CE11CF11C8CEEEE
:10074000C8168FEFD806E104F10449F0C0920A02FE
:10075000D0920B02E0920C02F0920D020CC080E0ED
:1007600090E0A1E0B0E080930A0290930B02A09386
:100770000C02B0930D0280910A0290910B02A0919D
:100780000C02B0910D024696A11DB11D0197A24029
:10079000B10540F010920A0210920B0210920C0266
:1007A00010920D02FF90EF90DF90CF900895149873
:1007B000159A1D9A0895CF93DF93CDB7DEB7C95729
:1007C000D1400FB6F894DEBF0FBECDBF8FE08ABB1D
:1007D0008BBB2FEF39E698E1215030409040E1F794
:1007E00000C000001BBA2FEF39E698E121503040DD
:1007F0009040E1F700C000008BBB2FEF39E688E1A5
:10080000215030408040E1F700C000001BBA9FEF4C
:1008100029E638E1915020403040E1F700C0000067
:100820000E9430068DE00E9441068DE00E94410644
:1008300088E40E94410685E60E9441068CE60E94FB
:1008400041068CE60E9441068FE60E94410666E161
:1008500071E0CE018F5A9E4F0E944E06CE018F5AF4
:100860009E4F0E9445066EE371E0CE018F5A9E4F67
:100870000E944E068E01075D1E4F63E671E0C801BF
:100880000E944E0688E10FB6F89481BD11BC0FBEE0
:100890000E94C5058FEF90E722E0815090402040F4
:1008A000E1F700C000000E9415013FEF80E792E0F1
:1008B000315080409040E1F700C000000E94D70313
:1008C0002FEF30E782E0215030408040E1F700C058
:1008D00000007894712C612C9AE0592E25E0422E6C
:1008E000302E212E34E8A32E31E0B32E8E010F5F7F
:1008F0001E4F48EC842E41E0942E5EEDC52EDD2483
:10090000DA94ED2CFD2C5BBA9FEF24E33CE0915090
:1009100020403040E1F700C000004BBA8FEF94E375
:100920002CE0815090402040E1F700C000008DE0B5
:100930000E9441068DE00E94410688E40E94410623
:1009400089E60E944106832D922D0E9445065BBADE
:100950003FEF84E39CE0315080409040E1F700C0DD
:1009600000004BBA2FEF34E38CE021503040804040
:10097000E1F700C0000080910F02882309F475C0E0
:1009800060911002809112026250681B88E192E02F
:100990000E947900E091100220911202F0E032975B
:1009A000E21BF109E85EFD4F208131818217930738
:1009B00009F053C090911802892FC758DE4F9883D1
:1009C000C957D1400E944106C758DE4F9881C95788
:1009D000D1409A35E9F19535F1F1933329F482E963
:1009E0000E94CD05712C39C0911121C06AE172E0DD
:1009F000CE0101960E9494001F926F92BF92AF9217
:100A00001F930F930E945506C8010E9445066394E8
:100A1000CE0101960E944506CE0101960E94150363
:100A20000F900F900F900F900F900F9016C0953D64
:100A3000A1F46AE172E0CE0101960E9494008AEA74
:100A400091E00E944506CE0101960E94450605C030
:100A50007724739402C082E0782E109212021092D2
:100A600011021092100210920F0292E079122AC025
:100A7000CE0101960E9487031F926F929F928F92E0
:100A80001F930F930E945506C8010E9445060F90C0
:100A90000F900F900F900F900F90809113029091F4
:100AA0001402A0911502B0911602892B8A2B8B2B70
:100AB00061F4C0921302D0921402E0921502F092F7
:100AC000160203C021E072121ECF62E2CE0101962F
:100AD0000E94DC058DEE91E00E94450614CF1F9226
:100AE0000F920FB60F9211240BB60F928F93EF93C4
:100AF000FF938FB18093180380910F0281112BC057
:100B000080911102823038F1E0911002F0E0809182
:100B10001803E85EFD4F8083E0911002F0E0E85E8C
:100B2000FD4F80818A3A31F4809112028F5F809369
:100B3000120205C08091120281111092120280915E
:100B40001202823019F481E080930F02809110022A
:100B50008F5F8093100280911803873E31F480915B
:100B600011028F5F8093110206C0809111028230C2
:100B700010F410921102FF91EF918F910F900BBE24
:100B80000F900FBE0F901F90189587B3807F87BB83
:100B900088E087BB80EC8DB908958FB9779BFECF35
:100BA0008FB108950C99FECF811102C01D9801C02C
:100BB0001D9A0C9BFECF08956F927F928F929F9209
:100BC000AF92BF92CF92DF92EF92FF920F931F935B
:100BD000CF93DF931F92CDB7DEB7182F962E81E00B
:100BE00099830E94D205612E9981792EC12CD12C36
:100BF000092D10E00150110920C0F301A1903F011F
:100C000098E0B92EED2CF12C80E8882E8A20882DD2
:100C10000E94D205DD2069F0E016F10651F088202F
:100C200039F0C394F5E0CF1204C080E00E94D205F1
:100C3000C12CAA0CBA9441F7D394D910DECF1D9AD7
:100C40000F90DF91CF911F910F91FF90EF90DF9068
:100C5000CF90BF90AF909F908F907F906F900895AE
:100C60001BB81AB8E5E9F0E01082599A8AB1886198
:100C70008AB980818E60808387E689B9109290005E
:100C800008955D9BFECF8CB90895FC0103C05D9B68
:100C9000FECF8CB981918111FACF0895FB01DC015F
:100CA00001900D920020E1F708950F931F93CF93C9
:100CB000DF93CDB7DEB72E970FB6F894DEBF0FBE29
:100CC000CDBF0D891E8986E08C831A8309838FEF3F
:100CD0009FE79E838D83CE014996AC016F89788D05
:100CE000CE0101960E948406EF81F885E00FF11F86
:100CF00010822E960FB6F894DEBF0FBECDBFDF91E7
:100D0000CF911F910F9108952F923F924F925F9232
:100D10006F927F928F929F92AF92BF92CF92DF920B
:100D2000EF92FF920F931F93CF93DF93CDB7DEB770
:100D30002C970FB6F894DEBF0FBECDBF7C016B01C0
:100D40008A01FC0117821682838181FFC6C1882433
:100D50008394912C8C0E9D1EF7019381F60193FDD7
:100D6000859193FF81916F01882309F4B2C1853287
:100D700039F493FD859193FF81916F01853229F4B8
:100D8000B70190E00E949F08E7CF512C312C20E062
:100D90002032A8F48B3261F028F4803251F0833293
:100DA00071F40BC08D3239F0803349F4216028C0D2
:100DB0002260246025C0286023C0206121C027FD57
:100DC00027C0382F30533A3078F426FF06C0FAE0B7
:100DD0005F9E300D1124532E13C08AE0389E300DD3
:100DE0001124332E20620CC08E3221F426FD71C1F5
:100DF000206406C08C3611F4206802C0883641F4A5
:100E0000F60193FD859193FF81916F018111C0CF10
:100E1000982F9554933018F09052933028F40C5F2B
:100E20001F4FFFE3F9830DC0833631F0833771F034
:100E3000833509F05EC023C0F801808189830E5F8D
:100E40001F4F44244394512C540115C03801F2E043
:100E50006F0E711CF801A080B18026FF03C0652DC4
:100E600070E002C06FEF7FEFC5012C870E949408ED
:100E70002C0183012C856FE7262E222218C0380111
:100E8000F2E06F0E711CF801A080B18026FF03C054
:100E9000652D70E002C06FEF7FEFC5012C870E94C7
:100EA00089082C012C8550E8252E222A830123FC59
:100EB0001CC006C0B70180E290E00E949F083A94EF
:100EC000832D90E048165906A8F30FC0F50127FCC2
:100ED000859127FE81915F01B70190E00E949F08F4
:100EE00031103A94F1E04F1A51084114510471F74E
:100EF000EDC0843611F0893641F5F80127FF07C0AF
:100F000060817181828193810C5F1F4F08C0608175
:100F10007181882777FD8095982F0E5F1F4F4FE6D0
:100F2000B42EB22297FF09C0909580957095619577
:100F30007F4F8F4F9F4FF0E8BF2A2AE030E0A40197
:100F40000E94CB08A82EA81843C0853731F43FEE85
:100F5000B32EB2222AE030E024C099EFB92EB2229B
:100F60008F36B9F020F4883509F0B3C00DC0803752
:100F700021F0883709F0ADC002C020E1B22AB4FEEA
:100F80000BC084E0B82A08C024FF09C0E6E0BE2AEE
:100F900006C028E030E005C020E130E002C020E1DA
:100FA00032E0F801B7FE07C06081718182819381D0
:100FB0000C5F1F4F06C06081718180E090E00E5F82
:100FC0001F4FA4010E94CB08A82EA818FFE7BF223C
:100FD000B6FE0BC02B2D2E7FA51450F4B4FE0AC014
:100FE000B2FC08C02B2D2E7E05C07A2C2B2D03C001
:100FF0007A2C01C0752C24FF0DC0FE01EA0DF11DF5
:101000008081803311F4297E09C022FF06C07394C9
:10101000739404C0822F867809F0739423FD14C062
:1010200020FF0FC05A2C731460F4530C5718732C04
:1010300008C0B70180E290E02C870E949F0873945B
:101040002C857314B0F304C0731410F4371801C066
:10105000312C24FF12C0B70180E390E02C870E945E
:101060009F082C8522FF1EC021FF03C088E590E069
:1010700002C088E790E0B7010CC0822F867891F01B
:1010800021FD02C080E201C08BE227FD8DE2B701A5
:1010900090E00E949F0806C0B70180E390E00E94A4
:1010A0009F085A94A514C0F3AA94F401EA0DF11D07
:1010B000B701808190E00E949F08A110F5CF06C083
:1010C000B70180E290E00E949F083A943110F8CF77
:1010D00043CEF7012681378102C02FEF3FEFC901D0
:1010E0002C960FB6F894DEBF0FBECDBFDF91CF9127
:1010F0001F910F91FF90EF90DF90CF90BF90AF9036
:101100009F908F907F906F905F904F903F902F9027
:101110000895FC010590615070400110D8F780954A
:1011200090958E0F9F1F0895FC01615070400190B3
:101130000110D8F7809590958E0F9F1F08950F93FB
:101140001F93CF93DF938C01EB018B8181FD03C053
:101150000FEF1FEF1AC082FF0DC02E813F818C81DF
:101160009D812817390764F4E881F9810193F98397
:10117000E88306C0E885F985802F0995892B41F71A
:101180008E819F8101969F838E83C801DF91CF91CD
:101190001F910F910895FA01AA27283051F12031AB
:1011A00081F1E8946F936E7F6E5F7F4F8F4F9F4FFB
:1011B000AF4FB1E03ED0B4E03CD0670F781F891F3D
:1011C0009A1FA11D680F791F8A1F911DA11D6A0F0B
:1011D000711D811D911DA11D20D009F468943F91BE
:1011E0002AE0269F11243019305D3193DEF6CF01BD
:1011F0000895462F4770405D4193B3E00FD0C9F783
:10120000F6CF462F4F70405D4A3318F0495D31FDEF
:101210004052419302D0A9F7EACFB4E0A695979542
:10122000879577956795BA95C9F700976105710518
:1012300008959B01AC010A2E069457954795379562
:101240002795BA95C9F7620F731F841F951FA01DBC
:061250000895F894FFCFA1
:10125600A643512020202000565532444D510052BD
:10126600454C41592000092E2E5468697320697334
:10127600204949544227732053747564656E74205F
:10128600536174656C6C6974652E2E2E0D000954BD
:10129600686973206973204855535341494E277333
:1012A600204F42432D536C61766520636F64652E33
:1012B6002E2E000D436F6D6D616E64207265636541
:1012C600697665642066726F6D204D617374657210
:1012D600203A090044617461207772697474656EFE
:1012E60020746F20454550524F4D203A20256420EA
:1012F6007468206672616D6509000D446174612031
:1013060072656365697665642066726F6D204D61EE
:1013160073746572203A09004461746120726561D4
:10132600642066726F6D20454550524F4D203A201D
:101336002564207468206672616D6509000D54721B
:10134600616E736D697373696F6E20636F6D706C18
:061356006574650D000046
:00000001FF
