:10000000E5C3000002C4000000C40000FEC30000FD
:10001000FCC30000FAC30000F8C30000F6C30000F0
:10002000F4C30000F2C30000F0C30000EEC3000000
:10003000ECC30000EAC30000E8C30000E6C3000010
:10004000E4C30000E2C300000C942E12DEC30000E3
:10005000DCC30000DAC30000D8C30000D6C3000030
:10006000D4C30000D2C30000D0C30000CEC3000040
:10007000CCC30000CAC300000C94FB1BC6C3000025
:10008000C4C30000C2C30000C0C300003B0CE10BAE
:10009000EA0BF30BFC0B050C0E0C170C200C290CB7
:1000A000320C036EDB363D9A9999993DABAAAA2A88
:1000B0003E000000803F084AD73B3BCE016E84BC27
:1000C000BFFDC12F3D6C74319ABD56833DDA3D00B2
:1000D000C77F11BED9E4BB4C3E916BAAAABE0000FB
:1000E00000803F072C7AA5BA6CC590DA3B9365FC7B
:1000F0008BBC53F810FD3C5692834DBD879D3AB69C
:100100003DCBC9BF5BBE73DA0FC93F05A84CCDB26A
:10011000D44EB93836A9020C50B9918688083CA64D
:10012000AAAA2ABE000000803F07634236B79BD8C8
:10013000A71A39685618AEBAAB558C1D3CB7CC57C8
:1001400063BD6DEDFD753EF6177231BF0000008096
:100150003F08000000BE922449123EABAAAA2ABE64
:10016000CDCCCC4C3E00000080BEABAAAAAA3E007B
:10017000000000BF000000803F00000000000841B8
:1001800078D3BB4387D1133D190E3CC3BD4282AD2A
:100190002B3E68EC8276BED98FE1A93E4C80EFFF02
:1001A000BE01C4FF7F3F000000000000000000000F
:1001B000CDCC2441CDCC9041CDCCD4C133330BC177
:1001C000333353C03333DBC1666606409A9961C14D
:1001D0009A9959400000B0C033330341333333BFE1
:1001E000CDCCCCBE9A9921C16666E63F333333BF8E
:1001F000CDCC4C3E6666A6BF9A9911C19A99A9408A
:10020000333383409A9939409A9989C06666A6C06B
:10021000CDCC4CBE0000003F9A99193F6666A6BF40
:100220009A99D93FCDCCCCBD9A9999BF3333B33F7E
:100230009A9959409A997940000000009A9999BE7C
:10024000CDCCCCBD00000000333333BF666606C0A2
:1002500066660640333333BF9A9999BFCDCC4C3E86
:100260009A99993E6666663FCDCCCC3F0000803FB0
:100270009A99993ECDCC4CBECDCC4C3F000000BFEE
:10028000CDCCCC3E6666A63FCDCC4CBECDCCCC3DD5
:100290009A9999BE9A9919BF9A9919BFCDCC4CBF1A
:1002A000CDCCCC3DCDCC4C3ECDCC4CBECDCC4C3EC3
:1002B000000000009A9999BE9A9919BF9A99993E9F
:1002C0000000003FCDCCCC3DCDCC4CBE0000003F6B
:1002D000CDCCCC3ECDCC4CBECDCCCC3D9A9999BEAC
:1002E000CDCCCCBE9A99993E9A99993E00000000D7
:1002F00000000000000000000000000000000000FE
:1003000000000000000000000000000000000000ED
:1003100000000000000000000000000000000000DD
:1003200000000000000000000000000000000000CD
:1003300000000000000000000000000000000000BD
:1003400000000000000000000000000000000000AD
:10035000000000000000000000000000000000009D
:10036000000000000000000000000000000000008D
:10037000000000000000000000000000000000007D
:10038000000000000000000000000000000000006D
:10039000000000000000000000000000000000005D
:1003A000000000000000000000000000000000004D
:1003B000000000000000000000000000000000003D
:1003C000000000000000000000000000000000002D
:1003D000000000000000000000000000000000001D
:1003E000000000000000000000000000000000000D
:1003F00000000000000000000000000000000000FD
:1004000000000000000000000000000000000000EC
:1004100000000000000000000000000000000000DC
:1004200000000000000000000000000000000000CC
:1004300000000000000000000000000000000000BC
:1004400000000000000000000000000000000000AC
:10045000000000000000000000000000000000009C
:10046000000000000000000000000000000000008C
:10047000000000000000000000000000000000007C
:10048000000000000000000000000000000000006C
:10049000000000000000000000000000000000005C
:1004A000000000000000000000000000000000004C
:1004B000000000000000000000000000000000003C
:1004C0000004E6C600A0BBC4CDE895459AD118C586
:1004D000664E3C459AD931C56696D1449A7920C476
:1004E00066D6A844CD0413C59A99E6C2333399441D
:1004F00066E67443008011449A9906C466E6624435
:10050000CD6C4B4466A68D43CDCCF04233B33CC397
:100510003373A7C366E63443CDCC8C4200C0A4C37A
:100520009A9968C3CD0CB44333333D426666404369
:100530000000454366E60CC39A99EEC200801DC3D5
:1005400000008041333383406666C84200008C421D
:10055000666687426666A6C166669142CDCC044255
:1005600066E601C39A996B423333E7C1666685C27A
:10057000333353419A99E940CDCC8DC266667A42B5
:100580003333A342333398C2666658C29A99D9C0AE
:1005900000009CC133334F426666B6400000704194
:1005A0003333C341666616419A995940333333C099
:1005B0003333DBC19A99D940CDCC0CC09A99C14153
:1005C000CDCC0C419A992141333387C1666692C1E3
:1005D000CDCC4CC0CDCC5441CDCCA4C19A9969C1ED
:1005E000666656419A99814133333B416666B6400F
:1005F00066667EC19A9911C1000000C06666064019
:10060000CDCCAC40CDCC0C41CDCCACC16666464027
:10061000CDCC2C41333353C0CDCC3C413333333F6D
:100620009A99D9C0CDCC54C1CDCCDCC0CDCCCCBDF9
:100630009A99F94033330B410000803F9A9911C1D8
:10064000000080C0000028C1666606413333F3BF56
:100650009A99C9C0CDCC4C40CDCCCC3DCDCCCCBEF4
:100660000000003F33339340000000BFCDCC8C40EE
:100670006666E63FCDCCFCC0333333BF9A9919BFD1
:1006800066660640666686C09A991940333333C061
:100690006666E6BF9A9999BF666666C033330BC13A
:1006A000666646400000C0BFCDCCCCBD333313C01E
:1006B0000000004000000040333333BFCDCC4CBFBE
:1006C000CDCC8CBF9A99193FCDCC4C3F333333BF3F
:1006D000CDCC4CBECDCC4C3ECDCC0CC09A99D93FA4
:1006E0003333B3BFCDCC4CBE000020C0CDCCCC3E0C
:1006F000000000C0000060409A9919C03333F3BF76
:10070000CDCC4CBECDCC8CBFCDCCCC3ECDCCCC3E1C
:100710009A99993F3333F33FCDCC4CBFCDCC0CC02D
:100720006666663F9A99993ECDCCCC3D3333333FD4
:100730000000003FCDCCCCBD9A9999BE9A99993EC4
:10074000CDCCCCBECDCC4C3ECDCC4C3E666666BF4F
:10075000666666BFCDCCCCBD000000003333333FAE
:1007600000000000666666BF666666BFCDCCCC3E04
:10077000CDCCCC3E0000003FCDCCCC3F000000BF34
:10078000000000BF0000803F9A9999BFCDCC4CBEBD
:10079000CDCCCCBDCDCC4C3FCDCCCC3ECDCCCCBD4E
:1007A000CDCCCCBD9A99993ECDCCCC3ECDCCCC3DD8
:1007B0000000003F0000003F9A9999BECDCCCCBE0E
:1007C000CDCCCCBE9A9999BECDCC4CBF11241FBEC6
:1007D000CFEFD0E1DEBFCDBF11E0A0E0B1E0E4E1BA
:1007E000FEE600E00BBF02C007900D92A23AB107EF
:1007F000D9F725E0A2EAB1E001C01D92AC33B207FF
:10080000E1F70E94242D0C940837FACB2F923F92E7
:100810004F925F926F927F928F929F92AF92BF9210
:10082000CF92DF92EF92FF920F931F93CF93DF93BC
:10083000CDB7DEB76C970FB6F894DEBF0FBECDBF55
:100840009C8F8B8F8091100590911105A0911205BE
:10085000B09113058093030290930402A0930502C4
:10086000B09306028091140590911505A09116058C
:10087000B0911705B0588093FF0190930002A093A8
:100880000102B09302028091180590911905A09180
:100890001A05B0911B058093FB019093FC01A09376
:1008A000FD01B093FE0180910801882349F062EABE
:1008B00071E08BEF91E00E94EB1C1092080189C05F
:1008C0000BEF11E00F2EF2EAAF2EF1E0BF2EF02D6C
:1008D0001E018DE0280E311CFE013196FA8FE98F42
:1008E0000F2EF7E08F2EF2E09F2EF02DF801C19031
:1008F000D190E190F1908F01F5014190519061907C
:1009000071905F01A3019201C701B6010E949B3162
:1009100020E030E040E05FE30E949E34F10161930B
:100920007193819391931F01A3019201C701B601B5
:100930000E949C3120E030E040E05FE30E949E3462
:10094000E98DFA8D6193719381939193FA8FE98F79
:100950000815190559F6CE0101960E941A1D9B0132
:10096000AC0160E070E080E89FEB0E9480326B0198
:100970007C019B01AC016D857E858F8598890E94E5
:100980009E34EB8DFC8D6083718382839383A701FA
:10099000960169897A898B899C890E949E34EB8DA6
:1009A000FC8D6483758386839783A70196016D8987
:1009B0007E898F89988D0E949E34EB8DFC8D608797
:1009C00071878287938762EA71E08BEF91E00E94E2
:1009D000EB1C6C960FB6F894DEBF0FBECDBFDF9157
:1009E000CF911F910F91FF90EF90DF90CF90BF902C
:1009F000AF909F908F907F906F905F904F903F90BF
:100A00002F9008952F923F924F925F926F927F9214
:100A10008F929F92AF92BF92CF92DF92EF92FF920E
:100A20000F931F93CF93DF93CDB7DEB7E3970FB646
:100A3000F894DEBF0FBECDBF9BAB8AAB60911005B3
:100A400070911105809112059091130520E030E41A
:100A50004CE156E40E9480326093030270930402DA
:100A6000809305029093060260911405709115051C
:100A7000809116059091170520E030E44CE156E492
:100A80000E948032DC01CB01B0588093FF0190932B
:100A90000002A0930102B0930202609118057091C8
:100AA000190580911A0590911B0520E030E44CE176
:100AB00056E40E9480326093FB017093FC018093A6
:100AC000FD019093FE018BEF91E00E941A1D2B0116
:100AD0003C018090900490909104A0909204B0907A
:100AE00093040F2EF4E8EF2EF4E0FF2EF02DCE014C
:100AF00001969E878D870F2EF0E9CF2EF4E0DF2E32
:100B0000F02D03EE11E01C01F701619171918191CB
:100B100091917F019B01AC010E949C31A501940140
:100B20000E949E34D1016D937D938D939D931D0101
:100B30009B01AC010E949C319B01AC01F8016081DA
:100B40007181828193810E949C31D8016D937D9344
:100B50008D939D938D01EC14FD04B1F6A3019201D8
:100B6000C301B2010E949E346AA77BA78CA79DA7F0
:100B7000EEEAF1E0FFA3EEA3212C312C0F2EF3EED1
:100B8000CF2EF1E0DF2EF02DCEA6D601BFA7CD846B
:100B9000C8AADE84D9AA3D8E2C8EEEA0FFA0F9A6AD
:100BA000E8A68FEE91E0988F8F8BAC8DBD8DAC5DFC
:100BB000BE4FBA8FA98FEC8DFD8DE85BFE4FFE8B8B
:100BC000ED8BCEA4C98ADFA4DA8A8C8D9D8D8459E1
:100BD0009E4F9C8B8B8BC8A8CF86D9A8D88A03E060
:100BE0001B8E212C312C10E0AF85B8896D917D9141
:100BF0008D919D91B88BAF87EB89FC8921913191C3
:100C000041915191FC8BEB8BA989BA898D909D9074
:100C1000AD90BD90BA8BA98BED89FE894190519022
:100C200061907190FE8BED8BAF89B88DCD90DD908A
:100C3000ED90FD90B88FAF8BCE8EDF8EE8A2F9A23B
:100C4000A98DBA8DCD90DD90ED90FD90BA8FA98FD2
:100C5000CAA2DBA2ECA2FDA20E949E346B017C0121
:100C6000A3019201C501B4010E949E349B01AC0115
:100C7000C701B6010E949C316B017C012AA13BA1F6
:100C80004CA15DA16E8D7F8D88A199A10E949E349B
:100C90009B01AC01C701B6010E949C312B8D322D06
:100CA000432D512F0E949C31015029F06B8F272E2C
:100CB000382E192F99CF2AA53BA54CA55DA50E94DA
:100CC0008032E8A5F9A560837183828393838EA126
:100CD0009FA104969FA38EA3AC8DBD8D1C96BD8F46
:100CE000AC8F949709F059CF4AA95BA96BEF71E0DB
:100CF0008EEA91E00E94981E6091E20170E080E02F
:100D000090E00E941933AB01BC018AA99BA90E9403
:100D1000191FE3960FB6F894DEBF0FBECDBFDF916B
:100D2000CF911F910F91FF90EF90DF90CF90BF90E8
:100D3000AF909F908F907F906F905F904F903F907B
:100D40002F9008954F925F926F927F929F92AF92F1
:100D5000BF92CF92DF92EF92FF920F931F93CF93A8
:100D6000DF938C01EC010F2EF3E09F2EF02D4880D5
:100D700059806A807B8073016201E894F7F823E36D
:100D800033E343E75FE3C701B6010E9493341816CB
:100D9000FCF4A3019201C701B6010E94803220E059
:100DA00030E040E85FEB0E947932811109C083E3B3
:100DB00093E3A3E7BFEB88839983AA83BB8308C02F
:100DC00083E393E3A3E7BFE388839983AA83BB8389
:100DD0009A9424969110CBCF45ED5FE061EC7EE3D1
:100DE000C8010E94191FE8010F2EF3E09F2EF02D7D
:100DF000488059806A807B8073016201E894F7F82B
:100E000028EA36EC4BE85EE3C701B6010E94933452
:100E10001816FCF4A3019201C701B6010E948032AA
:100E200020E030E040E85FEB0E947932811109C098
:100E300088EA96ECABE8BEEB88839983AA83BB83F0
:100E400008C088EA96ECABE8BEE388839983AA835E
:100E5000BB839A9424969110CBCF7801C0E0D0E068
:100E6000D7016D917D918D919D917D0126E03FEFA0
:100E700049E75CE40E949E340E94E832B72EC82EF7
:100E8000D92E862F992787FD90950E94992C8B2D1E
:100E9000992787FD90950E94992C8C2D992787FD85
:100EA00090950E94992C8D2D992787FD90950E94F1
:100EB000992C2196C330D10599F68091220199276A
:100EC00087FD90950E94992C8091BE01992787FDFE
:100ED00090950E94992CF801C080D180E280F38027
:100EE00020E030E0A901C701B6010E949334181632
:100EF000C4F420E03FEF4FE757E4C701B6010E947A
:100F00009E3428EA36EC4BE85EE30E9480329F77FD
:100F10000E94ED32709324056093230510922905F9
:100F20001EC028EA36EC4BE85EE3C701B6010E941A
:100F3000803220E030E040E85FE30E949C3120E016
:100F40003FEF4FE757E40E949E349F770E94ED32B7
:100F5000709324056093230581E080932905D801CF
:100F60001496CD90DD90ED90FC90179720E030E046
:100F7000A901C701B6010E9493341816C4F420E0F9
:100F80003FEF4FE757E4C701B6010E949E3428EABD
:100F900036EC4BE85EE30E9480329F770E94ED3290
:100FA000709326056093250510922A051EC028EA35
:100FB00036EC4BE85EE3C701B6010E94803220E0C8
:100FC00030E040E85FE30E949C3120E03FEF4FE7D4
:100FD00057E40E949E349F770E94ED32709326055D
:100FE0006093250581E080932A05F801C084D184AF
:100FF000E284F38420E030E0A901C701B6010E9439
:1010000093341816C4F420E03FEF4FE757E4C701CC
:10101000B6010E949E3428EA36EC4BE85EE30E945B
:1010200080329F770E94ED327093280560932705E8
:1010300010922B051EC028EA36EC4BE85EE3C70190
:10104000B6010E94803220E030E040E85FE30E9479
:101050009C3120E03FEF4FE757E40E949E349F779A
:101060000E94ED32709328056093270581E08093FC
:101070002B0580EA8BBBDF91CF911F910F91FF90E1
:10108000EF90DF90CF90BF90AF909F907F906F9048
:101090005F904F9008952F923F924F925F926F9280
:1010A0007F928F929F92AF92BF92CF92DF92EF92F8
:1010B000FF920F931F93CF93DF93CDB7DEB7E097E7
:1010C0000FB6F894DEBF0FBECDBF0E942E208FEC6E
:1010D00097E00197F1F700C000000E94D11F8091B6
:1010E0002201843021F4CE0101962CDE05C081302E
:1010F00019F4CE010D9626DE0E94FD1FCE01019649
:1011000085DB8091100590911105A0911205B09199
:1011100013058093030290930402A0930502B093F9
:1011200006028091140590911505A0911605B091C5
:101130001705B0588093FF0190930002A09301021D
:10114000B09302028091180590911905A0911A059B
:10115000B0911B058093FB019093FC01A093FD01CE
:10116000B093FE018091BE019091BF01029759F4A6
:101170000E94CC1F9FEFE9E628E19150E04020401B
:10118000E1F700C0000080912301813019F40E9432
:10119000422065C02091A0043091A1044091A20496
:1011A0005091A3046091A4047091A5048091A604B9
:1011B0009091A704A2E00E94D6362093A004309319
:1011C000A1044093A2045093A3046093A4047093D9
:1011D000A5048093A6049093A704209198043091CD
:1011E000990440919A0450919B0460919C047091E1
:1011F0009D0480919E0490919F040E94D636209376
:1012000098043093990440939A0450939B046093FC
:101210009C0470939D0480939E0490939F04E1EE40
:10122000F4E080818E5F808380818B3338F0109270
:10123000E104E0EEF4E080818F5F80838091E00440
:101240008C3338F01092E004EFEDF4E080818F5F92
:1012500080838091DF04883110F01092DF040E94B7
:10126000CE1F0E9433248093E201809123018F3F9F
:1012700009F443C00E944A22CE0149960E94E92205
:10128000CE0185960E94B82321EE31E044E854E077
:10129000BE01675E7F4FCE0185960E9458248093E1
:1012A000E2016FEE71E084E894E00E9453286091BF
:1012B000E2018091E101689FB0011124882777FD48
:1012C0008095982F0E941B33AB01BC018FEE91E0FB
:1012D0000E94191F8FEE91E00E941A1D60939404E2
:1012E00070939504809396049093970484E894E017
:1012F0000E94A41FCE010D9685DB8091D401883712
:10130000D4F420912D0530912E0540912F05509158
:1013100030056091310570913205809133059091CF
:1013200034052032314A4740510561057105810578
:101330009105A1F198F11092C2011092C30110928F
:10134000C4011092C50189E78093D4018091E20124
:101350008130B1F48091BA019091BB0102969093D3
:10136000BB018093BA011092BD011092BC0160EDE7
:1013700072E00E948C369093D3018093D201EEC02C
:101380001092D3011092D2018091BC019091BD01C5
:1013900002969093BD018093BC01E0C0CE010196FE
:1013A0000E941A1D6B017C016093CE017093CF01E6
:1013B0008093D0019093D1016091E20170E080E0D0
:1013C00090E00E941B339B01AC01C701B6010E9453
:1013D0009E346B017C016093CA017093CB018093B2
:1013E000CC019093CD0120E030E0A9010E94793238
:1013F000882309F460C000910401109105010230B6
:101400001105A9F4A7019601C701B6010E949C31FC
:1014100020E030E040E05FE30E949E346093C20130
:101420007093C3018093C4019093C5012CC0B8018F
:101430006150710980E090E00E9419332091C6014B
:101440003091C7014091C8015091C9010E949E345A
:101450009B01AC01C701B6010E949C316B017C016C
:10146000B80180E090E00E9419339B01AC01C701F4
:10147000B6010E9480326093C2017093C3018093D1
:10148000C4019093C5010F5F1F4F10930501009396
:101490000401C090C201D090C301E090C401F0905B
:1014A000C50120E030E0A901C701B6010E947932F0
:1014B000811110C01AC082E090E0909305018093E2
:1014C00004011092C2011092C3011092C401109243
:1014D000C5010BC02AE037ED43E25DE3C701B60169
:1014E0000E947932882384F019C020E030E0A901FD
:1014F0006091C6017091C7018091C8019091C901A6
:101500000E947932882351F08091C0019091C101ED
:1015100002969093C1018093C00104C01092C10152
:101520001092C0016091C0017091C10180E090E013
:101530000E94193320910001309101014091020174
:10154000509103010E949334181634F48091D40111
:101550008E5F8093D40102C01092D4018091C201A9
:101560009091C301A091C401B091C5018093C601BF
:101570009093C701A093C801B093C90182E090E0A5
:101580009093BF018093BE01C0909404D0909504C5
:10159000E0909604F09097042FE632E143E85BE395
:1015A000C701B6010E9479328823BCF49091E20110
:1015B0008091E101989FC0011124019771F48091FD
:1015C000DF019091E00101969093E0018093DF01AB
:1015D0001092DE011092DD0117C02FE632E143E0E8
:1015E0005CE3C701B6010E94933418166CF4809135
:1015F000DD019091DE0101969093DE018093DD0183
:101600001092E0011092DF0120902D0530902E0500
:1016100040902F0550903005609031057090320554
:101620008090330590903405222D332D442D552D77
:10163000662D772D882D992D233F31404105510589
:10164000610571058105910509F0A0F484E080939E
:1016500022011092D5011092D6011092D70110925A
:10166000D8011092D9011092DA011092DB01109288
:10167000DC0177C08091D40118165CF580912201BD
:10168000843039F5A091DF01B091E001E0910601CD
:10169000F0910701EA17FB07C4F481E0809322016F
:1016A0002092D5013092D6014092D7015092D801B4
:1016B0006092D9017092DA018092DB019092DC0194
:1016C0001092E0011092DF0104C01092DE0110922E
:1016D000DD0180912201813009F043C0A091DD013C
:1016E000B091DE01E0910601F0910701EA17FB07D6
:1016F000A4F52091D5013091D6014091D7015091A8
:10170000D8016091D9017091DA018091DB0190914B
:10171000DC01205F384D4F4F5F4F6F4F7F4F8F4F32
:101720009F4FA22EB32EC42ED52EE62EF72E082FB5
:10173000192F222D332D442D552D662D772D882DD3
:10174000992D0E94EB3649F040F084E0809322010D
:101750001092DE011092DD0104C01092E00110929F
:10176000DF018091BE018093E904E0960FB6F89402
:10177000DEBF0FBECDBFDF91CF911F910F91FF90C4
:10178000EF90DF90CF90BF90AF909F908F907F9021
:101790006F905F904F903F902F90089590E0FC01E4
:1017A0003297EB30F10520F4EA5BFF4F0C949F3643
:1017B00020E030E040E050E060E070E080E090E069
:1017C00008952BE330E040E050E060E070E080E01E
:1017D00090E008952AE530E040E050E060E070E0FD
:1017E00080E090E0089528E730E040E050E060E0DD
:1017F00070E080E090E0089527E930E040E050E0BC
:1018000060E070E080E090E0089525EB30E040E09B
:1018100050E060E070E080E090E0089524ED30E07A
:1018200040E050E060E070E080E090E0089523EF59
:1018300030E040E050E060E070E080E090E008954B
:1018400021E131E040E050E060E070E080E090E0D5
:10185000089520E331E040E050E060E070E080E097
:1018600090E008952EE431E040E050E060E070E068
:1018700080E090E008952FE130E040E050E060E04B
:1018800070E080E090E008952F923F924F925F9237
:101890006F927F928F929F92AF92BF92CF92DF9280
:1018A000EF92FF920F931F93CF93DF93CDB7DEB7E5
:1018B00067970FB6F894DEBF0FBECDBF1C01862F11
:1018C0004B83522EA02E6ADF2C833D834E835F8391
:1018D000688779878A879B872E2D30E040E050E02B
:1018E00060E070E080E090E020583C4544495B4C6B
:1018F0006E40710981099109722E832E942E652EF6
:10190000B62FA72FF82FE92F202F30E040E050E02E
:1019100060E070E080E090E004E00E94B436B12C1A
:10192000C12CD12CE12CF12C00E010E00E94E23619
:1019300002E00E94B436A22EB32EC42ED52EE62E7F
:10194000F72E082F192F272D382D492D562D6B2FA7
:101950007A2F8F2F9E2F0E94CD36622E732E842ECB
:10196000952E462EB72FA82FF92F252D30E040E0D9
:1019700050E060E070E080E090E004E00E94B43667
:10198000A52CB12CC12CD12CE12CF12C00E010E0C5
:101990000E94E236A22EB32EC42ED52EE62EF72EAE
:1019A000E82F192F04E00E94B4360E2F0E94E23671
:1019B00004E00E94B436A22EB32EC42ED52EE62EFD
:1019C000F72E082F192F262D372D482D592D642D30
:1019D0007B2F8A2F9F2F0E94CD36F22F3D874E8777
:1019E0005F87688B798B8A8B9B8B222D332D40E010
:1019F00050E060E070E080E090E003E00E94B436E8
:101A0000E22F3A834F8B5C8BB62FA72F8D8B9E8B4B
:101A10000E94B436A22EB32EC42ED52EE62EF72E5B
:101A2000082F192F2E2F3A814F895C896B2F7A2F1F
:101A30008D899E890E94CD36A22CB32CC12CD12C2D
:101A4000E12CF12C00E010E00E94CD36A22EB32E46
:101A5000C42ED52EE62EF72EE82F192F04E00E9473
:101A6000B4360E2F0E94E236A22EB32EC42ED52EEF
:101A7000E62EF72EE82F192F04E00E94B4360E2F21
:101A80000E94E236A22EB32EC42ED52EE62EF72EBD
:101A9000E82F192F04E00E94B4360E2F0E94E23680
:101AA00007E00E94B436A22EB32EC42ED52EE62E09
:101AB000F72E082F192F2F2F3D854E855F856889BA
:101AC00079898A899B890E94CD36722E832E942E25
:101AD000B52F662E572EF82FE92F2B8130E040E0EE
:101AE00050E060E070E080E090E0AFEF0E94D6361A
:101AF000AC80BD80CE80DF80E884F9840A851B85B8
:101B00000E94CD36A22EB32EC42ED52EE62EF72E51
:101B1000A82F192F02E00E94B4360A2F0E94E23645
:101B2000A22EB32EC42ED52EE62EF72EA82F192FB7
:101B300004E00E94B4360A2F0E94E236A22EB32E91
:101B4000C42ED52EE62EF72EA82F192F04E00E94C2
:101B5000B4360A2F0E94E23607E00E94B436A22E65
:101B6000B32EC42ED52EE62EF72E082F192F272D93
:101B7000382D492D5B2F662D752D8F2F9E2F0E949E
:101B8000CD3667960FB6F894DEBF0FBECDBFDF919E
:101B9000CF911F910F91FF90EF90DF90CF90BF906A
:101BA000AF909F908F907F906F905F904F903F90FD
:101BB0002F900895AF92BF92CF92DF92EF92FF9253
:101BC0000F931F93CF93DF93E12C0EE124E044E1C8
:101BD00063E080EE97E058DEA22EB32EC42ED52E01
:101BE000D62FF72EC82F192F8091E4049091E50489
:101BF000E090E1040091E0042091DF044091E204D0
:101C00006091E30441DE209398043093990440935B
:101C10009A0450939B0460939C0470939D0480935A
:101C20009E0490939F04ED2E0C2F0E94E236209389
:101C3000A0043093A1044093A2045093A3046093A2
:101C4000A4047093A5048093A6049093A704DF9145
:101C5000CF911F910F91FF90EF90DF90CF90BF90A9
:101C6000AF9008954F925F926F927F92AF92BF9222
:101C7000CF92DF92EF92FF920F931F93CF93DF9358
:101C8000CDB7DEB7A4970FB6F894DEBF0FBECDBFB9
:101C90008C015B012091A0043091A1044091A20429
:101CA0005091A3046091A4047091A5048091A604AE
:101CB0009091A7040E94563327EB39E540E85FE393
:101CC0000E949E342EEB37EF48E958E30E949E3481
:101CD0002B013C010E947D326B017C0169837A8378
:101CE0008B839C83C301B2010E944D356D837E833B
:101CF0008F83988719861A861B861C86DC01CB0188
:101D0000B0588D879E87AF87B88BC98ADA8AEB8AED
:101D1000FC8A1D8A1E8A1F8A188E198E1A8E1B8EA7
:101D20001C8E1D8E1E8E1F8E18A280E090E0A0E8F3
:101D3000BFE389A39AA3ABA3BCA3A501BE016F5FB8
:101D40007F4FC8010E943B1EA4960FB6F894DEBFD9
:101D50000FBECDBFDF91CF911F910F91FF90EF90FC
:101D6000DF90CF90BF90AF907F906F905F904F903B
:101D700008954F925F926F927F92AF92BF92CF92EF
:101D8000DF92EF92FF920F931F93CF93DF93CDB724
:101D9000DEB7A4970FB6F894DEBF0FBECDBF8C019F
:101DA0005B012091A0043091A1044091A2045091C4
:101DB000A3046091A4047091A5048091A60490915D
:101DC000A7040E94563327EB39E540E85FE30E9401
:101DD0009E342EEB37EF48E958E30E949E342B01E6
:101DE0003C010E947D326B017C0169837A838B8385
:101DF0009C83C301B2010E944D352B013C0177FA4F
:101E0000709477F870944D825E826F82788619861E
:101E10001A861B861C866D877E878F87988BC98A5A
:101E2000DA8AEB8AFC8A1D8A1E8A1F8A188E198E0E
:101E30001A8E1B8E1C8E1D8E1E8E1F8E18A280E089
:101E400090E0A0E8BFE389A39AA3ABA3BCA3A5013C
:101E5000BE016F5F7F4FC8010E943B1EA4960FB664
:101E6000F894DEBF0FBECDBFDF91CF911F910F91D0
:101E7000FF90EF90DF90CF90BF90AF907F906F90EA
:101E80005F904F900895CF92DF92EF92FF920F9361
:101E90001F93CF93DF93CDB7DEB7C854D1090FB6E8
:101EA000F894DEBF0FBECDBF8C01CB016A01790172
:101EB000AE01435F5F4FB8010E94981ECE010D96A0
:101EC0000E946F1FF80180819181A281B381B05877
:101ED000898F9A8FAB8FBC8F4481558166817781C2
:101EE00070584D8F5E8F6F8F78A380859185A28506
:101EF000B385B05889A39AA3ABA3BCA3CE014996DE
:101F00000E946F1FAE014F5F5F4FBE01675E7F4F44
:101F1000CE010D960E94981ECE0101960E946F1F61
:101F200089819A81AB81BC818DA39EA3AFA3B8A701
:101F30008D859E85AF85B88989A79AA7ABA7BCA7D1
:101F4000898D9A8DAB8DBC8D8DA79EA7AFA7B8ABA1
:101F50008D819E81AF81B88589AB9AABABABBCABB1
:101F600089899A89AB89BC898DAB9EABAFABB8AF81
:101F70008D8D9E8DAF8DB8A189AF9AAFABAFBCAF41
:101F800089859A85AB85BC8521968CAF9DAFAEAF18
:101F9000BFAF21978D899E89AF89B88D25968CAF6B
:101FA0009DAFAEAFBFAF259709A11AA12BA13CA150
:101FB00029960CAF1DAF2EAF3FAF2997A701BE01E9
:101FC0006B5D7F4FC6010E943B1EC85BDF4F0FB6A3
:101FD000F894DEBF0FBECDBFDF91CF911F910F915F
:101FE000FF90EF90DF90CF9008952F923F924F9205
:101FF0005F926F927F928F929F92AF92BF92CF9299
:10200000DF92EF92FF921F93CF93DF93CDB7DEB7AE
:102010002C970FB6F894DEBF0FBECDBF1B01DC01BD
:102020008D909D90AD90BC9013971496CD90DD90BF
:10203000ED90FC90179718968D919D910D90BC9105
:10204000A02D89839A83AB83BC83A5019401C7012A
:10205000B6010E94263269877A878B879C87A50103
:102060009401C501B4010E949E344B015C01A7019B
:102070009601C701B6010E949E349B01AC01C501C7
:10208000B4010E949C310E9457352B013C0125E48C
:1020900034E24FE75FE30E949E349B01AC0169810B
:1020A0007A818B819C810E9426326B017C0115E034
:1020B000C701B6010E947D3220E030E040E450E4E8
:1020C0000E9401354B015C01C701B6010E944D35EC
:1020D00020E030E040E450E40E9401356B017C01D7
:1020E0002EEA39EC46E257E4C501B4010E949E3461
:1020F0009B01AC01C301B2010E949B314B015C0109
:1021000022E539E547E257E4C701B6010E949E3453
:1021100029813A814B815C810E949C31A501940107
:102120000E9426324B015C010E947D326B017C01D2
:10213000C501B4010E944D3525E434E24FE75FE369
:102140000E949E34A70196010E9426326B017C01F9
:10215000115009F0ADCFC501B4010E944D356B019E
:102160007C012AE83CE54BED5BE30E949E34A7012D
:1021700096010E949E349B01AC0160E070E080E813
:102180009FE30E949B310E9457359B01AC0162E3A3
:1021900075EA82EC9AE40E9480326D837E838F839D
:1021A0009887C501B4010E947D32F101808291823D
:1021B000A282B38229853A854B855C852483358349
:1021C00046835783A30192010E949E342B013C0158
:1021D0002AE83CE54BED5BE36D817E818F8198853C
:1021E0000E949E34A70196010E949E3429813A8163
:1021F0004B815C810E949C31A70196010E949E3414
:102200009B01AC01C301B2010E949C312D813E8132
:102210004F8158850E949B31F101608771878287C9
:10222000938720E030E044E353E4C501B4010E9409
:102230009E3428ED3FE049E450E40E94803220E0E3
:1022400030E048EC52E40E949E340E94E8326093F1
:10225000D3047093D4048093D5049093D60420E0E3
:1022600030E044E353E4D10114966D917D918D915A
:102270009C9117970E949E3428ED3FE049E450E47A
:102280000E94803220E030E048EC52E40E949E340C
:102290000E94E8326093D7047093D8048093D904E5
:1022A0009093DA04F10160857185828593850E949F
:1022B000E8326093DB047093DC048093DD04909338
:1022C000DE042C960FB6F894DEBF0FBECDBFDF91B3
:1022D000CF911F91FF90EF90DF90CF90BF90AF9084
:1022E0009F908F907F906F905F904F903F902F9036
:1022F00008952F923F924F925F926F927F928F92AA
:102300009F92AF92BF92CF92DF92EF92FF920F9384
:102310001F93CF93DF93CDB7DEB7AC970FB6F8948A
:10232000DEBF0FBECDBF1C017B018A01DB014D90DA
:102330005D906D907C90C301B2010E947D326DA3CF
:102340007EA38FA398A7F701C480D580E680F7808D
:10235000C701B6010E947D324B015C01C301B2018D
:102360000E944D352B013C01C701B6010E944D353D
:102370006B017C0177FA709477F870948DA19EA11F
:10238000AFA1B8A5B05889A79AA7ABA7BCA7A501CC
:102390009401C301B2010E949E3469837A838B83C6
:1023A0009C83A3019201C701B6010E949E346D83F4
:1023B0007E838F8398878DA19EA1AFA1B8A58987C1
:1023C0009A87AB87BC87D701C601B0588D879E8797
:1023D000AF87B88B898A9A8AAB8ABC8A1D8A1E8A83
:1023E0001F8A188EA501940169A57AA58BA59CA5C5
:1023F0000E949E34698F7A8F8B8F9C8F29A53AA576
:102400004BA55CA5C701B6010E949E346D8F7E8FDF
:102410008F8F98A349A25AA26BA27CA2A801BE01E9
:102420006F5F7F4FC1010E943B1EAC960FB6F894C0
:10243000DEBF0FBECDBFDF91CF911F910F91FF90F7
:10244000EF90DF90CF90BF90AF909F908F907F9054
:102450006F905F904F903F902F9008951F920F9232
:102460000FB60F9211240BB60F922F938F939F9359
:10247000AF93BF93EF93FF939BB380EF89278BBB01
:102480008CB1809308028091090290910A02A09178
:102490000B02B0910C02BA2FA92F982F8827809396
:1024A000090290930A02A0930B02B0930C02809150
:1024B000090290910A02A0910B02B0910C028827A8
:1024C0008093090290930A02A0930B02B0930C022E
:1024D000209108028091090290910A02A0910B02BA
:1024E000B0910C02822B8093090290930A02A09370
:1024F0000B02B0930C0280910D018C3008F086C065
:1025000080910D01843028F5EBEBF4E0808191811E
:10251000A281B381892F9A2FAB2FBB27A7FDBA9534
:1025200080839183A283B38380819181A281B381CF
:10253000BB2780839183A283B38380819181A28111
:10254000B38120910802B22B80839183A283B3834D
:1025500051C080910D01883028F5EFEBF4E08081C7
:102560009181A281B381892F9A2FAB2FBB27A7FD21
:10257000BA9580839183A283B38380819181A28164
:10258000B381BB2780839183A283B38380819181B0
:10259000A281B38120910802B22B80839183A28310
:1025A000B38328C080910D018C3020F5E3ECF4E07A
:1025B00080819181A281B381892F9A2FAB2FBB2774
:1025C000A7FDBA9580839183A283B3838081918193
:1025D000A281B381BB2780839183A283B38380814F
:1025E0009181A281B38120910802B22B80839183D3
:1025F000A283B38380910D018F5F80930D01809141
:102600000D018C3019F48FEF80930D0180910C0136
:102610008C3008F086C080910C01843028F5E7ECFE
:10262000F4E080819181A281B381892F9A2FAB2F11
:10263000BB27A7FDBA9580839183A283B383808152
:102640009181A281B381BB2780839183A283B383CD
:1026500080819181A281B38120910802B22B808375
:102660009183A283B38351C080910C01883028F5F7
:10267000EBECF4E080819181A281B381892F9A2FC4
:10268000AB2FBB27A7FDBA9580839183A283B38329
:1026900080819181A281B381BB2780839183A283B2
:1026A000B38380819181A281B38120910802B22BF2
:1026B00080839183A283B38328C080910C018C30E6
:1026C00020F5EFECF4E080819181A281B381892F24
:1026D0009A2FAB2FBB27A7FDBA9580839183A28346
:1026E000B38380819181A281B381BB278083918351
:1026F000A283B38380819181A281B381209108025A
:10270000B22B80839183A283B38380910C018F5F6E
:1027100080930C0180910C018C3019F48FEF809321
:102720000C0180910B01843020F580910B018230E7
:10273000A0F0E6EEF4E080819181892F99279183C2
:102740008083808191819927918380838081918189
:1027500020910802922B9183808380910B018F5FDF
:1027600080930B0180910B01843019F48FEF8093DB
:102770000B0180910A01803108F08BC080910A0121
:10278000843008F47AC080910A01883028F5E3ED9E
:10279000F4E080819181A281B381892F9A2FAB2FA0
:1027A000BB27A7FDBA9580839183A283B3838081E1
:1027B0009181A281B381BB2780839183A283B3835C
:1027C00080819181A281B38120910802B22B808304
:1027D0009183A283B38351C080910A018C3028F584
:1027E000E7EDF4E080819181A281B381892F9A2F56
:1027F000AB2FBB27A7FDBA9580839183A283B383B8
:1028000080819181A281B381BB2780839183A28340
:10281000B38380819181A281B38120910802B22B80
:1028200080839183A283B38328C080910A01803181
:1028300020F5EBEDF4E080819181A281B381892FB5
:102840009A2FAB2FBB27A7FDBA9580839183A283D4
:10285000B38380819181A281B381BB2780839183DF
:10286000A283B38380819181A281B38120910802E8
:10287000B22B80839183A283B38380910A018F5FFF
:1028800080930A0180910A01803119F48FEF8093BF
:102890000A0180910901873008F054C08091090134
:1028A000811105C0809108028093DF043CC08091B3
:1028B0000901813029F4809108028093E00433C03B
:1028C00080910901823029F4809108028093E1040B
:1028D0002AC080910901833029F4809108028093F5
:1028E000E20421C080910901843029F4809108021A
:1028F0008093E30418C0809109018530A0F0E4EED4
:10290000F4E080819181892F992791838083808150
:102910009181992791838083808191812091080200
:10292000922B91838083809109018F5F80930901AD
:1029300080910901873031F48FEF8093090181E0A4
:10294000809307028091090290910A02A0910B02E4
:10295000B0910C028C3A9440AF43BF4329F41092DB
:10296000070210920D013FC08091090290910A0266
:10297000A0910B02B0910C028C3A9540AF43BF433B
:1029800019F410920C012FC08091090290910A0253
:10299000A0910B02B0910C028C3A9B40AF43BF4315
:1029A00019F410920B011FC08091090290910A0244
:1029B000A0910B02B0910C028C3A9E40AF43BF43F2
:1029C00019F410920A010FC08091090290910A0235
:1029D000A0910B02B0910C028C3A9F40AF43BF43D1
:1029E00011F4109209018091E6049091E704883E69
:1029F0009340F0F4809107028823D1F08091E6049F
:102A00009091E704892BA1F081E0809323015798EE
:102A10008FEF9FEF9093E7048093E60410920702F4
:102A20001092090210920A0210920B0210920C02EC
:102A3000FF91EF91BF91AF919F918F912F910F9047
:102A40000BBE0F900FBE0F901F9018952F923F92C4
:102A50004F925F926F927F928F929F92AF92BF92AE
:102A6000CF92DF92EF92FF920F931F93CF93DF935A
:102A7000CDB7DEB7CC54D1090FB6F894DEBF0FBE88
:102A8000CDBFFC0149835A836B837C83322E2B9606
:102A90001FAF0EAF2B9780809180A280B380C4803F
:102AA000D580E680F78020E030E04AE754E4608596
:102AB0007185828593850E948032698B7A8B8B8B9E
:102AC0009C8BC501B4010E944D352B013C01C50111
:102AD000B4010E947D326D837E838F83988720E0CE
:102AE00030EE4BEF54E469817A818B819C810E94A6
:102AF0009B316EA77FA788AB99ABC701B6010E9437
:102B00007D3260934D0270934E0280934F029093FA
:102B10005002C701B6010E944D35609311027093B7
:102B2000120280931302909314022EE23FE24BE1D3
:102B30005CE46D817E818F8198850E949E342D8119
:102B40003E814F8158850E949E344B015C012BE3EE
:102B500035E24AE15CE4C301B2010E949E34A30164
:102B600092010E949E346B017C019B01AC01C50166
:102B7000B4010E949C31698F7A8F8B8F9C8F0E9449
:102B8000573569837A838B839C839B01AC010E94B8
:102B90009C3129893A894B895C890E949C31298919
:102BA0003A894B895C890E949E3469877A878B8732
:102BB0009C872EE23FE24BE15CE4C501B4010E9438
:102BC0009E344B015C012BE335E24AE15CE4C70132
:102BD000B6010E949E349B01AC01C501B4010E9464
:102BE0009C31298D3A8D4B8D5C8D0E9480329B01EA
:102BF000AC0169857A858B859C850E949C310E94F9
:102C000057354B015C0129813A814B815C8169898F
:102C10007A898B899C890E949C31A50194010E942C
:102C2000803225966CAF7DAF8EAF9FAF259720E8A1
:102C300039EF44E858E4C301B2010E949E342D816B
:102C40003E814F8158850E949E346B017C01A50115
:102C5000940169817A818B819C810E949E349B01C1
:102C6000AC01C701B6010E94803229966CAF7DAFDE
:102C70008EAF9FAF299725962CAD3DAD4EAD5FAD84
:102C80002597C301B2010E949E346B017C012996F5
:102C90002CAD3DAD4EAD5FAD29976D817E818F81AD
:102CA00098850E949E349B01AC01C701B6010E9429
:102CB0009B316D8F7E8F8F8F98A325962CAD3DAD68
:102CC0004EAD5FAD25976D817E818F8198850E9485
:102CD0009E346B017C0129962CAD3DAD4EAD5FADB0
:102CE0002997C301B2010E949E349B01AC01C70128
:102CF000B6010E949C31698F7A8F8B8F9C8F2D8DAE
:102D00003E8D4F8D58A1CA01B9010E949C3160933C
:102D10005103709352038093530390935403298D6E
:102D20003A8D4B8D5C8DCA01B9010E949C31609334
:102D3000550370935603809357039093580320E0F4
:102D400030E040E950E46D8D7E8D8F8D98A10E941A
:102D50009E342D8D3E8D4F8D58A10E949E3420E0D3
:102D600030E040EC5FE30E949B3160935903709325
:102D70005A0380935B0390935C0321EE36E446EAAA
:102D800050E4698D7A8D8B8D9C8D0E949E342D8DA3
:102D90003E8D4F8D58A10E949E3460935D037093C9
:102DA0005E0380935F0390936003898D9A8DAB8D52
:102DB000BC8DB0588093890290938A02A0938B02B5
:102DC000B0938C022D8D3E8D4F8D58A120938D0296
:102DD00030938E0240938F025093900220E030E0B7
:102DE00040E450EC698D7A8D8B8D9C8D0E949E34D1
:102DF0002D8D3E8D4F8D58A10E949E34609391027F
:102E00007093920280939302909394022D8D3E8D45
:102E10004F8D58A1CA01B9010E949E346B017C01FB
:102E2000298D3A8D4B8D5C8DCA01B9010E949E346B
:102E30009B01AC01C701B6010E949B3127ED33EB2A
:102E40004DED5FE30E949E3460939502709396026D
:102E50008093970290939802A50194016AE979E121
:102E600087EC95E40E94803221966CAF7DAF8EAFE7
:102E70009FAF2197432D50E09A012D5F3F4F429F16
:102E8000C001439F900D529F900D112499230CF483
:102E900001969595879588AF882309F40FC41DA6E0
:102EA000222423941D823324339431E0398B19A6D4
:102EB0001AA61BA61CA61DA21EA21FA218A619AE0A
:102EC0001AAE1BAE1CAE19A21AA21BA21CA24D81E7
:102ED0004315E8F44F5F4D83642F70E06E5F7F4FC2
:102EE000882777FD8095982F0E941B339B01AC01AA
:102EF00021966CAD7DAD8EAD9FAD21970E940135C1
:102F000069A77AA78BA79CA75D815DA7312C84E078
:102F1000821508F022C29D81391200C1A32DB0E0B4
:102F2000BA83A983BD01882777FD8095982F0E94D9
:102F30001B336B017C019B01AC0160E070E080E021
:102F40009FE30E9480329B01AC0160E070E080E86A
:102F50009FE30E949B310E9457354B015C01622C1C
:102F6000712C8301E981FA810E1B1F0B015011099D
:102F7000660C771C660C771C9301235B3C4F290180
:102F8000A701960160E070E080E89FE30E94803234
:102F900020E030E040E85FE30E949C31A50194010D
:102FA0000E949E34298D3A8D4B8D5C8D0E949E34FB
:102FB000A801440F551F440F551F5E874D878A0196
:102FC000035B1C4FD8012D913D914D915C910E9466
:102FD0009E34F201608371838283938393012B5724
:102FE0003D4F3A872987ED85FE85EB57FD4F2081C0
:102FF000318142815381698D7A8D8B8D9C8D0E94A8
:103000009E342B013C01D8012D913D914D915C9155
:103010006D8D7E8D8F8D98A10E949E34A7019601A3
:103020000E9480329B01AC01C301B2010E949C311D
:10303000A50194010E949E34E985FA85608371831D
:103040008283938309811A8101501109ADE4B2E0B2
:10305000CD90DD90ED90FC90000F111F000F111F1F
:10306000F801E75BFD4F80809180A280B380E98109
:10307000FA81EE0FFF1FEE0FFF1FFA87E987E35F6C
:10308000FD4FFA83E983035F1D4FD8012D913D91D8
:103090004D915C91C701B6010E949E342B013C0109
:1030A000E1E1F2E02081318142815381C501B40127
:1030B0000E949E349B01AC01C301B2010E949C316D
:1030C000A981BA816D937D938D939C931397E98524
:1030D000FA85E75BFD4F3F01A5019401C701B601E9
:1030E0000E949E346B017C01A1E1B2E02D913D91E3
:1030F0004D915C91F80160817181828193810E9480
:103100009E349B01AC01C701B6010E949B31D301E3
:103110006D937D938D939C9313971FC1BDA50B2F2A
:1031200010E0339CC0011124009FB001019F700D7D
:10313000700D11249A838983681B790B882777FD8A
:103140008095982F0E941B330E9457354B015C01DC
:10315000B801882777FD8095982F0E941B332B019B
:103160003C0120E030E040E85FE30E949B3169874A
:103170007A878B879C879B01AC010E949E346B01F0
:103180007C01E981FA81BF01882777FD8095982F1E
:103190000E941B339B01AC01C701B6010E949B3109
:1031A0000E945735A50194010E9480326B017C0179
:1031B000A3019201C301B2010E949C3120E030E0E2
:1031C00040E85FE30E949B31A50194010E94803298
:1031D0006D877E878F87988B822D90E0FD812F2FC2
:1031E00030E0AC01421B530B5E8B4D8B8A01021BFE
:1031F000130B0F5F1F4FDC01AA0FBB1FAA0FBB1FD2
:10320000BA83A983A35BBC4FBBABAAAB20E030E081
:1032100040E85FE3C301B2010E949C314B015C01B5
:103220002D8D3E8D4F8D58A16D857E858F8598891A
:103230000E949E34ED89FE89EE0FFF1FEE0FFF1FE7
:103240002D96FFAFEEAF2D97E35BFC4FFE8BED8B22
:1032500020813181428153810E949E34A3019201D9
:103260000E9480326CAB7DAB8EAB9FAB000F111F09
:10327000000F111FF801E35BFC4F20813181428177
:103280005381C701B6010E949E3429853A854B853A
:103290005C850E9480329B01AC016CA97DA98EA93E
:1032A0009FA90E949B319B01AC01C501B4010E9402
:1032B0009E34AAA9BBA96D937D938D939C9313977C
:1032C000E981FA81EB57FD4FFA83E9832D96EEAD44
:1032D000FFAD2D97EB57FD4F208131814281538106
:1032E0006D8D7E8D8F8D98A10E949E344B015C0167
:1032F000AD89BE892D913D914D915C91698D7A8DFD
:103300008B8D9C8D0E949E34A30192010E9480327D
:103310009B01AC01C501B4010E949B312D853E8506
:103320004F8558890E949E344B015C01F801EB5790
:10333000FD4F2081318142815381C701B6010E9436
:103340009E349B01AC01C501B4010E949B31E9810F
:10335000FA816083718382839383F9890F2F10E050
:10336000F801EE0FFF1FEE0FFF1FE454FB4FC59057
:10337000D590E590F490F801EE0FFF1FEE0FFF1FC0
:10338000E455FE4F25913591459154916EA57FA549
:1033900088A999A90E949E349B01AC01C701B6017E
:1033A0000E949C3129A53AA54BA55CA50E949E349C
:1033B0006B017C01311036C0022D10E0000F111F8F
:1033C000000F111FF801EB57FD4F20813181428121
:1033D00053810E949E349B01AC0169A17AA18BA10B
:1033E0009CA10E949C3169A37AA38BA39CA3F801A2
:1033F000E35BFC4F2081318142815381C701B601DB
:103400000E949E349B01AC016DA17EA18FA198A565
:103410000E949B316DA37EA38FA398A729892F5F5C
:10342000298B45C10F5F1F4FF801EE0FFF1FEE0FF5
:10343000FF1FE454FB4F85909590A590B490F80140
:10344000EE0FFF1FEE0FFF1FE455FE4F2591359144
:10345000459154916EA57FA588A999A90E949E3493
:103460009B01AC01C501B4010E949C3129A53AA57C
:103470004BA55CA50E949E342B013C01032D10E05E
:10348000C801880F991F880F991FFC01E75BFD4F4A
:10349000208131814281538129833A834B835C832C
:1034A0009C01235F3D4FD9018D919D910D90BC9161
:1034B000A02D89879A87AB87BC87A7019601698170
:1034C0007A818B819C810E949E344B015C01A30117
:1034D000920169857A858B859C850E949E349B012B
:1034E000AC01C501B4010E949C314B015C01822DED
:1034F00090E0FC01EE0FFF1FEE0FFF1FFE87ED8730
:103500009F012B573D4FD9018D919D910D90BC91FD
:10351000A02D8D8B9E8BAF8BB88FA5019401BC0124
:10352000CD010E949E349B01AC0169A17AA18BA1BF
:103530009CA10E949C3169A37AA38BA39CA32D8597
:103540003E85235B3C4FD9018D919D910D90BC919F
:10355000A02D8D879E87AF87B88BA5019401BC01F4
:10356000CD010E949E349B01AC016DA17EA18FA173
:1035700098A50E949B316DA37EA38FA398A720E0FE
:1035800030E0A901698D7A8D8B8D9C8D0E949334DA
:1035900018160CF057C029853A854B855C85C70104
:1035A000B6010E949E346B017C0129813A814B81D6
:1035B0005C81C301B2010E949E349B01AC01C70132
:1035C000B6010E949B316B017C01B801882777FD11
:1035D0008095982F0E941B339B01AC01C701B60157
:1035E0000E949E349B01AC016D857E858F859889F4
:1035F0000E949E346B017C01BDA56B2F70E080E0C2
:1036000090E00E941B3320E030E040E85FE30E943E
:103610009C31298D3A8D4B8D5C8D0E949E349B018F
:10362000AC01C701B6010E9480329B01AC0169ADBB
:103630007AAD8BAD9CAD0E949C3169AF7AAF8BAFF8
:103640009CAF32C029853A854B855C85C701B601A0
:103650000E949E346B017C0129813A814B815C81FF
:10366000C301B2010E949E349B01AC01C701B601A7
:103670000E949B319B01AC016D897E898F89988D59
:103680000E949E342D8D3E8D4F8D58A10E949E34F8
:103690009B01AC0169AD7AAD8BAD9CAD0E949C31B4
:1036A00069AF7AAF8BAF9CAFE989EE5FE98B33945A
:1036B0002394F8ADF21508F00ACC0CC01DA21EA28E
:1036C0001FA218A619AE1AAE1BAE1CAE19A21AA2E2
:1036D0001BA21CA225962CAD3DAD4EAD5FAD25972E
:1036E0006DA17EA18FA198A50E949E346B017C01E3
:1036F00025962CAD3DAD4EAD5FAD259769A17AA164
:103700008BA19CA10E949E344B015C0129962CAD9B
:103710003DAD4EAD5FAD29976DA17EA18FA198A55E
:103720000E949E349B01AC01C501B4010E949C31F2
:103730002B96AEADBFAD2B976D937D938D939C93E0
:10374000139729AD3AAD4BAD5CAD14962D933D93D7
:103750004D935C93179729962CAD3DAD4EAD5FAD63
:10376000299769A17AA18BA19CA10E949E349B01FB
:10377000AC01C701B6010E949B312B96EEADFFADA7
:103780002B976087718782879387C45BDF4F0FB663
:10379000F894DEBF0FBECDBFDF91CF911F910F9187
:1037A000FF90EF90DF90CF90BF90AF909F908F9061
:1037B0007F906F905F904F903F902F900895CF93A0
:1037C000DF93CBE9D0E01882AAE9B0E01C92EDE9E2
:1037D000F0E010828881826088838C9188698C9364
:1037E00080818E60808387E6809399001092980094
:1037F000DF91CF9108951F920F920FB60F9211246F
:103800000BB60F922F933F934F935F936F937F93DA
:103810008F939F93AF93BF93EF93FF9380911B047C
:1038200090919C00E82FF0E0E855FB4F90838F5F6C
:10383000873019F080931B04A1C010921B04809163
:10384000A80490E0982F882790931A048093190475
:103850008091190490911A04882790931A048093F8
:1038600019048091190490911A042091A904822BC3
:1038700090931A04809319048091AA0490E0982FE1
:1038800088279093180480931704809117049091CF
:1038900018048827909318048093170480911704C4
:1038A000909118042091AB04822B9093180480937C
:1038B00017048091AC0490E0982F88279093160409
:1038C0008093150480911504909116048827909395
:1038D000160480931504809115049091160420918C
:1038E000AD04822B90931604809315046091190403
:1038F00070911A04882777FD8095982F0E941B33BA
:1039000020E030E64AE656E40E94803260931005DB
:10391000709311058093120590931305609117041D
:1039200070911804882777FD8095982F0E941B338B
:1039300020E030E64AE656E40E94803260931405A7
:1039400070931505809316059093170560911504E3
:1039500070911604882777FD8095982F0E941B335D
:1039600020E030E64AE656E40E9480326093180573
:103970007093190580931A0590931B05FF91EF91A1
:10398000BF91AF919F918F917F916F915F914F9177
:103990003F912F910F900BBE0F900FBE0F901F9075
:1039A0001895CF93DF93FC012081222369F0DC017D
:1039B0001196EBE9F0E0CCE9D0E0808185FFFDCF06
:1039C00028832D912111F9CFDF91CF91089580E9BE
:1039D00091E0E7CF0895CF93DF93FC01EB014081A5
:1039E000518162817381488359836A837B834481D7
:1039F0005581668177814C835D836E837F8380856B
:103A00009185A285B38588879987AA87BB87DF912F
:103A1000CF910895DC01E62FF72F80E04D915D9165
:103A20006D917D9141935193619371938F5F843038
:103A3000A9F708954F925F926F927F928F929F9213
:103A4000AF92BF92CF92DF92EF92FF92FC01608122
:103A500071818281938184809580A680B780C084A3
:103A6000D184E284F3849B01AC010E949E342B013B
:103A70003C01A5019401C501B4010E949E349B0143
:103A8000AC01C301B2010E949C314B015C01A70152
:103A90009601C701B6010E949E349B01AC01C5018D
:103AA000B4010E949C310E945735FF90EF90DF9047
:103AB000CF90BF90AF909F908F907F906F905F90CE
:103AC0004F9008954F925F926F927F928F929F9244
:103AD000AF92BF92CF92DF92EF92FF92CF93DF939C
:103AE00000D000D0CDB7DEB7FC016081718182814A
:103AF000938184809580A680B780C084D184E2843D
:103B0000F38444845584668477849B01AC010E94CD
:103B10009E3469837A838B839C83A5019401C501BC
:103B2000B4010E949E349B01AC0169817A818B8132
:103B30009C810E949C314B015C01A7019601C70149
:103B4000B6010E949E349B01AC01C501B4010E94E4
:103B50009C316B017C01A3019201C301B2010E945F
:103B60009E349B01AC01C701B6010E949C310E94AA
:103B700057350F900F900F900F90DF91CF91FF90DE
:103B8000EF90DF90CF90BF90AF909F908F907F90FD
:103B90006F905F904F900895CF92DF92EF92FF92D7
:103BA0000F931F93CF93DF93EC018B01FB012081D7
:103BB000318142815381688179818A819B810E9410
:103BC0009E346B017C01F801248135814681578147
:103BD0006C817D818E819F810E949E349B01AC010E
:103BE000C701B6010E949C316B017C01F801208560
:103BF000318542855385688579858A859B850E94B4
:103C00009E349B01AC01C701B6010E949C31DF913B
:103C1000CF911F910F91FF90EF90DF90CF9008957B
:103C2000DF92EF92FF920F931F93CF93DF937C016C
:103C3000062F172FC42FD52FD12CF7016191719129
:103C4000819191917F01F80121913191419151919F
:103C50008F010E949C316993799389939993D394AE
:103C6000F3E0DF12EACFDF91CF911F910F91FF9028
:103C7000EF90DF9008954F925F926F927F928F92B4
:103C80009F92AF92BF92CF92DF92EF92FF920F93EB
:103C90001F93CF93DF934B015A01C12CD12C482E97
:103CA000592E612C7501F501108211821282138246
:103CB000042D152DE401CC0DDD1D762CF80161914C
:103CC0007191819191918F01288139814A815B8124
:103CD0000E949E349B01AC01F70160817181828159
:103CE00093810E949C31F701608371838283938367
:103CF00073942C96F3E07F12E1CF84E0A80EB11C00
:103D0000E4E0CE0ED11CFCE0CF16D10459F6DF91D1
:103D1000CF911F910F91FF90EF90DF90CF90BF90C8
:103D2000AF909F908F907F906F905F904F9008958D
:103D3000AF92BF92CF92DF92EF92FF920F931F93B9
:103D4000CF93DF93EC018B015A01FB012085318574
:103D5000428553856C817D818E819F810E949E3436
:103D60006B017C01F801248135814681578168858A
:103D700079858A859B850E949E349B01AC01C70191
:103D8000B6010E949B31F501608371838283938326
:103D9000F8012081318142815381688579858A8546
:103DA0009B850E949E346B017C01F8012085318542
:103DB00042855385688179818A819B810E949E34E6
:103DC0009B01AC01C701B6010E949B31F5016483E0
:103DD000758386839783F8012481358146815781D5
:103DE000688179818A819B810E949E346B017C016C
:103DF000F80120813181428153816C817D818E81E6
:103E00009F810E949E349B01AC01C701B6010E94B4
:103E10009B31F5016087718782879387DF91CF910E
:103E20001F910F91FF90EF90DF90CF90BF90AF90D8
:103E30000895CF92DF92EF92FF92CF93DF93EC0140
:103E40006A017B019A01AB01688179818A819B813A
:103E50000E949E34688379838A839B83A70196019D
:103E60006C817D818E819F810E949E346C837D83D5
:103E70008E839F83A7019601688579858A859B85B6
:103E80000E949E34688779878A879B87DF91CF91CC
:103E9000FF90EF90DF90CF900895CF92DF92EF9256
:103EA000FF921F93CF93DF936A017B01EC0110E037
:103EB000A7019601688179818A819B810E949E3445
:103EC00069937993899399931F5F143089F7DF91F0
:103ED000CF911F91FF90EF90DF90CF900895CF92F8
:103EE000DF92EF92FF92CF93DF93EC01A3DD6B01A2
:103EF0007C019B01AC01688179818A819B810E9450
:103F00008032688379838A839B83A70196016C81C1
:103F10007D818E819F810E9480326C837D838E8320
:103F20009F83A7019601688579858A859B850E9474
:103F30008032688779878A879B87DF91CF91FF904E
:103F4000EF90DF90CF900895CF92DF92EF92FF92A3
:103F50000F931F93CF93DF93082F192FB3DD6B01BE
:103F60007C01C02FD12F10E0A701960168817981D3
:103F70008A819B810E948032699379938993999376
:103F80001F5F143089F7DF91CF911F910F91FF9040
:103F9000EF90DF90CF900895579A08950C94282BB6
:103FA000089515CD089584B3886384BB82B1886376
:103FB00082B9ABE8B0E01C92EAE8F0E0108210921F
:103FC0008C008C918A6A8C938081816180838FEFD1
:103FD0009FEF909381008093800010928700109251
:103FE0008600109285001092840010928300109237
:103FF000820085B3877C85BB089585B3877C85BBAC
:1040000080912905882311F0AD9A01C0AD98809167
:104010002A05882311F0AC9A01C0AC9880912B0539
:10402000882311F0AB9A01C0AB9880912305909141
:1040300024059093870080938600809125059091B8
:1040400026059093850080938400809127059091A8
:104050002805909383008093820008951092240590
:10406000109223051092260510922505109228051E
:10407000109227051092290510922A0510922B05FF
:10408000BCCF0895EF92FF920F931F93CF93DF93CE
:104090001092EB041092EA046091BB047091BC048E
:1040A0008091BD049091BE040F2EF8E2EF2EF4E053
:1040B000FF2EF02D0E941B3320E030E048EC52E44C
:1040C0000E948032F70160837183828393836091C1
:1040D000BF047091C0048091C1049091C2040CE2AD
:1040E00014E00E941B3320E030E048EC52E40E94D0
:1040F0008032F80160837183828393836091C3046B
:104100007091C4048091C5049091C604C0E3D4E0CA
:104110000E941B3320E030E048EC52E40E948032E1
:10412000688379838A839B836091C7047091C804F4
:104130008091C9049091CA040E941B3320E030E0B2
:104140004AE754E40E94803260931C0470931D047B
:1041500080931E0490931F046091CB047091CC0453
:104160008091CD049091CE040E941B3320E030E07A
:104170004AE754E40E948032609320047093210443
:1041800080932204909323046091CF047091D00413
:104190008091D1049091D2040E941B3320E030E042
:1041A0004AE754E40E94803260932404709325040B
:1041B00080932604909327040E94DA0DF7018081F2
:1041C0009181A281B3818093440490934504A0938C
:1041D0004604B0934704F80180819181A281B381A4
:1041E0008093480490934904A0934A04B0934B04ED
:1041F00088819981AA81BB8180934C0490934D045E
:10420000A0934E04B0934F0460E574E0C7010E9490
:10421000320E68E374E08CE194E00E94320E60910B
:10422000D3047091D4048091D5049091D6040E9457
:104230001B3320E836E948E15BE40E94803225E345
:104240003AEF4EE85CE30E949E346093AF047093B3
:10425000B0048093B1049093B2046091D70470913C
:10426000D8048091D9049091DA040E941B3320E88D
:1042700036E948E15BE40E94803225E33AEF4EE8FC
:104280005CE30E949E346093B3047093B404809303
:10429000B5049093B60410922301DF91CF911F9142
:1042A0000F91FF90EF9008954F925F926F927F92DF
:1042B0008F929F92AF92BF92CF92DF92EF92FF9236
:1042C0000F931F93CF93DF93CDB7DEB764970FB6ED
:1042D000F894DEBF0FBECDBF8C0184E494E0AADB6E
:1042E0002B013C019B01AC010E949E349B01AC015F
:1042F00061EB7AE186E791E50E9480326D877E87E7
:104300008F87988B20E030E040E450E4C301B20195
:104310000E9401356B017C0120E030E040E850E470
:10432000C301B2010E9401352B013C0180904C0475
:1043300090904D04A0904E04B0904F04A5019401BC
:10434000C501B4010E949E3428E938E045E05CE3F1
:104350000E949E342AEC3EEF43E156E50E949E34D3
:10436000A30192010E948032698B7A8B8B8B9C8B8C
:1043700020E030E040E85FE36D857E858F85988999
:104380000E949C3129893A894B895C890E949B3122
:104390002B013C0121EF39E445EB57ED60914404DA
:1043A0007091450480914604909147040E949E3488
:1043B000A30192010E949E34A70196010E948032BF
:1043C00069837A838B839C8321EF39E445EB57ED36
:1043D000609148047091490480914A0490914B0483
:1043E0000E949E349B01AC01C301B2010E949E3425
:1043F000A70196010E9480326D837E838F83988708
:1044000021EF39E445EB57EDC501B4010E949E341C
:104410002B013C0120E030E040E450E46D857E85D6
:104420008F8598890E949E3420E030E040E85FE369
:104430000E949C3129893A894B895C890E949B3171
:104440009B01AC01C301B2010E949E34A7019601F9
:104450000E94803269877A878B879C87B801CE015A
:1044600001960E94320E64960FB6F894DEBF0FBE1E
:10447000CDBFDF91CF911F910F91FF90EF90DF9013
:10448000CF90BF90AF909F908F907F906F905F90F4
:104490004F9008954F925F927F928F929F92AF922A
:1044A000BF92CF92DF92EF92FF920F931F93CF9321
:1044B000DF93CDB7DEB768970FB6F894DEBF0FBEB7
:1044C000CDBF0F2EFAE07F2EF02D5E018DE0A80EFD
:1044D000B11C0F2EF0E54F2EF4E05F2EF02D0F2EC5
:1044E000F4E4CF2EF4E0DF2EF02DCE010196DCDED9
:1044F000B50188E394E06FDAFE0131967F01450152
:1045000008E314E0F70161917191819191917F012C
:104510002DEC3CEC4CE45EE30E949E349B01AC012C
:10452000F80160817181828193810E949C31F80140
:1045300061937193819391938F01E814F90411F7BA
:104540004501720108E314E0F801619171918191D4
:1045500091918F01F40121913191419151914F013C
:104560000E949C3120E030E040E05FE30E949E34F6
:104570002DEC3CEC4CE45EE30E949E349B01AC01CC
:10458000F70160817181828193810E949C31F701E2
:1045900061937193819391937F010C151D05A1F691
:1045A0007A9409F0A2CF68960FB6F894DEBF0FBEDA
:1045B000CDBFDF91CF911F910F91FF90EF90DF90D2
:1045C000CF90BF90AF909F908F907F905F904F90D3
:1045D00008954F925F926F927F928F929F92AF92C7
:1045E000BF92CF92DF92EF92FF920F931F93CF93E0
:1045F000DF93CDB7DEB72C970FB6F894DEBF0FBEB2
:10460000CDBF8C012091A0043091A1044091A2045F
:104610005091A3046091A4047091A5048091A60414
:104620009091A7040E94563320E030EC48EA57E40A
:104630000E9480322BED3FE049EC50E40E949E3412
:1046400021ED30EA46EB53E40E9480324B015C01DD
:104650000E944D3520E93EE24CEC5EE30E949E3420
:104660000E9400326B017C01C501B4010E947D32C1
:104670002B013C01C701B6010E947D324B015C0158
:104680009B01AC01C301B2010E9480320E948D31B6
:104690002B013C0120E030E0A901C701B6010E94D6
:1046A0009334882354F4A30192016BED7FE089ECED
:1046B00090E40E949B312B013C01C301B2010E9496
:1046C0007D329B01AC01C501B4010E949E34698317
:1046D0007A838B839C83C301B2010E944D359B0179
:1046E000AC01C501B4010E949E346D837E838F832B
:1046F0009887C701B6010E944D3569877A878B87F5
:104700009C872DEC3CEC4CEC5DE3609134047091A3
:10471000350480913604909137040E949C31609357
:1047200034047093350480933604909337049801D1
:10473000AE014F5F5F4F68E374E080E594E00E9454
:10474000430F2C960FB6F894DEBF0FBECDBFDF919E
:10475000CF911F910F91FF90EF90DF90CF90BF907E
:10476000AF909F908F907F906F905F904F90089543
:10477000AF92BF92CF92DF92EF92FF920F931F936F
:10478000CF93DF93CDB7DEB7E0970FB6F894DEBFD7
:104790000FBECDBF5C0120919804309199044091E7
:1047A0009A0450919B0460919C0470919D048091A7
:1047B0009E0490919F040E94563320EC39E940EF0B
:1047C0005BE40E94803220E030E04CEF54E40E9431
:1047D0009C316B017C01BE016F5F7F4F80E594E0EF
:1047E0000E94B90EBE01635F7F4FCE0101960E9409
:1047F000F50F6FEA74E0CE010D96EDD88E01075EDD
:104800001F4F28E0B701A601CE010D960E94261584
:10481000AE014F5F5F4FBE01635F7F4FC8010E94D3
:104820007911BE016B5D7F4FCE0101960E94320E61
:104830009501AE014B5D5F4F68E374E080E594E065
:104840000E94430FE0960FB6F894DEBF0FBECDBFB7
:10485000DF91CF911F910F91FF90EF90DF90CF905C
:10486000BF90AF900895FF920F931F93CF93DF9364
:10487000C8EFD4E000E115E0F12C699179918991BC
:10488000999127E231E348EC5EE30E947932882374
:104890000CF4F394C017D10781F781E096E0F91288
:1048A00001C080E0DF91CF911F910F91FF9008959B
:1048B0002F923F924F925F926F927F928F929F9230
:1048C000AF92BF92CF92DF92EF92FF920F931F931E
:1048D000CF93DF93CDB7DEB7CB57D1090FB6F8949E
:1048E000DEBF0FBECDBFE1969FAF8EAFE1971B013C
:1048F000E3965FAF4EAFE397790108EF14E00F2E18
:10490000F0E1CF2EF5E0DF2EF02DB12CF801619112
:104910007191819191918F0127E231E348EC5EE33F
:104920000E94793288230CF4B3940C151D0571F79D
:10493000F1E0E496FFAFE49726E0B21203C0E496FC
:104940001FAEE497E4968FADE497882309F40EC375
:10495000F701808181110FC080915C0490915D040A
:10496000029690935D0480935C048C32914019F41C
:1049700081E0F701808380910E01811110C3F7015E
:10498000108210925D0410925C0409C389869A8695
:10499000AB86BC8608C0F7FAF094F7F8F094C986A5
:1049A000DA86EB86FC868E010F5F1F4FCE010D96D7
:1049B000AF969FAF8EAFAF97F801C080D180E280F5
:1049C000F38046015701E894B7F826E636E646E854
:1049D0005FE3C501B4010E949B3121EC3AEC41EC4C
:1049E0005FE30E9480320E948D3120E030E044E39A
:1049F00053E40E949E3420ED3FE049E450E40E94DD
:104A0000803226E636E64EE151E40E949C3123E3F3
:104A100033E343ED5FE30E94803220ED3FE049E461
:104A200050E40E949E3420E030E044E353E40E94CE
:104A300080322B013C0120E030E0A901C701B60122
:104A40000E9479328823C1F0C301B2010E947D32F5
:104A50002B013C01A7019601C501B4010E948032DF
:104A60009B01AC01C301B2010E949E34F801608336
:104A700071838283938309C0C301B2010E947D3296
:104A8000F80160837183828393830C5F1F4FAF961D
:104A90008EAD9FADAF970817190709F08DCFCE01E6
:104AA00001961DDA8091100590911105A0911205D3
:104AB000B09113058D8B9E8BAF8BB88F80911405B1
:104AC00090911505A0911605B0911705B058898BE6
:104AD0009A8BAB8BBC8B8091180590911905A09196
:104AE0001A05B0911B058D879E87AF87B88BAE01E5
:104AF000475E5F4FBE016F5F7F4FCE010D9618D9A5
:104B0000CE014996ECD9AE014B5D5F4FB101E19604
:104B10008EAD9FADE1970CD9CE018596E0D9BE014F
:104B20006B5D7F4FCE01499637D86B017C01E196D2
:104B30006EAD7FADE197CE010D962ED84B015C0195
:104B4000B101CE01019628D82B013C0120E030E0D4
:104B500040E85FE3C701B6010E949C316B017C0114
:104B600026E636E646E65FE3C501B4010E949E34C0
:104B70004B015C0120ED3CEC4CEC5DE3C301B20168
:104B80000E949E349B01AC01C501B4010E949C317E
:104B90009B01AC01C701B6010E949E344B015C0130
:104BA000AE01475B5F4FE1966EAD7FADE197CE0101
:104BB0000D96BED8AE014B5A5F4FB101CE010196A2
:104BC000B7D8FE01E75BFF4F7F018E010B5A1F4FE5
:104BD0006F01FCE0CF0ED11CF701619171918191C1
:104BE00091917F0126E636E646E65FE30E949E3419
:104BF0002B013C0120ED3CEC4CEC5DE3F8016081C5
:104C00007181828193810E949E349B01AC01C3011A
:104C1000B2010E949C31F801619371938193919349
:104C20008F01EC14FD04C1F6AE014F5C5F4FBE0175
:104C30006B5D7F4FCE0149967BD8BE016B5A7F4F8B
:104C4000CE01C1960E94CC1DA50194010E949C3109
:104C50006B017C01AE01435C5F4FBE016B5D7F4F1A
:104C6000CE0149960E94101EBE016B5A7F4FCE01A5
:104C7000CD960E94CC1D2B013C01A7019601C701D6
:104C8000B6010E949E344B015C01A3019201C30155
:104C9000B2010E949E349B01AC01C501B4010E9487
:104CA0009C310E9457354B015C0120E030E0A901A6
:104CB000C701B6010E94933418160CF096C0A701E4
:104CC0009601C501B4010E949C316B017C01A501D4
:104CD00094010E949E344B015C01BE016B5D7F4FCD
:104CE000CE0149960E94CC1D20E030E040E85FE311
:104CF0000E949C319B01AC01C501B4010E949E340D
:104D00000E9457359B01AC010E949C319B01AC0174
:104D100060E070E080E89FE30E948032EC966CAF28
:104D20007DAF8EAF9FAFEC978E010F5C1F4F1E01C2
:104D3000FDE32F0E311CCE018F599F4FE1969FAF9F
:104D40008EAFE197AF963FAE2EAEAF97E8964CAEE2
:104D50005DAE6EAE7FAEE897F80121913191419141
:104D600051918F01F10141905190619071901F011B
:104D7000C701B6010E949E344B015C01E8962CAD40
:104D80003DAD4EAD5FADE897C301B2010E949E34C8
:104D90009B01AC01C501B4010E949C31E196EEADCE
:104DA000FFADE1976193719381939193E196FFAF8A
:104DB000EEAFE197AF968EAD9FADAF97081719078D
:104DC00059F6BE016B5D7F4FCE0149960E94CC1D06
:104DD00020E030E040E85FE30E949C319B01AC01A1
:104DE000C701B6010E949E3491C0A7019601C5017A
:104DF000B4010E949B31E8966CAF7DAF8EAF9FAF40
:104E0000E897A50194010E949E346B017C01BE01CC
:104E10006B5D7F4FCE0149960E94CC1D20E030E0B3
:104E200040E85FE30E949C319B01AC01C701B601E1
:104E30000E949E340E9457359B01AC010E949C3118
:104E40009B01AC0160E070E080E89FE30E9480324B
:104E5000EC966CAF7DAF8EAF9FAFEC978E010F5C81
:104E60001F4F1E019DE3290E311CFE01EF59FF4F1C
:104E7000E196FFAFEEAFE197AF963FAE2EAEAF97A4
:104E8000F80161917191819191918F01F10181906E
:104E90009190A190B1901F01A30192010E949E34B4
:104EA0006B017C01A5019401E8966CAD7DAD8EADE2
:104EB0009FADE8970E949E349B01AC01C701B601EB
:104EC0000E949C31E196EEADFFADE1976193719345
:104ED00081939193E196FFAFEEAFE197AF968EADE0
:104EE0009FADAF970817190759F6BE016B5D7F4F4D
:104EF000CE0149960E94CC1D20E030E040E85FE3FF
:104F00000E949C31A30192010E949E34A5960CAD93
:104F10001DAD2EAD3FADA597E396EEADFFADE3978A
:104F20000083118322833383A9960CAD1DAD2EAD72
:104F30003FADA9970483158326833783AD960CADC7
:104F40001DAD2EAD3FADAD9700871187228733870A
:104F50006487758786879787EC964CAD5DAD6EAD9F
:104F60007FADEC97CF010E944D1F7DC0E396EEAD63
:104F7000FFADE39710821182128213821482158290
:104F800016821782108611861286138680E090E0C2
:104F9000A0E8BFE384879587A687B78764C0C090E1
:104FA000F804D090F904E090FA04F090FB048090AB
:104FB000FC049090FD04A090FE04B090FF04A501B5
:104FC0009401C701B6010E94933418164CF0B7FA49
:104FD000B094B7F8B09489829A82AB82BC8204C044
:104FE000C982DA82EB82FC82C0900005D090010574
:104FF000E0900205F090030580900405909005056F
:10500000A0900605B0900705A5019401C701B6015F
:105010000E94933418164CF0B7FAB094B7F8B094D5
:105020008D829E82AF82B88604C0CD82DE82EF82FE
:10503000F8868090080590900905A0900A05B09028
:105040000B05C0900C05D0900D05E0900E05F0907A
:105050000F05A7019601C501B4010E9493341816EB
:105060000CF494CC98CCE496FFADE497F0930E0149
:105070008F2FC558DF4F0FB6F894DEBF0FBECDBFE0
:10508000DF91CF911F910F91FF90EF90DF90CF9024
:10509000BF90AF909F908F907F906F905F904F9058
:1050A0003F902F9008952F923F924F925F926F9270
:1050B0007F928F929F92AF92BF92CF92DF92EF92A8
:1050C000FF920F931F93CF93DF93CDB7DEB7C65CEC
:1050D000D1090FB6F894DEBF0FBECDBFCD53DF4F61
:1050E0008883C35CD040CC53DF4F9883C45CD040EE
:1050F000CB53DF4F6883C55CD040CA53DF4F788302
:10510000C65CD040E82EF92E0AE614E09E012F5E20
:105110003F4F1901CE0101966C01D7018D909D90F2
:10512000AD90BD907D01F8014190519061907190DA
:105130008F01A3019201C501B4010E949B3120E0BF
:1051400030E040E05FE30E949E34D6016D937D9392
:105150008D939D936D01A3019201C501B4010E943D
:105160009C3120E030E040E05FE30E949E34F1019A
:1051700061937193819391931F01F4E00A371F07A4
:1051800061F69E01235D3F4F8E010F5D1F4FAE0103
:10519000435F5F4FC801DE015196FE013196BD01AC
:1051A000C190D190E190F190D901CD92DD92ED9234
:1051B000FD929D01DB01CD90DD90ED90FD90BD0154
:1051C000DC01CD92DD92ED92FD92CD01E417F50761
:1051D00039F78D8D9E8DAF8DB8A1C754DF4F888371
:1051E0009983AA83BB83C95BD040AD961CAE1DAE2C
:1051F0001EAE1FAEAD97C9A4DAA4EBA4FCA420E0B8
:1052000030E040E050ECC701B6010E949E34E196C8
:105210006CAF7DAF8EAF9FAFE1978DA09EA0AFA08A
:10522000B8A4A5019401C501B4010E949C31E59682
:105230006CAF7DAF8EAF9FAFE597A7019601C70119
:10524000B6010E949C31E9966CAF7DAF8EAF9FAFE7
:10525000E997ED961CAE1DAE1EAE1FAEED97C9A030
:10526000DAA0EBA0FCA020E030E040E050ECC70169
:10527000B6010E949E34C358DF4F688379838A83C6
:105280009B83CD57D04020E030E040E050ECC5019A
:10529000B4010E949E34CF57DF4F688379838A839D
:1052A0009B83C158D040A7019601C701B6010E9457
:1052B0009C31CB57DF4F688379838A839B83C558A2
:1052C000D040C757DF4F188219821A821B82C958F3
:1052D000D040C754DF4F288139814A815B81C95B47
:1052E000D040CA01B9010E949C31C357DF4F688387
:1052F00079838A839B83CD58D040CF56DF4F188265
:1053000019821A821B82C159D040CB56DF4F1882B6
:1053100019821A821B82C559D040C756DF4F1882A6
:1053200019821A821B82C959D040C356DF4F688345
:1053300079838A839B83CD59D040CF55DF4F188224
:1053400019821A821B82C15AD040CB55DF4F188276
:1053500019821A821B82C55AD040C755DF4F188266
:1053600019821A821B82C95AD040C355DF4F688305
:1053700079838A839B83CD5AD040DE01AB5BBF4FDC
:10538000C354DF4FB983A883CD5BD040C154DF4FF6
:1053900019830883CF5BD040C954DF4F198218822C
:1053A000C75BD040FE01BD96CF54DF4FF983E88341
:1053B000C15BD040CF53DF4F0883C15CD040CE5398
:1053C000DF4F1883C25CD0406CC0CD54DF4FA88142
:1053D000B981C35BD0406D917D918D919D91CD54EC
:1053E000DF4FB983A883C35BD040CB54DF4FE88144
:1053F000F981C55BD0402191319141915191CB54BC
:10540000DF4FF983E883C55BD040D1014D905D90BB
:105410006D907D901D018FD76B017C01A3019201DE
:10542000C501B4010E949E34C754DF4F28813981E1
:105430004A815B81C95BD0400E9480329B01AC01F4
:10544000C701B60179D7F8016083718382839383A2
:10545000045F1F4FCF54DF4F28813981C15BD0409B
:105460002216330609F0B1CFC954DF4F88819981E4
:10547000C75BD0400C96C954DF4F99838883C75BC4
:10548000D040C354DF4FA881B981CD5BD040149682
:10549000C354DF4FB983A883CD5BD040849709F410
:1054A00044C0C154DF4FE881F981CF5BD0406191A6
:1054B000719181919191C154DF4FF983E883CF5B62
:1054C000D0409B01AC0138D74B015C01C354DF4F86
:1054D00008811981CD5BD040CF53DF4F2880C15C5C
:1054E000D040CE53DF4F3880C25CD04029E630E058
:1054F0002C0F3D1FC954DF4F88819981C75BD04075
:10550000280F391FCB54DF4F39832883C55BD04028
:10551000ADE8B0E0AC0FBD1FA80FB91FCD54DF4FF1
:10552000B983A883C35BD04050CFAE01475C5F4FC7
:10553000BE016B5B7F4FCE018D960E943B1E8E019C
:10554000075C1F4F0F2EFEE5CF2EF4E0DF2EF02D6F
:10555000CB53DF4FE880C55CD040CA53DF4FF880A3
:10556000C65CD0401801BCE02B0E311CF8016191E3
:105570007191819191918F01D6014D905D906D90C7
:105580007D906D0128E031E244E05DE30E949E34AD
:105590004B015C0120EF3DEB47E75FE3C301B20144
:1055A0000E949E349B01AC01C501B401C5D6F70130
:1055B00061937193819391937F0102151305B1F665
:1055C0006AE674E0CD53DF4F8881C35CD040CC5392
:1055D000DF4F9881C45CD0400E940A1D6EE574E0E4
:1055E000CB53DF4F8881C55CD040CA53DF4F9881D1
:1055F000C65CD0400E94EB1CCA53DF4F0FB6F89434
:10560000DEBF0FBECDBFDF91CF911F910F91FF90F5
:10561000EF90DF90CF90BF90AF909F908F907F9052
:105620006F905F904F903F902F90089517BA86E04B
:1056300087BB87B3816387BB88B3806388BBC0980F
:105640008FE58DB908958FB9779BFECF8FB10895FF
:105650002F923F924F925F926F927F928F929F9282
:10566000AF92BF92CF92DF92EF92FF920F931F9370
:10567000CF93DF93CDB7DEB72C970FB6F894DEBF8C
:105680000FBECDBFC09AC5988FEC97E00197F1F798
:1056900000C000008FEFD7DFEFECF7E03197F1F7B4
:1056A00000C000008FEF8BBBCEDFB82E8FEC97E0F1
:1056B0000197F1F700C000008FEFC5DFC82EEFECB7
:1056C000F7E03197F1F700C000008FEFBCDF982EB4
:1056D0008FEC97E00197F1F700C000008FEFB3DF88
:1056E000A82EEFECF7E03197F1F700C000008FEF44
:1056F000AADFE82E8FEC97E00197F1F700C00000D9
:105700008FEFA1DF882EEFECF7E03197F1F700C0C3
:1057100000008FEF98DFF82E8FEC97E00197F1F7FC
:1057200000C000008FEF8FDF682EEFECF7E03197BD
:10573000F1F700C000008FEF86DF082F8FEC97E0B5
:105740000197F1F700C000008FEF7DDF482EEFECEE
:10575000F7E03197F1F700C000008FEF74DF182FEA
:105760008FEC97E00197F1F700C000008FEF6BDF3F
:10577000EFECF7E03197F1F700C00000D12CDC2C02
:10578000CC24CB0CD11CDA82C982B12CBA2CAA242D
:10579000A90CB11CBC82AB82912C982C88248E0C55
:1057A000911C9E828D82712C762C66246F0C711C4C
:1057B00078866F82512C542C4424400E511C5A86FA
:1057C0004986282E312C322C2224210E311C3C8675
:1057D0002B86CE0101967C0100E010E0F70161917B
:1057E00071917F0180E090E024D723E333E343E528
:1057F00050E40E949E3420E030E040E85AE30E94EA
:105800009E34F801EE0FFF1FEE0FFF1FE953FB4F11
:1058100061AB72AB83AB94AB0F5F1F4F06301105CA
:10582000E9F600E010E0F801EE0FFF1FEE0FFF1F9A
:10583000E953FB4F61A972A983A994A920E030E044
:105840004FE753E40E949E3423E333E343E550E4FF
:1058500057D6C3D6862F90E06CD00F5F1F4F06300F
:10586000110509F7F1E3CF16F5E7DF06C8F421E3E8
:10587000A21625E7B206A0F481E3881685E798060C
:1058800078F491E3691695E7790650F4E1E34E1652
:10589000E5E75E0628F4F1E32F16F5E73F0648F04A
:1058A0002FEF8DE399E4215080409040E1F700C054
:1058B0000000C59A2C960FB6F894DEBF0FBECDBF80
:1058C000DF91CF911F910F91FF90EF90DF90CF90DC
:1058D000BF90AF909F908F907F906F905F904F9010
:1058E0003F902F90089586B7806186BF1EBC1DBC77
:1058F0001CBC88E09DE39BBD8ABD1FBC85E08EBDBE
:1059000010927A00089506B604FEFDCFECCF0895FC
:105910001BB81AB8E5E9F0E01082599A8AB188619B
:105920008AB980818E60808387E689B91092900061
:1059300008955D9BFECF8CB90895FC012081222340
:1059400039F031965D9BFECF2CB921912111FACF10
:10595000089510927100109274008CE08093700092
:10596000089584EA80937400E4E7F0E0808188235E
:10597000ECF7E1E7F0E08081887F8830E1F7089577
:105980008093730084E880937400A4E7B0E0E1E7BB
:10599000F0E004C08081887F8831E1F78C91882312
:1059A000CCF708958093730084E880937400E4E753
:1059B000F0E080818823ECF7E1E7F0E08081887FE8
:1059C0008034E1F708958093730084E88093740035
:1059D000E4E7F0E080818823ECF7E1E7F0E0808104
:1059E000887F8832E1F7089584E880937400E4E7C3
:1059F000F0E080818823ECF7E1E7F0E08081887FA8
:105A00008835E1F78091730080932C05089584E92F
:105A100080937400E4E7F0E0808184FFFDCF089577
:105A2000E5E3F5E08CE395E03FEF21912FB9779B1B
:105A3000FECF3BBBAFECB7E01197F1F700C0000021
:105A4000E817F90791F70895CF93DF93CDB7DEB745
:105A500068970FB6F894DEBF0FBECDBFE7DD58DF05
:105A60000E94DF1B0E94D31F80EF8ABB1092E804C4
:105A700087B3816287BB2FEF33ED80E32150304045
:105A80008040E1F700C0000080ED8BBB62DF86E95B
:105A900091E053DF8DE991E050DF9FEFA1E1BAE79C
:105AA0009150A040B040E1F700C0000078941092FF
:105AB0002D0510922E0510922F0510923005109290
:105AC00031051092320510923305109234050F2ED5
:105AD000FCE32F2EF5E03F2EF02D05DF8091220113
