:100000000C942A000C9447000C9447000C94470071
:100010000C9447000C9447000C9447000C94470044
:100020000C9447000C9447000C9447000C94470034
:100030000C9447000C9447000C9447000C94470024
:100040000C9447000C9447000C9447000C94470014
:100050000C94470011241FBECFE5D8E0DEBFCDBF12
:1000600011E0A0E6B0E0ECE4F7E002C005900D92EC
:10007000A431B107D9F721E0A4E1B1E001C01D929C
:10008000AF3CB207E1F70E945B030C94A4030C940D
:1000900000005D9BFECF8CB90895CF93DF93EC01F8
:1000A0008881882331F021960E944900899181112D
:1000B000FBCFDF91CF9108951F93CF93DF93EC0196
:1000C000162F662329F089910E9449001150D9F713
:1000D000DF91CF911F91089514BA8FEF8ABB1AB8A0
:1000E0001BB886E080BD10BC8FE589B91BB888E0DD
:1000F0008AB9BE98BF9ABD9ABC9AB89883E58DB963
:100100001EB8C49AC598C79A83B7896683BF81EA27
:100110008FBD89E08EBD85B5896685BDBB9A8D9AF8
:100120008C9A8F9A0895C498B699FECF80688FB93B
:10013000779BFECF8FB11FB8779BFECF8FB1C49A4C
:100140000895C498B699FECF8FB9779BFECF8FB133
:100150006FB9779BFECF8FB1C49A0895C498B699B2
:10016000FECF8FB9779BFECF8FB1C49A0895C49804
:10017000B699FECF806C8FB9779BFECF8FB14115BA
:10018000510559F0FB01460F571F1FB8779BFECF53
:100190008FB18193E417F507C1F7C49A0895C49805
:1001A000B699FECF80648FB9779BFECF8FB1411592
:1001B000510551F0FB01460F571F81918FB9779B75
:1001C000FECFE417F507C9F7C49A0895C49A00C092
:1001D00000C00000C49883E08A95F1F70000C49A3B
:1001E0008DE08A95F1F700C0C498B699FECF80E300
:1001F0008FB9779BFECF8FB1B699FECFC49A81E8B5
:1002000090E00E944D000895CF93DF93EC01688148
:1002100082E00E94A10082E00E9493000E944900B7
:10022000698183E00E94A10083E00E9493000E9404
:1002300049006A8188E00E94A10088E00E94930042
:100240000E9449006B818BE00E94A1008BE00E941C
:1002500093000E9449006C818DE00E94A1006D8195
:100260008EE00E94A1006E818FE00E94A1006F814C
:1002700080E10E94A100688581E10E94A10069855A
:1002800082E10E94A1006A8585E10E94A1006B8540
:1002900088E10E94A1006C8589E10E94A1006D8522
:1002A00080E20E94A1006E8583E20E94A1006F851A
:1002B00084E20E94A100688985E20E94A100698908
:1002C00086E20E94A1006A898CE20E94A1006C89EA
:1002D0008EE20E94A1008AE990E00E944D00DF9129
:1002E000CF91089580539CE1899F802D11248CBF6C
:1002F000089590E0819770E060537109869F9001A6
:10030000879F300D969F300D1124332314F4295FFD
:100310003F4F3595279535952795359527953BBDC5
:100320002ABD089590E0819770E060537109869F1F
:100330009001879F300D969F300D1124332314F4C4
:10034000295F3F4F35952795359527953595279505
:1003500039BD28BD089590E0819770E06053710920
:10036000869F9001879F300D969F300D1124332377
:1003700014F4295F3F4F3595279535952795359589
:10038000279523BD0895CF93DF93EC0189E0EAEA36
:10039000F0E0A3E9B1E001900D928A95E1F786E3E0
:1003A0000E94AE0041E050E060E670E08EE30E9403
:1003B000CF008BE30E94AE00AE0163E971E08FE3F2
:1003C0000E94CF0081EE94E00197F1F700C0000099
:1003D00085E30E94AE008FE295E70197F1F700C038
:1003E000000083EB90E00E944D0085B3809585BBB3
:1003F00086E30E94AE0087EA91E60197F1F700C01C
:100400000000DF91CF9108951092800086EC90E07B
:100410000E944D0086E30E94AE0041E050E060E69D
:1004200070E08EE30E94CF0089EF90E00197F1F732
:1004300000C000008AE30E94AE0084E30E94AE0088
:1004400080ED90E00E944D0088248394612C712CF3
:100450000F2EF9E39F2EF02D0F2EF0E3AF2EF02D8F
:100460000F2EF1E3BF2EF02DC3B280919201C8167A
:1004700009F4C2C0EFE1FEE43197F1F700C00000DB
:1004800080919201C81609F4B7C08C25809392011F
:10049000882309F4A6C0D82C262D372DE9012196F2
:1004A00080FF76C080911801909119018C179D07EB
:1004B000A8F0275F3F4FF901E65EFE4F8081813350
:1004C00029F4F901E65EFE4FA08204C0F901E65E60
:1004D000FE4FB0828BB38D258BBB5AC04091160165
:1004E00050911701480F591F4C175D07C0F0265F48
:1004F0003F4FF901E65EFE4F8081813328F0F9011C
:10050000E65EFE4FA08204C0F901E65EFE4F9082D7
:10051000F901E65EFE4F80810E94720139C0609150
:10052000140170911501460F571F4C175D0708F411
:10053000BBC0E9012496C9010E96FC01E65EFE4FA0
:100540004081413328F0FC01E65EFE4FA08204C0EA
:10055000FC01E65EFE4F9082AC01465E5E4F7A0182
:100560008901065E1E4FFA016081F80183850E94B1
:100570007901F7016081F80184850E949201F701F9
:100580006081F80185850E94AB018BB38D258BBB03
:1005900080911801909119018C179D0790F420917A
:1005A000160130911701820F931F8C179D0760F47D
:1005B0002091140130911501820F931F8C179D0714
:1005C00028F0DD0C9E0103C09E0101C09E018091B8
:1005D000920190E09595879580939201009709F09C
:1005E0005DCF6AE171E083E991E00E949D03C092D2
:1005F00092018092800004C0809180008130E9F4F3
:1006000080917600909177000E94C30186E30E945A
:10061000AE0041E050E060E670E08EE30E94CF0063
:1006200089EF90E00197F1F700C000008AE30E9493
:10063000AE0084E30E94AE0017CFB09B15CFB099F7
:10064000FECF8BEF0E9493009FE9E6E8F1E0915026
:10065000E040F040E1F700C0000048E050E066E50F
:1006600071E08FE30E94B70068E086E591E00E94A8
:100670005C0083EC90E00E944D0086E30E94AE0097
:1006800041E050E060E670E08EE30E94CF0089EF29
:1006900090E00197F1F700C000008AE30E94AE00ED
:1006A00084E30E94AE00E0CE209116013091170144
:1006B000820F931F7DCF81E084BB8FEF85BBF894C1
:1006C0000E946C00789486ED90E00E944D002FE728
:1006D0008AE196E0215080409040E1F700C00000A0
:1006E0000E94E6008CEE90E00E944D0081E690E0D2
:1006F0000E94040186EC90E00E944D0081EF0E9470
:100700009300C82F8BEF90E00E944D008C2F0E9429
:100710004900E8E7F0E0AAE1B1E08FE790E021913D
:100720002D93E817F907D9F788E790E00E944D006C
:1007300083B3809392010E940402FB01DC010190CB
:0C0740000D920020E1F70895F894FFCF1F
:10074C00600647050610B13BF68313151816FBE936
:10075C002A001F8135090A00244D414E474F3100B4
:10076C000165786974696E6720706F7765722066B1
:10077C00756E6374696F6E0D0A0065786974696EC5
:10078C00672073657475700D0A00244D414E474FF8
:10079C003A50000D0A7472616E736D6974746564FD
:1007AC002E2E2E0D0A00537461727465640D0A00AE
:1007BC00626F6F0D0A006363313130315F506F77B8
:1007CC0065724F6E52657365740D0A006363313147
:1007DC0030315F53657475700D0A007072696E74F8
:1007EC00696E672070617274206E756D6265722E11
:0407FC002E2E090094
:00000001FF
