:100000000C9446000C9465000C9465000C946500FB
:100010000C9465000C9465000C9465000C946500CC
:100020000C9465000C9465000C9465000C946500BC
:100030000C9465000C9465000C9465000C946500AC
:100040000C9465000C9451020C9465000C946500AE
:100050000C9465000C9465000C9465000C9465008C
:100060000C9465000C9465000C9465000C9465007C
:100070000C9465000C9465000C9465000C9465006C
:100080000C9465000C9465000C94650011241FBE4F
:10009000CFEFD0E1DEBFCDBF11E0A0E0B1E0E0E303
:1000A000FCE000E00BBF02C007900D92AC3BB10733
:1000B000D9F722E0ACEBB1E001C01D92A13CB20740
:1000C000E1F70E9425010C9416060C94000098E0BC
:1000D000262F217076956795382F3170321721F0D1
:1000E00028E0622724E872278695915089F7CB0192
:1000F00008950F931F93CF93DF93662391F0EC0144
:100100006150062F10E00F5F1F4F080F191F8FEF70
:100110009FEFBC0189910E946700C017D107C9F702
:1001200002C08FEF9FEF80959095DF91CF911F9147
:100130000F910895EF92FF920F931F93CF93DF9348
:10014000CDB7DEB72A970FB6F894DEBF0FBECDBF8E
:100150008C018EE7D8018D93AD0186E0E0E0F1E0FF
:10016000DE01119601900D928A95E1F79E012F5FB5
:100170003F4FFA017801B7E0EB0EF11CD9019D91D8
:10018000990F9193EE15FF05D1F780E6F80187836B
:1001900086E0E7E0F1E0DE01119601900D928A958C
:1001A000E1F7F801389678018EE0E80EF11CD901EC
:1001B0009D91990F9193EE15FF05D1F788E6D8012F
:1001C0001E968C9386E0EEE0F1E0DE011196019040
:1001D0000D928A95E1F7F8013F967801B5E1EB0EB3
:1001E000F11CD9019D919D01990F9193EE15FF0589
:1001F000C1F781E6F801858B83E0868B80EF878BE2
:10020000D801589687E0FB0101900D928A95E1F79D
:100210006EE1CA010E947900D80190969C938E935A
:100220005F978EE791968C932A960FB6F894DEBF6F
:100230000FBECDBFDF91CF911F910F91FF90EF9037
:1002400008951498159A1D9A0895CF93DF93CDB70A
:10025000DEB7C857D1400FB6F894DEBF0FBECDBF92
:100260008FE08ABB8BBB2FEF39E698E121503040FD
:100270009040E1F700C000001BBA2FEF39E698E18B
:10028000215030409040E1F700C000008BBB2FEFC1
:1002900039E688E1215030408040E1F700C000009D
:1002A0001BBA9FEF29E638E1915020403040E1F73A
:1002B00000C000000E941E038DE00E942F038DE00D
:1002C0000E942F0388E40E942F0385E60E942F03DB
:1002D0008CE60E942F038CE60E942F038FE60E947B
:1002E0002F0388E2E3E9F1E0DE01119601900D921F
:1002F0008A95E1F7CE0101960E94330385E2E5E19C
:10030000F1E0DE01119601900D928A95E1F78EE100
:10031000EAE3F1E0DE01999601900D928A95E1F70A
:100320000E94A7028FEF99E628E18150904020407B
:10033000E1F700C000000E9421017894A12C0F2E4B
:10034000FAE0CF2EF02D0F2EF5E0DF2EF02D9924C0
:1003500093940F2EF8E5EF2EF1E0FF2EF02D8E0195
:100360000F5A1F4FCBBA3FEF84E39CE031508040DF
:100370009040E1F700C00000DBBA2FEF34E38CE0DF
:10038000215030408040E1F700C000008DE00E9425
:100390002F038DE00E942F0388E40E942F0389E63B
:1003A0000E942F03CE0189960E943303CBBA9FEFA0
:1003B00024E33CE0915020403040E1F700C00000D1
:1003C000DBBA8FEF94E32CE0815090402040E1F7BE
:1003D00000C000008091BC01882309F443C06091F3
:1003E000BD018091BF016250681B80EC91E00E94CA
:1003F0007900E091BD012091BF01F0E03297E21B4E
:10040000F109E054FE4F208131818217930711F5E5
:10041000B090C0013AE5B316E1F083E3B81205C02D
:1004200082E90E94AF02A12C15C095EDB91212C04D
:1004300062EC71E0CE0187589F4F0E949A00CE0176
:1004400089960E943303CE0187589F4F0E94330341
:1004500001C0A92C1092BF011092BE011092BD01E3
:100460001092BC011F92BF92FF92EF921F930F93C5
:100470000E943F03C8010E9433030F900F900F901A
:100480000F900F900F9021E0A2126CCF62E2CE018C
:1004900087589F4F0E94BE028BE791E00E94330372
:1004A00061CF1F920F920FB60F9211240BB60F92CD
:1004B0008F93EF93FF938FB18093C0028091BC0123
:1004C00081112BC08091BE01823038F1E091BD01D5
:1004D000F0E08091C002E054FE4F8083E091BD01C6
:1004E000F0E0E054FE4F80818A3A31F48091BF0100
:1004F0008F5F8093BF0105C08091BF018111109271
:10050000BF018091BF01823019F481E08093BC016A
:100510008091BD018F5F8093BD018091C002873EB5
:1005200031F48091BE018F5F8093BE0106C080913F
:10053000BE01823010F41092BE01FF91EF918F91B5
:100540000F900BBE0F900FBE0F901F90189587B3A2
:10055000807F87BB88E087BB80EC8DB908958FB919
:10056000779BFECF8FB108950C99FECF811102C009
:100570001D9801C01D9A0C9BFECF08955F926F924B
:100580007F928F929F92AF92BF92CF92DF92EF9223
:10059000FF920F931F93CF93DF93D82FC92FE62E8F
:1005A00081E00E94B402EE20C1F1CD2EDC2EAA24FF
:1005B000AA94AE0CB12C8FEFA81AB80A00E010E094
:1005C000812C6894552453F8F12CE1E0EE1AF108DF
:1005D000612CF601D1916F01C52D702EFD2FF078A1
:1005E0009F2E8F2F0E94B402772079F00E151F05E1
:1005F00061F0992049F0839485E0881206C0862D29
:100600000E94B402862C01C0862CDD0FC15031F748
:100610000F5F1F4F0A151B05E1F61D9ADF91CF9161
:100620001F910F91FF90EF90DF90CF90BF90AF9010
:100630009F908F907F906F905F9008951BB81AB82D
:10064000E5E9F0E01082599A8AB188618AB980811F
:100650008E60808387E689B91092900008955D9B33
:10066000FECF8CB90895FC019081992339F0319621
:100670005D9BFECF9CB991919111FACF08950F9394
:100680001F93CF93DF93CDB7DEB72E970FB6F894B5
:10069000DEBF0FBECDBF0D891E8986E08C831A8315
:1006A00009838FEF9FE79E838D83AE01475E5F4F87
:1006B0006F89788DCE0101960E946F032F81388556
:1006C000F801E20FF31F10822E960FB6F894DEBFEA
:1006D0000FBECDBFDF91CF911F910F9108952F9243
:1006E0003F924F925F926F927F928F929F92AF92C2
:1006F000BF92CF92DF92EF92FF920F931F93CF930F
:10070000DF93CDB7DEB72C970FB6F894DEBF0FBEE0
:10071000CDBF7C016B018A01FC01178216828381A7
:1007200081FFBDC1CE0101964C01F7019381F60115
:1007300093FD859193FF81916F01882309F4ABC1EB
:10074000853239F493FD859193FF81916F01853254
:1007500029F4B70190E00E948005E7CF512C312C9D
:1007600020E02032A0F48B3269F030F4803259F06E
:10077000833269F420612CC08D3239F0803339F432
:10078000216026C02260246023C0286021C027FD8C
:1007900027C030ED380F3A3078F426FF06C0FAE073
:1007A0005F9E300D1124532E13C08AE0389E300D09
:1007B0001124332E20620CC08E3221F426FD6BC131
:1007C000206406C08C3611F4206802C0883641F4DB
:1007D000F60193FD859193FF81916F018111C1CF46
:1007E000982F9F7D9554933028F40C5F1F4FFFE3A3
:1007F000F9830DC0833631F0833771F0833509F00A
:100800005BC022C0F801808189830E5F1F4F4424A2
:100810004394512C540115C03801F2E06F0E711C45
:10082000F801A080B18026FF03C0652D70E002C0F2
:100830006FEF7FEFC5012C870E9475052C018301A6
:100840002C852F77222E17C03801F2E06F0E711C15
:10085000F801A080B18026FF03C0652D70E002C0C2
:100860006FEF7FEFC5012C870E946A052C012C8554
:100870002068222E830123FC1BC0832D90E04816A4
:100880005906B0F4B70180E290E00E9480053A94E6
:10089000F4CFF50127FC859127FE81915F01B70117
:1008A00090E00E94800531103A94F1E04F1A51080F
:1008B0004114510471F7E5C0843611F0893639F5D9
:1008C000F80127FF07C060817181828193810C5FED
:1008D0001F4F08C060817181072E000C880B990B97
:1008E0000E5F1F4F2F76722E97FF09C0909580954F
:1008F000709561957F4F8F4F9F4F2068722E2AE031
:1009000030E0A4010E94B805A82EA81844C085377D
:1009100029F42F7EB22E2AE030E025C0F22FF97F95
:10092000BF2E8F36C1F018F4883579F0B4C0803707
:1009300019F0883721F0AFC02F2F2061B22EB4FEFE
:100940000DC08B2D8460B82E09C024FF0AC09F2FD4
:100950009660B92E06C028E030E005C020E130E006
:1009600002C020E132E0F801B7FE07C0608171816A
:10097000828193810C5F1F4F06C06081718180E08E
:1009800090E00E5F1F4FA4010E94B805A82EA81882
:10099000FB2DFF777F2E76FE0BC0372D3E7FA514F3
:1009A00050F474FE0AC072FC08C0372D3E7E05C0AC
:1009B000BA2C372D03C0BA2C01C0B52C34FF0DC0A2
:1009C000FE01EA0DF11D8081803311F4397E09C0EA
:1009D00032FF06C0B394B39404C0832F867809F025
:1009E000B39433FD13C030FF06C05A2CB31418F46F
:1009F000530C5B18B32CB31468F4B70180E290E099
:100A00003C870E948005B3943C85F5CFB31410F465
:100A10003B1801C0312C34FF12C0B70180E390E0D5
:100A20003C870E9480053C8532FF17C031FD03C022
:100A300088E790E002C088E590E0B7010CC0832F02
:100A4000867859F031FF02C08BE201C080E237FDA9
:100A50008DE2B70190E00E948005A51438F4B7013B
:100A600080E390E00E9480055A94F7CFAA94F401A5
:100A7000EA0DF11D8081B70190E00E948005A11070
:100A8000F5CF332009F451CEB70180E290E00E9407
:100A900080053A94F6CFF7018681978102C08FEFE7
:100AA0009FEF2C960FB6F894DEBF0FBECDBFDF913F
:100AB000CF911F910F91FF90EF90DF90CF90BF905B
:100AC000AF909F908F907F906F905F904F903F90EE
:100AD0002F900895FC010590615070400110D8F7E7
:100AE000809590958E0F9F1F0895FC016150704076
:100AF00001900110D8F7809590958E0F9F1F089553
:100B00000F931F93CF93DF93FB01238121FD03C03C
:100B10008FEF9FEF28C022FF16C0468157812481A6
:100B200035814217530744F4A081B1819D012F5FA5
:100B30003F4F318320838C93268137812F5F3F4F36
:100B40003783268310C0EB01092F182F0084F1850D
:100B5000E02D0995892BE1F68E819F8101969F8377
:100B60008E83812F902FDF91CF911F910F91089548
:100B7000FA01AA27283051F1203181F1E8946F93CE
:100B80006E7F6E5F7F4F8F4F9F4FAF4FB1E03ED074
:100B9000B4E03CD0670F781F891F9A1FA11D680F12
:100BA000791F8A1F911DA11D6A0F711D811D911D45
:100BB000A11D20D009F468943F912AE0269F1124BA
:100BC0003019305D3193DEF6CF010895462F47701E
:100BD000405D4193B3E00FD0C9F7F6CF462F4F7079
:100BE000405D4A3318F0495D31FD4052419302D0D7
:100BF000A9F7EACFB4E0A69597958795779567957D
:100C0000BA95C9F700976105710508959B01AC017C
:100C10000A2E06945795479537952795BA95C9F7A3
:100C2000620F731F841F951FA01D0895F894FFCFB6
:100C300043512020202000565532444D510052454A
:100C40004C41592000095468697320697320485544
:100C5000535341494E2773204F42432D536C6176C5
:100C60006520636F64652E2E2E000D446174612033
:100C700072656365697665642066726F6D204D618B
:100C800073746572203A09000D436F6D6D616E6477
:100C90002072656365697665642066726F6D204DAC
:100CA0006173746572203A092564000D5472616E97
:100CB000736D697373696F6E20636F6D706C6574AB
:100CC000650D00092E2E5468697320697320494907
:100CD000544227732053747564656E742053617495
:0C0CE000656C6C6974652E2E2E0D0000F2
:00000001FF
