S015000068536C6176655F4343746573742E7372656307
S11300000C9446000C9465000C9465000C946500F7
S11300100C9465000C9465000C9465000C946500C8
S11300200C9465000C9465000C9465000C946500B8
S11300300C9465000C9465000C9465000C946500A8
S11300400C9465000C9465000C9465000C94650098
S11300500C9465000C9465000C9465000C94650088
S11300600C9465000C9465000C9465000C94650078
S11300700C9465000C9465000C9465000C94650068
S11300800C9465000C9465000C94650011241FBE4B
S1130090CFEFD0E1DEBFCDBF12E0A0E0B1E0E8E1F8
S11300A0FFE000E00BBF02C007900D92A23BB10736
S11300B0D9F723E0A2EBB2E001C01D92AA39B2073E
S11300C0E1F70E9434030C948A070C94000098E032
S11300D0262F217076956795382F3170321721F0CD
S11300E028E0622724E872278695915089F7CB018E
S11300F008950F931F93CF93DF93662391F0EC0140
S11301006150062F10E00F5F1F4F080F191F8FEF6C
S11301109FEFBC0189910E946700C017D107C9F7FE
S113012002C08FEF9FEF80959095DF91CF911F9143
S11301300F910895EF92FF920F931F93CF93DF9344
S1130140CDB7DEB72A970FB6F894DEBF0FBECDBF8A
S11301508C018EE7D8018D93AD0186E0E0E0F1E0FB
S1130160DE01119601900D928A95E1F79E012F5FB1
S11301703F4FFA017801B7E0EB0EF11CD9019D91D4
S1130180990F9193EE15FF05D1F780E6F801878367
S113019086E0E7E0F1E0DE01119601900D928A9588
S11301A0E1F7F801389678018EE0E80EF11CD901E8
S11301B09D91990F9193EE15FF05D1F788E6D8012B
S11301C01E968C9386E0EEE0F1E0DE01119601903C
S11301D00D928A95E1F7F8013F967801B5E1EB0EAF
S11301E0F11CD9019D919D01990F9193EE15FF0585
S11301F0C1F781E6F801858B83E0868B80EF878BDE
S1130200D801589687E0FB0101900D928A95E1F799
S11302106EE1CA010E947900D80190969C938E9356
S11302205F978EE791968C932A960FB6F894DEBF6B
S11302300FBECDBFDF91CF911F910F91FF90EF9033
S11302400895A698A79AAF9A0895CF93DF93C82FDD
S1130250D62F80E00E941D048C2F880F81600E949D
S11302602A048D2F0E942A040E942F04DF91CF912B
S11302700895CF93C82F80E00E941D048C2F880F0F
S11302800E942A048FEF0E942A04C82F0E942F0480
S11302908C2FCF910895CF93DF936FE180E00E947C
S11302A0250180E00E943901809399031F928F9366
S11302B085E191E09F938F93C5E3D3E0DF93CF93E0
S11302C00E94B30409900020E9F72197BE01655309
S11302D0734085E393E00E94820460E08CE10E9415
S11302E025010F900F900F900F900F900F90DF91BA
S11302F0CF9108956EE080E00E9425016FE180E0D7
S11303000E94250108950F931F93CF9307E811E0EE
S1130310C1E0F80161918F018C2F0E942501CF5F0C
S1130320C132B9F7CF911F910F910895CF93C82F80
S11303306BE180E00E9425016C2F87E10E9425017A
S11303408FE697E10197F1F700C0000069E180E0D2
S11303500E9425018BE291E00197F1F700C00000B3
S113036061E180E00E942501CF910895CF93DF934E
S1130370C82F6BED80E00E9425016C2F87E10E945D
S113038025018FE697E10197F1F700C0000069EDC0
S113039080E00E9425018BE291E00197F1F700C013
S11303A0000061ED80E00E94250180E00E94390197
S11303B0809399031F928F9385E191E09F938F938C
S11303C0C5E3D3E0DF93CF930E94B30409900020E8
S11303D0E9F72197BE016553734085E393E00E94DA
S11303E082040F900F900F900F900F900F90DF9159
S11303F0CF910895DF92EF92FF920F931F93CF93C3
S1130400DF93D82E60E08CE10E94250104E010E027
S11304100F2EFFE1EF2EF02DF12C64EB8BE10E9407
S1130420250187EC90E00197F1F700C00000CE2D84
S1130430DF2D06C08FEC97E00197F1F700C00000B4
S113044080E40E943901882364F0219799F7CE2D26
S1130450DF2D09C08FEC97E00197F1F700C0000091
S113046002C0CE2DDF2D80E40E94390184FD02C03C
S1130470219781F780E40E94390184FD03C0015073
S1130480110959F66D2D8CE10E94250180E40E942A
S113049039018295817090E0DF91CF911F910F9186
S11304A0FF90EF90DF9008950F931F93CF93DF9306
S11304B0CDB7DEB76E970FB6F894DEBF0FBECDBFD3
S11304C080E00E941D042FEF84E39CE021508040D3
S11304D09040E1F700C000000E944B010E947A01A5
S11304E00E9483012FEF84E39CE0215080409040E0
S11304F0E1F700C0000087E40E94960180EF0E94AB
S1130500FA01892B29F080E291E00E94900404C052
S113051084E391E00E9490042FEF84E39CE0215057
S113052080409040E1F700C0000087E40E94B601DB
S113053080EF0E94FA01892B29F08BE491E00E945C
S1130540900404C081E691E00E94900480E40E943B
S113055039011F928F9388E791E09F938F938E01C7
S11305600F5F1F4F1F930F930E94B304C8010E9493
S113057090040F900F900F900F900F900F906E9625
S11305800FB6F894DEBF0FBECDBFDF91CF911F91A0
S11305900F9108951F93CF93DF93C82F162F60E018
S11305A08CE10E9425016C2F87E10E94250161ECFA
S11305B080E00E942501CFE1D0E006C08FEC97E0F7
S11305C00197F1F700C0000080E40E94390184FD26
S11305D002C0219799F780E40E94390184FD08C084
S11305E0812F0E94FA01C1E0892B19F4C0E001C0F7
S11305F0C1E0612F8CE10E94250181E00E94390154
S1130600682F6F7E81E00E94250160E285E10E94EF
S113061025018C2FDF91CF911F910895A79AAF9A4E
S113062087E40E94B60160EF87E40E94CA0290E06A
S11306300895CF9387EA91E00E949004C0E08AEB8A
S113064091E00E9490048C2F0E949C0482EC91E023
S11306500E9490048C2F0E9439010E949C04CF5F59
S1130660C13269F7CF910895EF92FF920F931F93D0
S1130670CF93DF93CDB7DEB7C054D1400FB6F89413
S1130680DEBF0FBECDBF2FEF89E698E12150804039
S11306909040E1F700C000000E946D048DE00E94CC
S11306A07E048DE00E947E0488E40E947E0485E638
S11306B00E947E048CE60E947E048CE60E947E04E6
S11306C08FE60E947E0488E2E9E8F2E0DE011196FA
S11306D001900D928A95E1F7CE0101960E94900453
S11306E085E2E6ECF1E0DE01119601900D928A9527
S11306F0E1F786E2EBEEF1E0DE01AF5ABF4F019085
S11307000D928A95E1F70E9415042FEF89E698E18E
S1130710215080409040E1F700C000000E94210178
S11307200E9454020E9419038CE0E1E1F2E0DE0130
S1130730A758BF4F01900D928A95E1F787E0EDE14C
S1130740F2E0DE01A352BF4F01900D928A95E1F7CA
S113075085E1E4E2F2E0A9E1B3E001900D928A952B
S1130760E1F70F2EF9E3EF2EF2E0FF2EF02D8E01CC
S1130770075D1F4F2FEF89E698E12150804090409C
S1130780E1F700C000008DE00E947E048DE00E942D
S11307907E0488E40E947E0489E60E947E04CE01E1
S11307A001960E949004CE018F5A9F4F0E9490049C
S11307B00E940E03882329F199279F938F93FF9218
S11307C0EF921F930F930E94B304C8010E949004F8
S11307D0BE0163527F4FCE0187589F4F0E949A00FB
S11307E089E193E00E944B048EE592E00E9490041C
S11307F00E944B010F900F900F900F900F900F904D
S1130800B9CF86E792E00E94900480E090E0C05C5B
S1130810DE4F0FB6F894DEBF0FBECDBFDF91CF9190
S11308201F910F91FF90EF900895BB9886E087BBCE
S1130830B89AC09A83E58DB90895C09A98B321E017
S113084030E002C0220F331F8A95E2F72095292356
S113085028BB08958FB9779BFECF8FB10895C09AB6
S113086008950F931F93CF93C82F08E010E09E9B29
S1130870FECF9E99FECFCC2314F0AF9801C0AF9A5F
S1130880CC0F8C2F0E949C040150110981F7CF9149
S11308901F910F9108950F931F93CF93DF938C01B2
S11308A08FEF0E9431048FEF0E9431048EEF0E947B
S11308B0310487E70E94310488E70E943104E8018B
S11308C00C5E1F4F89910E943104C017D107D1F7E4
S11308D0DF91CF911F910F9108951BB81AB8E5E9E4
S11308E0F0E01082599A8AB188618AB980818E6059
S11308F0808387E689B91092900008955D9BFECFAE
S11309008CB908956115710551F0FC01680F791FC8
S11309105D9BFECF91919CB9E617F707C9F708953F
S1130920FC019081992339F031965D9BFECF9CB9EF
S113093091919111FACF0895CF93C82F82958F701A
S11309408A3010F4805D01C0895A0E947E04CF7001
S1130950CA3018F480E38C0F02C087E58C0F0E9424
S11309607E04CF9108950F931F93CF93DF93CDB758
S1130970DEB72E970FB6F894DEBF0FBECDBF0D893C
S11309801E8986E08C831A8309838FEF9FE79E83F9
S11309908D83AE01475E5F4F6F89788DCE010196DE
S11309A00E94E3042F813885F801E20FF31F1082BF
S11309B02E960FB6F894DEBF0FBECDBFDF91CF9158
S11309C01F910F9108952F923F924F925F926F92D1
S11309D07F928F929F92AF92BF92CF92DF92EF92CB
S11309E0FF920F931F93CF93DF93CDB7DEB72C976E
S11309F00FB6F894DEBF0FBECDBF7C016B018A0138
S1130A00FC0117821682838181FFBDC1CE0101964C
S1130A104C01F7019381F60193FD859193FF819138
S1130A206F01882309F4ABC1853239F493FD8591B4
S1130A3093FF81916F01853229F4B70190E00E9400
S1130A40F406E7CF512C312C20E02032A0F48B3275
S1130A5069F030F4803259F0833269F420612CC09B
S1130A608D3239F0803339F4216026C0226024604D
S1130A7023C0286021C027FD27C030ED380F3A304D
S1130A8078F426FF06C0FAE05F9E300D1124532E41
S1130A9013C08AE0389E300D1124332E20620CC01E
S1130AA08E3221F426FD6BC1206406C08C3611F40D
S1130AB0206802C0883641F4F60193FD859193FFC6
S1130AC081916F018111C1CF982F9F7D95549330EF
S1130AD028F40C5F1F4FFFE3F9830DC0833631F018
S1130AE0833771F0833509F05BC022C0F80180813F
S1130AF089830E5F1F4F44244394512C540115C025
S1130B003801F2E06F0E711CF801A080B18026FF5D
S1130B1003C0652D70E002C06FEF7FEFC5012C8725
S1130B200E94E9062C0183012C852F77222E17C001
S1130B303801F2E06F0E711CF801A080B18026FF2D
S1130B4003C0652D70E002C06FEF7FEFC5012C87F5
S1130B500E94DE062C012C852068222E830123FCB2
S1130B601BC0832D90E048165906B0F4B70180E20B
S1130B7090E00E94F4063A94F4CFF50127FC8591A5
S1130B8027FE81915F01B70190E00E94F4063110C5
S1130B903A94F1E04F1A51084114510471F7E5C039
S1130BA0843611F0893639F5F80127FF07C06081D2
S1130BB07181828193810C5F1F4F08C060817181B4
S1130BC0072E000C880B990B0E5F1F4F2F76722E89
S1130BD097FF09C090958095709561957F4F8F4FD1
S1130BE09F4F2068722E2AE030E0A4010E942C0757
S1130BF0A82EA81844C0853729F42F7EB22E2AE0E7
S1130C0030E025C0F22FF97FBF2E8F36C1F018F4E3
S1130C10883579F0B4C0803719F0883721F0AFC037
S1130C202F2F2061B22EB4FE0DC08B2D8460B82E00
S1130C3009C024FF0AC09F2F9660B92E06C028E081
S1130C4030E005C020E130E002C020E132E0F801EC
S1130C50B7FE07C060817181828193810C5F1F4F51
S1130C6006C06081718180E090E00E5F1F4FA40197
S1130C700E942C07A82EA818FB2DFF777F2E76FE46
S1130C800BC0372D3E7FA51450F474FE0AC072FCCD
S1130C9008C0372D3E7E05C0BA2C372D03C0BA2CB0
S1130CA001C0B52C34FF0DC0FE01EA0DF11D808199
S1130CB0803311F4397E09C032FF06C0B394B39473
S1130CC004C0832F867809F0B39433FD13C030FF3A
S1130CD006C05A2CB31418F4530C5B18B32CB31479
S1130CE068F4B70180E290E03C870E94F406B39474
S1130CF03C85F5CFB31410F43B1801C0312C34FFFC
S1130D0012C0B70180E390E03C870E94F4063C8562
S1130D1032FF17C031FD03C088E790E002C088E5C8
S1130D2090E0B7010CC0832F867859F031FF02C0E0
S1130D308BE201C080E237FD8DE2B70190E00E94B2
S1130D40F406A51438F4B70180E390E00E94F40699
S1130D505A94F7CFAA94F401EA0DF11D8081B701EA
S1130D6090E00E94F406A110F5CF332009F451CE8F
S1130D70B70180E290E00E94F4063A94F6CFF701BE
S1130D808681978102C08FEF9FEF2C960FB6F8945F
S1130D90DEBF0FBECDBFDF91CF911F910F91FF90AA
S1130DA0EF90DF90CF90BF90AF909F908F907F9007
S1130DB06F905F904F903F902F900895FC010590A5
S1130DC0615070400110D8F7809590958E0F9F1F49
S1130DD00895FC016150704001900110D8F780958E
S1130DE090958E0F9F1F08950F931F93CF93DF93BA
S1130DF0FB01238121FD03C08FEF9FEF28C022FF59
S1130E0016C046815781248135814217530744F423
S1130E10A081B1819D012F5F3F4F318320838C934B
S1130E20268137812F5F3F4F3783268310C0EB0124
S1130E30092F182F0084F185E02D0995892BE1F6FF
S1130E408E819F8101969F838E83812F902FDF91C6
S1130E50CF911F910F910895FA01AA27283051F1DB
S1130E60203181F1E8946F936E7F6E5F7F4F8F4FD7
S1130E709F4FAF4FB1E03ED0B4E03CD0670F781F36
S1130E80891F9A1FA11D680F791F8A1F911DA11D1B
S1130E906A0F711D811D911DA11D20D009F4689454
S1130EA03F912AE0269F11243019305D3193DEF6FC
S1130EB0CF010895462F4770405D4193B3E00FD0B2
S1130EC0C9F7F6CF462F4F70405D4A3318F0495D9D
S1130ED031FD4052419302D0A9F7EACFB4E0A69580
S1130EE09795879577956795BA95C9F700976105A2
S1130EF0710508959B01AC010A2E069457954795F8
S1130F0037952795BA95C9F7620F731F841F951FEC
S10B0F10A01D0895F894FFCF21
S1130F1843512020202000565532444D510052455B
S1130F284C41592000526561643A2025780D0A0025
S1130F380D527820636F6E66696720646F6E652E44
S1130F482E2E2E000D527820636F6E666967206519
S1130F5872726F722E2E2E2E0A0D000D5478206395
S1130F686F6E66696720646F6E652E2E2E2E0A0DCD
S1130F78000D547820636F6E666967206572726F1E
S1130F88722E2E2E2E0A0D000A0D2053544154554C
S1130F9853203D202578000FFF8F3A95693A3A95FA
S1130FA8693A44500BCC2F61552F2D1078471422E1
S1130FB8AE34F000000000526567697374657220EE
S1130FC864756D703A0A0D0A0D000D416464722E41
S1130FD82000203A20000954686973206973204866
S1130FE855535341494E2773204F42432D536C6147
S1130FF8766520636F64652E2E2E000D5769726521
S11310086C65737320436F6D6D756E696361746984
S11310186F6E205573696E67204343313032300D4B
S11310280048656C6C6F20576F726C64004E756D68
S11310386265720048656C6C6F576F726C64204906
S11310486D5052415448414D00256420446F6E65EB
S11310583A09504C4C204C6F636B656409547261B7
S11310686E736D697474696E672E2E0D0A000D54C3
S113107872616E736D697373696F6E20636F6D70DF
S11310886C6574650D0009504C4C204C6F636B20E3
S11310984661696C65640D0A00092E2E54686973EB
S11310A82069732049495442277320537475646531
S11310B86E7420536174656C6C6974652E2E2E0DE4
S10510C8000022
S9030000FC
