S0170000684D61737465725F414443746573742E7372656352
S11300000C9446000C9465000C9465000C946500F7
S11300100C9465000C9465000C9465000C946500C8
S11300200C9465000C9465000C9465000C946500B8
S11300300C9465000C9465000C9465000C946500A8
S11300400C9465000C9465000C9467000C94650096
S11300500C9465000C9465000C9465000C94650088
S11300600C9465000C9465000C9465000C94650078
S11300700C9465000C9465000C9465000C94650068
S11300800C9465000C9465000C94650011241FBE4B
S1130090CFEFD0E1DEBFCDBF11E0A0E0B1E0EEE5EF
S11300A0FCE000E00BBF02C007900D92A837B10737
S11300B0D9F722E0A8E7B1E001C01D92AA30B20747
S11300C0E1F70E94B7010C942D060C9400001F92D6
S11300D00F920FB60F9211240BB60F922F938F939A
S11300E09F93AF93BF93EF93FF938CB18093790168
S11300F080917A0190917B01A0917C01B0917D0166
S1130100BA2FA92F982F882780937A0190937B0187
S1130110A0937C01B0937D0180917A0190917B0141
S1130120A0917C01B0917D01882780937A019093FE
S11301307B01A0937C01B0937D0120917901809192
S11301407A0190917B01A0917C01B0917D01822B79
S113015080937A0190937B01A0937C01B0937D01FD
S1130160809106018C30A0F4E09106018091790120
S1130170F0E0E258FE4F8083809106018F5F809308
S11301800601809106018C3019F48FEF80930601EB
S1130190809105018C30A0F4E091050180917901F2
S11301A0F0E0E657FE4F8083809105018F5F8093D6
S11301B00501809105018C3019F48FEF80930501BE
S11301C0809104018430C0F480910401823040F0B5
S11301D0E091040180917901F0E0E250FF4F8083C7
S11301E0809104018F5F8093040180910401843025
S11301F019F48FEF80930401809103018031C0F4DE
S113020080910301843040F0E091030180917901F1
S1130210F0E0EE56FE4F8083809103018F5F809360
S1130220030180910301803119F48FEF809303015E
S1130230809102018730B8F4E09102018091790144
S1130240F0E0EE55FE4F8083809102018F5F809332
S1130250020180910201873031F48FEF8093020113
S113026081E08093780180917A0190917B01A09143
S11302707C01B0917D018C3A9440AF43BF4329F493
S113028010927801109206013FC080917A019091FA
S11302907B01A0917C01B0917D018C3A9540AF43E4
S11302A0BF4319F4109205012FC080917A019091F7
S11302B07B01A0917C01B0917D018C3A9B40AF43BE
S11302C0BF4319F4109204011FC080917A019091E8
S11302D07B01A0917C01B0917D018C3A9E40AF439B
S11302E0BF4319F4109203010FC080917A019091D9
S11302F07B01A0917C01B0917D018C3A9F40AF437A
S1130300BF4311F410920201809100019091010108
S1130310843F9140F0F48091000190910101892B78
S1130320C1F0809178018823A1F081E080930002DC
S113033057988FEF9FEF90930101809300011092E3
S1130340780110927A0110927B0110927C01109234
S11303507D01FF91EF91BF91AF919F918F912F916B
S11303600F900BBE0F900FBE0F901F901895CF9358
S1130370DF93CDB7DEB7C05AD1090FB6F894DEBF0C
S11303800FBECDBF80EF8ABB8BBB2FEF39E698E160
S1130390215030409040E1F700C000001BBA2FEF1D
S11303A039E698E1215030409040E1F700C0000068
S11303B08BBB2FEF39E688E1215030408040E1F7D4
S11303C000C000001BBA9FEF29E638E1915020409D
S11303D03040E1F700C000000E9435038DE00E9428
S11303E046038DE00E94460388E40E94460385E6A6
S11303F00E9446038CE60E9446038CE60E94460354
S11304008FE60E94460388E2E0E5F1E0DE01119602
S113041001900D928A95E1F7CE0101960E944A035C
S113042086E2E7E0F1E0DE01999601900D928A956B
S1130430E1F78FE1EDE2F1E0DE01AF5ABF4F019049
S11304400D928A95E1F70E94B6020F2EF0EA8F2EE4
S1130450F02D0F2EF0E59F2EF02D612C712C0F2E18
S1130460FCE4CF2EF1E0DF2EF02D7E0189E7E80ECB
S1130470F11CAE2CBF2C8BBA9FEF24E33CE09150CF
S113048020403040E1F700C000009BBA8FEF94E3B6
S11304902CE0815090402040E1F700C000008DE046
S11304A00E9446038DE00E94460388E40E944603AE
S11304B089E60E944603CE0189960E944A03CE0132
S11304C08F5A9F4F0E944A038BBA3FEF84E39CE00C
S11304D0315080409040E1F700C000009BBA2FEFFC
S11304E034E38CE0215030408040E1F700C000004C
S11304F00E94A302062D172DF801EE0FFF1FE555EC
S1130500FE4F85A596A59F938F93DF92CF92FF927E
S1130510EF920E945603F70101900020E9F731970A
S1130520BF016E197F098A2D9B2D0E94A8020F5FBF
S11305301F4F0F900F900F900F900F900F90063059
S11305401105D1F698CF0E94DC020E94F4020895AE
S11305506115710551F0FC01680F791F5D9BFECF99
S113056091919CB9E617F707C9F7089587B3807F7F
S113057087BB86E087BB87B3816387BB88B381630E
S113058088BB83E58DB9089598B3916398BB98B3FC
S113059021E030E002C0220F331F8A95E2F7209554
S11305A0292328BB08958FB9779BFECF8FB1089577
S11305B088B3816388BB0895BE9ABF9AC69AC79AC6
S11305C08AE18A95F1F700C085E00E94C40281E4C3
S11305D00E94D30280E00E94D3020E94D8028AE1E2
S11305E08A95F1F700C008950F931F93CF93DF937B
S11305F000E010E085E00E94C402802F86958861A7
S11306000E94D30290E0E801CC0FDD1FC555DE4FF8
S11306109EA78DA78DA59EA5982F88279EA78DA7F9
S11306208DA59EA588279F709EA78DA7C801969526
S1130630982F88279795879580650E94D3022DA5CA
S11306403EA5282B3EA72DA70E94D8028AE18A95B1
S1130650F1F700C00F5F1F4F0630110559F6C69819
S1130660DF91CF911F910F9108951BB81AB8E5E956
S1130670F0E01082599A8AB188618AB980818E60CB
S1130680808387E689B91092900008955D9BFECF20
S11306908CB90895FC019081992339F031965D9BC2
S11306A0FECF9CB991919111FACF08950F931F93A6
S11306B0CF93DF93CDB7DEB72E970FB6F894DEBF96
S11306C00FBECDBF0D891E8986E08C831A830983F2
S11306D08FEF9FE79E838D83AE01475E5F4F6F89E7
S11306E0788DCE0101960E9486032F813885F8010A
S11306F0E20FF31F10822E960FB6F894DEBF0FBEE2
S1130700CDBFDF91CF911F910F9108952F923F920A
S11307104F925F926F927F928F929F92AF92BF920D
S1130720CF92DF92EF92FF920F931F93CF93DF93B9
S1130730CDB7DEB72C970FB6F894DEBF0FBECDBF92
S11307407C016B018A01FC0117821682838181FF7F
S1130750BDC1CE0101964C01F7019381F60193FDD1
S1130760859193FF81916F01882309F4ABC1853290
S113077039F493FD859193FF81916F01853229F4BA
S1130780B70190E00E949705E7CF512C312C20E06F
S11307902032A0F48B3269F030F4803259F0833285
S11307A069F420612CC08D3239F0803339F4216032
S11307B026C02260246023C0286021C027FD27C0F2
S11307C030ED380F3A3078F426FF06C0FAE05F9E29
S11307D0300D1124532E13C08AE0389E300D11249D
S11307E0332E20620CC08E3221F426FD6BC12064AE
S11307F006C08C3611F4206802C0883641F4F60134
S113080093FD859193FF81916F018111C1CF982F41
S11308109F7D9554933028F40C5F1F4FFFE3F983B9
S11308200DC0833631F0833771F0833509F05BC036
S113083022C0F801808189830E5F1F4F44244394B2
S1130840512C540115C03801F2E06F0E711CF801EF
S1130850A080B18026FF03C0652D70E002C06FEF59
S11308607FEFC5012C870E948C052C0183012C8508
S11308702F77222E17C03801F2E06F0E711CF80199
S1130880A080B18026FF03C0652D70E002C06FEF29
S11308907FEFC5012C870E9481052C012C852068DF
S11308A0222E830123FC1BC0832D90E04816590699
S11308B0B0F4B70180E290E00E9497053A94F4CF37
S11308C0F50127FC859127FE81915F01B70190E036
S11308D00E94970531103A94F1E04F1A51084114DF
S11308E0510471F7E5C0843611F0893639F5F80101
S11308F027FF07C060817181828193810C5F1F4F44
S113090008C060817181072E000C880B990B0E5F63
S11309101F4F2F76722E97FF09C090958095709582
S113092061957F4F8F4F9F4F2068722E2AE030E0F1
S1130930A4010E94CF05A82EA81844C0853729F425
S11309402F7EB22E2AE030E025C0F22FF97FBF2E91
S11309508F36C1F018F4883579F0B4C0803719F0B7
S1130960883721F0AFC02F2F2061B22EB4FE0DC006
S11309708B2D8460B82E09C024FF0AC09F2F966077
S1130980B92E06C028E030E005C020E130E002C006
S113099020E132E0F801B7FE07C0608171818281F5
S11309A093810C5F1F4F06C06081718180E090E0ED
S11309B00E5F1F4FA4010E94CF05A82EA818FB2D7F
S11309C0FF777F2E76FE0BC0372D3E7FA51450F4A3
S11309D074FE0AC072FC08C0372D3E7E05C0BA2CD6
S11309E0372D03C0BA2C01C0B52C34FF0DC0FE0155
S11309F0EA0DF11D8081803311F4397E09C032FF84
S1130A0006C0B394B39404C0832F867809F0B394DA
S1130A1033FD13C030FF06C05A2CB31418F4530C22
S1130A205B18B32CB31468F4B70180E290E03C8700
S1130A300E949705B3943C85F5CFB31410F43B188A
S1130A4001C0312C34FF12C0B70180E390E03C8731
S1130A500E9497053C8532FF17C031FD03C088E72B
S1130A6090E002C088E590E0B7010CC0832F86783F
S1130A7059F031FF02C08BE201C080E237FD8DE204
S1130A80B70190E00E949705A51438F4B70180E3FC
S1130A9090E00E9497055A94F7CFAA94F401EA0DC6
S1130AA0F11D8081B70190E00E949705A110F5CF58
S1130AB0332009F451CEB70180E290E00E949705FB
S1130AC03A94F6CFF7018681978102C08FEF9FEFAA
S1130AD02C960FB6F894DEBF0FBECDBFDF91CF9139
S1130AE01F910F91FF90EF90DF90CF90BF90AF9048
S1130AF09F908F907F906F905F904F903F902F903A
S1130B000895FC010590615070400110D8F780955C
S1130B1090958E0F9F1F0895FC01615070400190C5
S1130B200110D8F7809590958E0F9F1F08950F930D
S1130B301F93CF93DF93FB01238121FD03C08FEF2C
S1130B409FEF28C022FF16C046815781248135813A
S1130B504217530744F4A081B1819D012F5F3F4F99
S1130B60318320838C93268137812F5F3F4F3783D6
S1130B70268310C0EB01092F182F0084F185E02D86
S1130B800995892BE1F68E819F8101969F838E833F
S1130B90812F902FDF91CF911F910F910895FA012A
S1130BA0AA27283051F1203181F1E8946F936E7FA8
S1130BB06E5F7F4F8F4F9F4FAF4FB1E03ED0B4E099
S1130BC03CD0670F781F891F9A1FA11D680F791FDA
S1130BD08A1F911DA11D6A0F711D811D911DA11DEB
S1130BE020D009F468943F912AE0269F11243019FB
S1130BF0305D3193DEF6CF010895462F4770405D96
S1130C004193B3E00FD0C9F7F6CF462F4F70405D44
S1130C104A3318F0495D31FD4052419302D0A9F79F
S1130C20EACFB4E0A6959795879577956795BA9599
S1130C30C9F700976105710508959B01AC010A2E5F
S1130C4006945795479537952795BA95C9F7620F36
S1110C50731F841F951FA01D0895F894FFCFF5
S1130C5EFFFFFFFFFFFFFF095468697320697320CC
S1130C6E4855535341494E2773204F42432D4D61EE
S1130C7E7374657220636F64652E2E2E000D43759A
S1130C8E7272656E742053756E73656E736F722017
S1130C9E7374617465206973203D0900257509001C
S1130CAE092E2E54686973206973204949544227CA
S1130CBE732053747564656E7420536174656C6C23
S10B0CCE6974652E2E2E0D0041
S9030000FC
