S0190000684D61737465725F506F776572746573742E737265630B
S11300000C9446000C9465000C9465000C946500F7
S11300100C9465000C9465000C9465000C946500C8
S11300200C9465000C9465000C9465000C946500B8
S11300300C9465000C9465000C9465000C946500A8
S11300400C9465000C9465000C9467000C94650096
S11300500C9465000C9465000C9465000C94650088
S11300600C9465000C9465000C9465000C94650078
S11300700C9465000C9465000C9465000C94650068
S11300800C9465000C9465000C94650011241FBE4B
S1130090CFEFD0E1DEBFCDBF11E0A0E0B1E0EAE1F7
S11300A0F6E000E00BBF02C007900D92A237B10743
S11300B0D9F722E0A2E7B1E001C01D92A430B20753
S11300C0E1F70E94C7010C940B030C9400001F92EB
S11300D00F920FB60F9211240BB60F922F938F939A
S11300E09F93AF93BF93EF93FF938CB1809373016E
S11300F08091740190917501A0917601B09177017E
S1130100BA2FA92F982F8827809374019093750193
S1130110A0937601B0937701809174019091750159
S1130120A0917601B0917701882780937401909310
S11301307501A0937601B093770180917401909139
S11301407501A0917601B091770120917301822B02
S11301508093740190937501A0937601B093770115
S1130160809106018C30A0F4E09106018091730126
S1130170F0E0E858FE4F8083809106018F5F809302
S11301800601809106018C3019F48FEF80930601EB
S1130190809105018C30A0F4E091050180917301F8
S11301A0F0E0EC57FE4F8083809105018F5F8093D0
S11301B00501809105018C3019F48FEF80930501BE
S11301C0809104018430C0F480910401823040F0B5
S11301D0E091040180917301F0E0E250FF4F8083CD
S11301E0809104018F5F8093040180910401843025
S11301F019F48FEF80930401809103018031C0F4DE
S113020080910301843040F0E091030180917301F7
S1130210F0E0E457FE4F8083809103018F5F809369
S1130220030180910301803119F48FEF809303015E
S1130230809102018730B8F4E0910201809173014A
S1130240F0E0E456FE4F8083809102018F5F80933B
S1130250020180910201873031F48FEF8093020113
S113026081E0809372018091740190917501A09155
S11302707601B09177018C3A9440AF43BF4329F49F
S113028010927201109206013FC080917401909106
S11302907501A0917601B09177018C3A9540AF43F6
S11302A0BF4319F4109205012FC0809174019091FD
S11302B07501A0917601B09177018C3A9B40AF43D0
S11302C0BF4319F4109204011FC0809174019091EE
S11302D07501A0917601B09177018C3A9E40AF43AD
S11302E0BF4319F4109203010FC0809174019091DF
S11302F07501A0917601B09177018C3A9F40AF438C
S1130300BF4311F410920201809100019091010108
S1130310843F9140F0F48091000190910101892B78
S1130320C1F0809172018823A1F081E08093FA01E9
S113033057988FEF9FEF90930101809300011092E3
S1130340720110927401109275011092760110924C
S11303507701FF91EF91BF91AF919F918F912F9171
S11303600F900BBE0F900FBE0F901F901895CF9358
S1130370DF93CAEED1E0BE0182E20E948E02219692
S113038081E0C13FD807B9F7DF91CF910895CF93AA
S1130390DF93CDB7DEB7C857D1090FB6F894DEBFE7
S11303A00FBECDBF80EF8ABB8BBB2FEF39E698E140
S11303B0215030409040E1F700C000001BBA2FEFFD
S11303C039E698E1215030409040E1F700C0000048
S11303D08BBB2FEF39E688E1215030408040E1F7B4
S11303E000C000001BBA9FEF29E638E1915020407D
S11303F03040E1F700C000000E94E6028DE00E9458
S1130400F7028DE00E94F70288E40E94F70285E675
S11304100E94F7028CE60E94F7028CE60E94F70223
S11304208FE60E94F70267E071E0CE018F5A9F4F7A
S11304300E940403CE018F5A9F4F0E94FB027E014B
S113044089E2E80EF11C6FE271E0C7010E94040327
S113045065E571E08E010F5F1F4FC8010E94040320
S11304600E948602789480EAC82E90E5D92ECBBAF1
S11304709FEF24E33CE0915020403040E1F700C07E
S11304800000DBBA8FEF94E32CE0815090402040D1
S1130490E1F700C000008DE00E94F7028DE00E94A9
S11304A0F70288E40E94F70289E60E94F702C70176
S11304B00E94FB02C8010E94FB02CBBA3FEF84E317
S11304C09CE0315080409040E1F700C00000DBBA6E
S11304D02FEF34E38CE0215030408040E1F700C03E
S11304E000000E94B70167E070E08AEE91E00E948C
S11304F07A02BDCFFC01680F791F04C05D9BFECF5B
S113050081918CB9E617F707C9F708951092710025
S11305101092740088E480937000089524EA209374
S113052074009091740097FFFCCF90917100987FB4
S11305309833A9F390917100987F903129F09091AC
S11305407100987F9830D9F5880F8F5F809373007E
S113055084E8809374008091740087FFFCCF8091BD
S11305607100887F883409F421C080917100887FEC
S1130570883341F180917100887F803409F01CC078
S113058085E88A95F1F7000084E8809374008091EF
S1130590740087FFFCCF80917100887F803511F053
S11305A0883551F480917300FB01808384E9809342
S11305B0740021E030E008C084E9809374002FEFD8
S11305C03FEF02C02EEF3FEFC90108951BB81AB8E0
S11305D0E5E9F0E01082599A8AB188618AB980818C
S11305E08E60808387E689B91092900008955D9BA0
S11305F0FECF8CB90895FC0103C05D9BFECF8CB97E
S113060081918111FACF0895FB01DC0101900D92D3
S10D06100020E1F70895F894FFCFED
S113061AFFFFFFFFFFFFFF092E2E5468697320694D
S113062A73204949544227732053747564656E7460
S113063A20536174656C6C6974652E2E2E0D000945
S113064A54686973206973204855535341494E27A6
S113065A73204F42432D4D617374657220636F6436
S113066A652E2E2E000D44617461207265636569DE
S113067A7665642066726F6D20506F776572203AD2
S105068A090061
S9030000FC
